{
  "_format": "hh-sol-artifact-1",
  "contractName": "OnestableSourceRelayerAdapter",
  "sourceName": "contracts/src/OnestableSourceRelayerAdapter.sol",
  "abi": [
    {
      "inputs": [
        {
          "internalType": "address",
          "name": "_owner",
          "type": "address"
        },
        {
          "internalType": "address",
          "name": "_authorizedSigner",
          "type": "address"
        },
        {
          "internalType": "address",
          "name": "_bridge",
          "type": "address"
        }
      ],
      "stateMutability": "nonpayable",
      "type": "constructor"
    },
    {
      "inputs": [],
      "name": "ECDSAInvalidSignature",
      "type": "error"
    },
    {
      "inputs": [
        {
          "internalType": "uint256",
          "name": "length",
          "type": "uint256"
        }
      ],
      "name": "ECDSAInvalidSignatureLength",
      "type": "error"
    },
    {
      "inputs": [
        {
          "internalType": "bytes32",
          "name": "s",
          "type": "bytes32"
        }
      ],
      "name": "ECDSAInvalidSignatureS",
      "type": "error"
    },
    {
      "inputs": [
        {
          "internalType": "string",
          "name": "field",
          "type": "string"
        }
      ],
      "name": "EmptyString",
      "type": "error"
    },
    {
      "inputs": [],
      "name": "EnforcedPause",
      "type": "error"
    },
    {
      "inputs": [],
      "name": "ExpectedPause",
      "type": "error"
    },
    {
      "inputs": [],
      "name": "InvalidShortString",
      "type": "error"
    },
    {
      "inputs": [
        {
          "internalType": "address",
          "name": "owner",
          "type": "address"
        }
      ],
      "name": "OwnableInvalidOwner",
      "type": "error"
    },
    {
      "inputs": [
        {
          "internalType": "address",
          "name": "account",
          "type": "address"
        }
      ],
      "name": "OwnableUnauthorizedAccount",
      "type": "error"
    },
    {
      "inputs": [],
      "name": "ReentrancyGuardReentrantCall",
      "type": "error"
    },
    {
      "inputs": [
        {
          "internalType": "string",
          "name": "str",
          "type": "string"
        }
      ],
      "name": "StringTooLong",
      "type": "error"
    },
    {
      "inputs": [
        {
          "internalType": "address",
          "name": "signer",
          "type": "address"
        }
      ],
      "name": "UnauthorizedSigner",
      "type": "error"
    },
    {
      "inputs": [
        {
          "internalType": "string",
          "name": "field",
          "type": "string"
        }
      ],
      "name": "ZeroAddress",
      "type": "error"
    },
    {
      "anonymous": false,
      "inputs": [],
      "name": "EIP712DomainChanged",
      "type": "event"
    },
    {
      "anonymous": false,
      "inputs": [
        {
          "indexed": true,
          "internalType": "address",
          "name": "previousOwner",
          "type": "address"
        },
        {
          "indexed": true,
          "internalType": "address",
          "name": "newOwner",
          "type": "address"
        }
      ],
      "name": "OwnershipTransferred",
      "type": "event"
    },
    {
      "anonymous": false,
      "inputs": [
        {
          "indexed": false,
          "internalType": "address",
          "name": "account",
          "type": "address"
        }
      ],
      "name": "Paused",
      "type": "event"
    },
    {
      "anonymous": false,
      "inputs": [
        {
          "indexed": true,
          "internalType": "address",
          "name": "prevSigner",
          "type": "address"
        },
        {
          "indexed": true,
          "internalType": "address",
          "name": "newSigner",
          "type": "address"
        }
      ],
      "name": "SignerChanged",
      "type": "event"
    },
    {
      "anonymous": false,
      "inputs": [
        {
          "indexed": false,
          "internalType": "address",
          "name": "account",
          "type": "address"
        }
      ],
      "name": "Unpaused",
      "type": "event"
    },
    {
      "inputs": [],
      "name": "CONFIRM_LOCK_TYPEHASH",
      "outputs": [
        {
          "internalType": "bytes32",
          "name": "",
          "type": "bytes32"
        }
      ],
      "stateMutability": "view",
      "type": "function"
    },
    {
      "inputs": [],
      "name": "REVERT_LOCK_TYPEHASH",
      "outputs": [
        {
          "internalType": "bytes32",
          "name": "",
          "type": "bytes32"
        }
      ],
      "stateMutability": "view",
      "type": "function"
    },
    {
      "inputs": [],
      "name": "UNLOCK_TYPEHASH",
      "outputs": [
        {
          "internalType": "bytes32",
          "name": "",
          "type": "bytes32"
        }
      ],
      "stateMutability": "view",
      "type": "function"
    },
    {
      "inputs": [],
      "name": "authorizedSigner",
      "outputs": [
        {
          "internalType": "address",
          "name": "",
          "type": "address"
        }
      ],
      "stateMutability": "view",
      "type": "function"
    },
    {
      "inputs": [],
      "name": "bridge",
      "outputs": [
        {
          "internalType": "contract IOnestableSourceBridge",
          "name": "",
          "type": "address"
        }
      ],
      "stateMutability": "view",
      "type": "function"
    },
    {
      "inputs": [],
      "name": "eip712Domain",
      "outputs": [
        {
          "internalType": "bytes1",
          "name": "fields",
          "type": "bytes1"
        },
        {
          "internalType": "string",
          "name": "name",
          "type": "string"
        },
        {
          "internalType": "string",
          "name": "version",
          "type": "string"
        },
        {
          "internalType": "uint256",
          "name": "chainId",
          "type": "uint256"
        },
        {
          "internalType": "address",
          "name": "verifyingContract",
          "type": "address"
        },
        {
          "internalType": "bytes32",
          "name": "salt",
          "type": "bytes32"
        },
        {
          "internalType": "uint256[]",
          "name": "extensions",
          "type": "uint256[]"
        }
      ],
      "stateMutability": "view",
      "type": "function"
    },
    {
      "inputs": [
        {
          "internalType": "bytes32",
          "name": "lockId",
          "type": "bytes32"
        },
        {
          "internalType": "bytes32",
          "name": "receipt",
          "type": "bytes32"
        },
        {
          "internalType": "uint256",
          "name": "destChainId",
          "type": "uint256"
        },
        {
          "internalType": "address",
          "name": "destTokenAddress",
          "type": "address"
        },
        {
          "internalType": "bytes",
          "name": "signature",
          "type": "bytes"
        }
      ],
      "name": "executeConfirm",
      "outputs": [],
      "stateMutability": "nonpayable",
      "type": "function"
    },
    {
      "inputs": [
        {
          "internalType": "bytes32",
          "name": "lockId",
          "type": "bytes32"
        },
        {
          "internalType": "bytes",
          "name": "signature",
          "type": "bytes"
        }
      ],
      "name": "executeRevert",
      "outputs": [],
      "stateMutability": "nonpayable",
      "type": "function"
    },
    {
      "inputs": [
        {
          "internalType": "bytes32",
          "name": "burnId",
          "type": "bytes32"
        },
        {
          "internalType": "uint256",
          "name": "srcChainId",
          "type": "uint256"
        },
        {
          "internalType": "address",
          "name": "srcTokenAddress",
          "type": "address"
        },
        {
          "internalType": "address",
          "name": "sender",
          "type": "address"
        },
        {
          "internalType": "address",
          "name": "recipient",
          "type": "address"
        },
        {
          "internalType": "uint256",
          "name": "amount",
          "type": "uint256"
        },
        {
          "internalType": "uint256",
          "name": "maxConfirmationTimestamp",
          "type": "uint256"
        },
        {
          "internalType": "bytes",
          "name": "signature",
          "type": "bytes"
        }
      ],
      "name": "executeUnlock",
      "outputs": [],
      "stateMutability": "nonpayable",
      "type": "function"
    },
    {
      "inputs": [],
      "name": "owner",
      "outputs": [
        {
          "internalType": "address",
          "name": "",
          "type": "address"
        }
      ],
      "stateMutability": "view",
      "type": "function"
    },
    {
      "inputs": [],
      "name": "pause",
      "outputs": [],
      "stateMutability": "nonpayable",
      "type": "function"
    },
    {
      "inputs": [],
      "name": "paused",
      "outputs": [
        {
          "internalType": "bool",
          "name": "",
          "type": "bool"
        }
      ],
      "stateMutability": "view",
      "type": "function"
    },
    {
      "inputs": [],
      "name": "renounceOwnership",
      "outputs": [],
      "stateMutability": "nonpayable",
      "type": "function"
    },
    {
      "inputs": [
        {
          "internalType": "address",
          "name": "newSigner",
          "type": "address"
        }
      ],
      "name": "setAuthorizedSigner",
      "outputs": [],
      "stateMutability": "nonpayable",
      "type": "function"
    },
    {
      "inputs": [
        {
          "internalType": "address",
          "name": "newOwner",
          "type": "address"
        }
      ],
      "name": "transferOwnership",
      "outputs": [],
      "stateMutability": "nonpayable",
      "type": "function"
    },
    {
      "inputs": [],
      "name": "unpause",
      "outputs": [],
      "stateMutability": "nonpayable",
      "type": "function"
    }
  ],
  "bytecode": "0x61018060405234801561001157600080fd5b50604051611805380380611805833981016040819052610030916103cb565b604080518082018252601d81527f4f6e65737461626c65536f7572636552656c6179657241646170746572000000602080830191909152825180840190935260018352603160f81b908301529084848383836001600160a01b0381166100b157604051631e4fbdf760e01b8152600060048201526024015b60405180910390fd5b6100ba816102ee565b506000805460ff60a01b191690556100d382600161033e565b610120526100e281600261033e565b61014052815160208084019190912060e052815190820120610100524660a05261016f60e05161010051604080517f8b73c3c69bb8fe3d512ecc4cf759cc79239f7b179b0ffacaa9a75d522b39400f60208201529081019290925260608201524660808201523060a082015260009060c00160405160208183030381529060405280519060200120905090565b60805250503060c05283516000036101b2576040516318a996bb60e21b81526020600482015260056024820152645f6e616d6560d81b60448201526064016100a8565b82516000036101ef576040516318a996bb60e21b81526020600482015260086024820152672fbb32b939b4b7b760c11b60448201526064016100a8565b6001600160a01b03821661022f5760405163eac0d38960e01b81526020600482015260066024820152652fb7bbb732b960d11b60448201526064016100a8565b6001600160a01b03811661027a5760405163eac0d38960e01b81526020600482015260116024820152702fb0baba3437b934bd32b229b4b3b732b960791b60448201526064016100a8565b600380546001600160a01b0319166001600160a01b039283161790556001600455841692506102d99150505760405163eac0d38960e01b81526020600482015260076024820152665f62726964676560c81b60448201526064016100a8565b6001600160a01b031661016052506105dd9050565b600080546001600160a01b038381166001600160a01b0319831681178455604051919092169283917f8be0079c531659141344cd1fd0a4f28419497f9722a3daafe3b4186f6b6457e09190a35050565b600060208351101561035a5761035383610371565b905061036b565b8161036584826104ad565b5060ff90505b92915050565b600080829050601f8151111561039c578260405163305a27a960e01b81526004016100a8919061056b565b80516103a7826105b9565b179392505050565b80516001600160a01b03811681146103c657600080fd5b919050565b6000806000606084860312156103e057600080fd5b6103e9846103af565b92506103f7602085016103af565b9150610405604085016103af565b90509250925092565b634e487b7160e01b600052604160045260246000fd5b600181811c9082168061043857607f821691505b60208210810361045857634e487b7160e01b600052602260045260246000fd5b50919050565b601f8211156104a857806000526020600020601f840160051c810160208510156104855750805b601f840160051c820191505b818110156104a55760008155600101610491565b50505b505050565b81516001600160401b038111156104c6576104c661040e565b6104da816104d48454610424565b8461045e565b6020601f82116001811461050e57600083156104f65750848201515b600019600385901b1c1916600184901b1784556104a5565b600084815260208120601f198516915b8281101561053e578785015182556020948501946001909201910161051e565b508482101561055c5786840151600019600387901b60f8161c191681555b50505050600190811b01905550565b602081526000825180602084015260005b81811015610599576020818601810151604086840101520161057c565b506000604082850101526040601f19601f83011684010191505092915050565b805160208083015191908110156104585760001960209190910360031b1b16919050565b60805160a05160c05160e051610100516101205161014051610160516111ae61065760003960008181610268015281816103870152818161047801526105b8015260006109a40152600061097201526000610bd601526000610bae01526000610b0901526000610b3301526000610b5d01526111ae6000f3fe608060405234801561001057600080fd5b50600436106101005760003560e01c806384b0196e11610097578063c771909c11610066578063c771909c1461023d578063d279b0ca14610250578063e78cea9214610263578063f2fde38b1461028a57600080fd5b806384b0196e146101af5780638a0939ba146101ca5780638c8ca33c146101f15780638da5cb5b1461021857600080fd5b806354d944ea116100d357806354d944ea1461016f5780635c975abb14610182578063715018a61461019f5780638456cb59146101a757600080fd5b8063072182de1461010557806325bdf00c1461011a5780632f7bacae146101545780633f4ba83a14610167575b600080fd5b610118610113366004610ecc565b61029d565b005b6101417f116551a475f81398be9e6c5cc4c837b0f154ff9198beec0c3ada72c5950123ed81565b6040519081526020015b60405180910390f35b610118610162366004610f6b565b6103f9565b6101186104ec565b61011861017d366004610fb7565b6104fe565b600054600160a01b900460ff16604051901515815260200161014b565b610118610627565b610118610639565b6101b7610649565b60405161014b979695949392919061106e565b6101417fd70290acd50f7e158b0bd60b0e3e89ef72c4317d27eb9e74eeabe45f25c4bd2181565b6101417f8f110e68e91d21560a97d243b0ac97615e7cd5e9177045cf7138e6598962364581565b6000546001600160a01b03165b6040516001600160a01b03909116815260200161014b565b600354610225906001600160a01b031681565b61011861025e366004611106565b61068f565b6102257f000000000000000000000000000000000000000000000000000000000000000081565b610118610298366004611106565b610731565b6102a561076f565b6102ad610799565b604080517f8f110e68e91d21560a97d243b0ac97615e7cd5e9177045cf7138e6598962364560208201529081018a9052606081018990526001600160a01b03808916608083015280881660a0830152861660c082015260e0810185905261010081018490526000906101200160405160208183030381529060405280519060200120905061033c8184846107c4565b604051636bb1af4360e01b8152600481018b9052602481018a90526001600160a01b0389811660448301528881166064830152878116608483015260a4820187905260c482018690527f00000000000000000000000000000000000000000000000000000000000000001690636bb1af439060e401600060405180830381600087803b1580156103cb57600080fd5b505af11580156103df573d6000803e3d6000fd5b50505050506103ee6001600455565b505050505050505050565b61040161076f565b610409610799565b604080517f116551a475f81398be9e6c5cc4c837b0f154ff9198beec0c3ada72c5950123ed60208201529081018490526000906060016040516020818303038152906040528051906020012090506104628184846107c4565b604051633b63a41360e21b8152600481018590527f00000000000000000000000000000000000000000000000000000000000000006001600160a01b03169063ed8e904c90602401600060405180830381600087803b1580156104c457600080fd5b505af11580156104d8573d6000803e3d6000fd5b50505050506104e76001600455565b505050565b6104f4610856565b6104fc610883565b565b61050661076f565b61050e610799565b604080517fd70290acd50f7e158b0bd60b0e3e89ef72c4317d27eb9e74eeabe45f25c4bd21602082015290810187905260608101869052608081018590526001600160a01b03841660a082015260009060c0016040516020818303038152906040528051906020012090506105848184846107c4565b6040516327dc089d60e21b81526004810188905260248101879052604481018690526001600160a01b0385811660648301527f00000000000000000000000000000000000000000000000000000000000000001690639f70227490608401600060405180830381600087803b1580156105fc57600080fd5b505af1158015610610573d6000803e3d6000fd5b505050505061061f6001600455565b505050505050565b61062f610856565b6104fc60006108d8565b610641610856565b6104fc610928565b60006060806000806000606061065d61096b565b61066561099d565b60408051600080825260208201909252600f60f81b9b939a50919850469750309650945092509050565b610697610856565b6001600160a01b0381166106df5760405163eac0d38960e01b81526020600482015260096024820152683732bba9b4b3b732b960b91b60448201526064015b60405180910390fd5b600380546001600160a01b038381166001600160a01b0319831681179093556040519116919082907feeb293e1f8f3a9db91ade748726387ed1352ca78f5430c5f06fe3d1e1ad5057990600090a35050565b610739610856565b6001600160a01b03811661076357604051631e4fbdf760e01b8152600060048201526024016106d6565b61076c816108d8565b50565b60026004540361079257604051633ee5aeb560e01b815260040160405180910390fd5b6002600455565b600054600160a01b900460ff16156104fc5760405163d93c066560e01b815260040160405180910390fd5b60006107cf846109ca565b905060006108138285858080601f0160208091040260200160405190810160405280939291908181526020018383808284376000920191909152506109fd92505050565b6003549091506001600160a01b0380831691161461084f5760405163e74c68bb60e01b81526001600160a01b03821660048201526024016106d6565b5050505050565b6000546001600160a01b031633146104fc5760405163118cdaa760e01b81523360048201526024016106d6565b61088b610a27565b6000805460ff60a01b191690557f5db9ee0a495bf2e6ff9c91a7834c1ba4fdd244a5e8aa4e537bd38aeae4b073aa335b6040516001600160a01b03909116815260200160405180910390a1565b600080546001600160a01b038381166001600160a01b0319831681178455604051919092169283917f8be0079c531659141344cd1fd0a4f28419497f9722a3daafe3b4186f6b6457e09190a35050565b610930610799565b6000805460ff60a01b1916600160a01b1790557f62e78cea01bee320cd4e420270b5ea74000d11b0c9f74754ebdbfc544b05a2586108bb3390565b60606109987f00000000000000000000000000000000000000000000000000000000000000006001610a51565b905090565b60606109987f00000000000000000000000000000000000000000000000000000000000000006002610a51565b60006109f76109d7610afc565b8360405161190160f01b8152600281019290925260228201526042902090565b92915050565b600080600080610a0d8686610c27565b925092509250610a1d8282610c74565b5090949350505050565b600054600160a01b900460ff166104fc57604051638dfc202b60e01b815260040160405180910390fd5b606060ff8314610a6b57610a6483610d31565b90506109f7565b818054610a7790611128565b80601f0160208091040260200160405190810160405280929190818152602001828054610aa390611128565b8015610af05780601f10610ac557610100808354040283529160200191610af0565b820191906000526020600020905b815481529060010190602001808311610ad357829003601f168201915b505050505090506109f7565b6000306001600160a01b037f000000000000000000000000000000000000000000000000000000000000000016148015610b5557507f000000000000000000000000000000000000000000000000000000000000000046145b15610b7f57507f000000000000000000000000000000000000000000000000000000000000000090565b610998604080517f8b73c3c69bb8fe3d512ecc4cf759cc79239f7b179b0ffacaa9a75d522b39400f60208201527f0000000000000000000000000000000000000000000000000000000000000000918101919091527f000000000000000000000000000000000000000000000000000000000000000060608201524660808201523060a082015260009060c00160405160208183030381529060405280519060200120905090565b60008060008351604103610c615760208401516040850151606086015160001a610c5388828585610d70565b955095509550505050610c6d565b50508151600091506002905b9250925092565b6000826003811115610c8857610c88611162565b03610c91575050565b6001826003811115610ca557610ca5611162565b03610cc35760405163f645eedf60e01b815260040160405180910390fd5b6002826003811115610cd757610cd7611162565b03610cf85760405163fce698f760e01b8152600481018290526024016106d6565b6003826003811115610d0c57610d0c611162565b03610d2d576040516335e2f38360e21b8152600481018290526024016106d6565b5050565b60606000610d3e83610e3f565b604080516020808252818301909252919250600091906020820181803683375050509182525060208101929092525090565b600080807f7fffffffffffffffffffffffffffffff5d576e7357a4501ddfe92f46681b20a0841115610dab5750600091506003905082610e35565b604080516000808252602082018084528a905260ff891692820192909252606081018790526080810186905260019060a0016020604051602081039080840390855afa158015610dff573d6000803e3d6000fd5b5050604051601f1901519150506001600160a01b038116610e2b57506000925060019150829050610e35565b9250600091508190505b9450945094915050565b600060ff8216601f8111156109f757604051632cd44ac360e21b815260040160405180910390fd5b80356001600160a01b0381168114610e7e57600080fd5b919050565b60008083601f840112610e9557600080fd5b50813567ffffffffffffffff811115610ead57600080fd5b602083019150836020828501011115610ec557600080fd5b9250929050565b60008060008060008060008060006101008a8c031215610eeb57600080fd5b8935985060208a01359750610f0260408b01610e67565b9650610f1060608b01610e67565b9550610f1e60808b01610e67565b945060a08a0135935060c08a0135925060e08a013567ffffffffffffffff811115610f4857600080fd5b610f548c828d01610e83565b915080935050809150509295985092959850929598565b600080600060408486031215610f8057600080fd5b83359250602084013567ffffffffffffffff811115610f9e57600080fd5b610faa86828701610e83565b9497909650939450505050565b60008060008060008060a08789031215610fd057600080fd5b863595506020870135945060408701359350610fee60608801610e67565b9250608087013567ffffffffffffffff81111561100a57600080fd5b61101689828a01610e83565b979a9699509497509295939492505050565b6000815180845260005b8181101561104e57602081850181015186830182015201611032565b506000602082860101526020601f19601f83011685010191505092915050565b60ff60f81b8816815260e06020820152600061108d60e0830189611028565b828103604084015261109f8189611028565b606084018890526001600160a01b038716608085015260a0840186905283810360c08501528451808252602080870193509091019060005b818110156110f55783518352602093840193909201916001016110d7565b50909b9a5050505050505050505050565b60006020828403121561111857600080fd5b61112182610e67565b9392505050565b600181811c9082168061113c57607f821691505b60208210810361115c57634e487b7160e01b600052602260045260246000fd5b50919050565b634e487b7160e01b600052602160045260246000fdfea2646970667358221220d61becc1d8efeefc20d2954e8931d251a03b46a144d96040d396d6cded87966364736f6c634300081b0033",
  "linkReferences": {},
  "deployedLinkReferences": {}
}