{
  "_format": "hh-sol-artifact-1",
  "contractName": "OnestableSourceBridge",
  "sourceName": "contracts/src/OnestableSourceBridge.sol",
  "abi": [
    {
      "inputs": [],
      "stateMutability": "nonpayable",
      "type": "constructor"
    },
    {
      "inputs": [],
      "name": "AccessControlBadConfirmation",
      "type": "error"
    },
    {
      "inputs": [
        {
          "internalType": "address",
          "name": "account",
          "type": "address"
        },
        {
          "internalType": "bytes32",
          "name": "neededRole",
          "type": "bytes32"
        }
      ],
      "name": "AccessControlUnauthorizedAccount",
      "type": "error"
    },
    {
      "inputs": [
        {
          "internalType": "address",
          "name": "target",
          "type": "address"
        }
      ],
      "name": "AddressEmptyCode",
      "type": "error"
    },
    {
      "inputs": [
        {
          "internalType": "address",
          "name": "account",
          "type": "address"
        }
      ],
      "name": "AddressInsufficientBalance",
      "type": "error"
    },
    {
      "inputs": [],
      "name": "AlreadyProcessed",
      "type": "error"
    },
    {
      "inputs": [
        {
          "internalType": "bytes32",
          "name": "lockId",
          "type": "bytes32"
        }
      ],
      "name": "ConfirmLockNotAllowed",
      "type": "error"
    },
    {
      "inputs": [
        {
          "internalType": "uint256",
          "name": "allowed",
          "type": "uint256"
        },
        {
          "internalType": "uint256",
          "name": "provided",
          "type": "uint256"
        }
      ],
      "name": "DestinationChainNotAllowed",
      "type": "error"
    },
    {
      "inputs": [
        {
          "internalType": "address",
          "name": "allowed",
          "type": "address"
        },
        {
          "internalType": "address",
          "name": "provided",
          "type": "address"
        }
      ],
      "name": "DestinationTokenNotAllowed",
      "type": "error"
    },
    {
      "inputs": [
        {
          "internalType": "address",
          "name": "implementation",
          "type": "address"
        }
      ],
      "name": "ERC1967InvalidImplementation",
      "type": "error"
    },
    {
      "inputs": [],
      "name": "ERC1967NonPayable",
      "type": "error"
    },
    {
      "inputs": [],
      "name": "EnforcedPause",
      "type": "error"
    },
    {
      "inputs": [],
      "name": "ExpectedPause",
      "type": "error"
    },
    {
      "inputs": [],
      "name": "FailedInnerCall",
      "type": "error"
    },
    {
      "inputs": [
        {
          "internalType": "uint256",
          "name": "available",
          "type": "uint256"
        },
        {
          "internalType": "uint256",
          "name": "required",
          "type": "uint256"
        }
      ],
      "name": "InsufficientLockedSupply",
      "type": "error"
    },
    {
      "inputs": [],
      "name": "InvalidAmount",
      "type": "error"
    },
    {
      "inputs": [
        {
          "internalType": "string",
          "name": "field",
          "type": "string"
        }
      ],
      "name": "InvalidChainId",
      "type": "error"
    },
    {
      "inputs": [
        {
          "internalType": "uint256",
          "name": "provided",
          "type": "uint256"
        },
        {
          "internalType": "uint256",
          "name": "min",
          "type": "uint256"
        },
        {
          "internalType": "uint256",
          "name": "max",
          "type": "uint256"
        }
      ],
      "name": "InvalidConfirmationPeriod",
      "type": "error"
    },
    {
      "inputs": [],
      "name": "InvalidId",
      "type": "error"
    },
    {
      "inputs": [],
      "name": "InvalidInitialization",
      "type": "error"
    },
    {
      "inputs": [],
      "name": "NotInitializing",
      "type": "error"
    },
    {
      "inputs": [],
      "name": "ReentrancyGuardReentrantCall",
      "type": "error"
    },
    {
      "inputs": [
        {
          "internalType": "uint256",
          "name": "allowedChainId",
          "type": "uint256"
        },
        {
          "internalType": "uint256",
          "name": "srcChainId",
          "type": "uint256"
        }
      ],
      "name": "ReleaseNotAllowedFromSource",
      "type": "error"
    },
    {
      "inputs": [
        {
          "internalType": "address",
          "name": "allowedTokenAddress",
          "type": "address"
        },
        {
          "internalType": "address",
          "name": "srcTokenAddress",
          "type": "address"
        }
      ],
      "name": "ReleaseNotAllowedFromSourceToken",
      "type": "error"
    },
    {
      "inputs": [
        {
          "internalType": "uint256",
          "name": "current",
          "type": "uint256"
        },
        {
          "internalType": "uint256",
          "name": "maxConfirmationTimestamp",
          "type": "uint256"
        }
      ],
      "name": "RequestTimeout",
      "type": "error"
    },
    {
      "inputs": [
        {
          "internalType": "address",
          "name": "token",
          "type": "address"
        }
      ],
      "name": "RescueNotAllowed",
      "type": "error"
    },
    {
      "inputs": [
        {
          "internalType": "uint256",
          "name": "current",
          "type": "uint256"
        },
        {
          "internalType": "uint256",
          "name": "maxConfirmationTimestamp",
          "type": "uint256"
        }
      ],
      "name": "RevertLockedTokensTooEarly",
      "type": "error"
    },
    {
      "inputs": [
        {
          "internalType": "bytes32",
          "name": "lockId",
          "type": "bytes32"
        }
      ],
      "name": "RevertNotAllowed",
      "type": "error"
    },
    {
      "inputs": [
        {
          "internalType": "address",
          "name": "token",
          "type": "address"
        }
      ],
      "name": "SafeERC20FailedOperation",
      "type": "error"
    },
    {
      "inputs": [],
      "name": "UUPSUnauthorizedCallContext",
      "type": "error"
    },
    {
      "inputs": [
        {
          "internalType": "bytes32",
          "name": "slot",
          "type": "bytes32"
        }
      ],
      "name": "UUPSUnsupportedProxiableUUID",
      "type": "error"
    },
    {
      "inputs": [
        {
          "internalType": "string",
          "name": "field",
          "type": "string"
        }
      ],
      "name": "ZeroAddress",
      "type": "error"
    },
    {
      "anonymous": false,
      "inputs": [
        {
          "indexed": false,
          "internalType": "uint64",
          "name": "version",
          "type": "uint64"
        }
      ],
      "name": "Initialized",
      "type": "event"
    },
    {
      "anonymous": false,
      "inputs": [
        {
          "indexed": true,
          "internalType": "bytes32",
          "name": "lockId",
          "type": "bytes32"
        },
        {
          "indexed": true,
          "internalType": "bytes32",
          "name": "receipt",
          "type": "bytes32"
        }
      ],
      "name": "LockConfirmed",
      "type": "event"
    },
    {
      "anonymous": false,
      "inputs": [
        {
          "indexed": false,
          "internalType": "address",
          "name": "account",
          "type": "address"
        }
      ],
      "name": "Paused",
      "type": "event"
    },
    {
      "anonymous": false,
      "inputs": [
        {
          "indexed": true,
          "internalType": "bytes32",
          "name": "lockId",
          "type": "bytes32"
        },
        {
          "indexed": true,
          "internalType": "address",
          "name": "recipient",
          "type": "address"
        },
        {
          "indexed": false,
          "internalType": "uint256",
          "name": "amount",
          "type": "uint256"
        }
      ],
      "name": "RevertedLockedTokens",
      "type": "event"
    },
    {
      "anonymous": false,
      "inputs": [
        {
          "indexed": true,
          "internalType": "bytes32",
          "name": "role",
          "type": "bytes32"
        },
        {
          "indexed": true,
          "internalType": "bytes32",
          "name": "previousAdminRole",
          "type": "bytes32"
        },
        {
          "indexed": true,
          "internalType": "bytes32",
          "name": "newAdminRole",
          "type": "bytes32"
        }
      ],
      "name": "RoleAdminChanged",
      "type": "event"
    },
    {
      "anonymous": false,
      "inputs": [
        {
          "indexed": true,
          "internalType": "bytes32",
          "name": "role",
          "type": "bytes32"
        },
        {
          "indexed": true,
          "internalType": "address",
          "name": "account",
          "type": "address"
        },
        {
          "indexed": true,
          "internalType": "address",
          "name": "sender",
          "type": "address"
        }
      ],
      "name": "RoleGranted",
      "type": "event"
    },
    {
      "anonymous": false,
      "inputs": [
        {
          "indexed": true,
          "internalType": "bytes32",
          "name": "role",
          "type": "bytes32"
        },
        {
          "indexed": true,
          "internalType": "address",
          "name": "account",
          "type": "address"
        },
        {
          "indexed": true,
          "internalType": "address",
          "name": "sender",
          "type": "address"
        }
      ],
      "name": "RoleRevoked",
      "type": "event"
    },
    {
      "anonymous": false,
      "inputs": [
        {
          "indexed": true,
          "internalType": "bytes32",
          "name": "lockId",
          "type": "bytes32"
        },
        {
          "indexed": true,
          "internalType": "address",
          "name": "sender",
          "type": "address"
        },
        {
          "indexed": true,
          "internalType": "address",
          "name": "recipient",
          "type": "address"
        },
        {
          "indexed": false,
          "internalType": "uint256",
          "name": "amount",
          "type": "uint256"
        },
        {
          "indexed": false,
          "internalType": "address",
          "name": "token",
          "type": "address"
        },
        {
          "indexed": false,
          "internalType": "uint256",
          "name": "maxConfirmationTimestamp",
          "type": "uint256"
        },
        {
          "indexed": false,
          "internalType": "uint256",
          "name": "destChainId",
          "type": "uint256"
        },
        {
          "indexed": false,
          "internalType": "address",
          "name": "destTokenAddress",
          "type": "address"
        }
      ],
      "name": "TokensLocked",
      "type": "event"
    },
    {
      "anonymous": false,
      "inputs": [
        {
          "indexed": true,
          "internalType": "bytes32",
          "name": "burnId",
          "type": "bytes32"
        },
        {
          "indexed": true,
          "internalType": "address",
          "name": "sender",
          "type": "address"
        },
        {
          "indexed": true,
          "internalType": "address",
          "name": "recipient",
          "type": "address"
        },
        {
          "indexed": false,
          "internalType": "uint256",
          "name": "amount",
          "type": "uint256"
        },
        {
          "indexed": false,
          "internalType": "address",
          "name": "token",
          "type": "address"
        },
        {
          "indexed": false,
          "internalType": "uint256",
          "name": "srcChainId",
          "type": "uint256"
        },
        {
          "indexed": false,
          "internalType": "address",
          "name": "srcTokenAddress",
          "type": "address"
        }
      ],
      "name": "TokensReleased",
      "type": "event"
    },
    {
      "anonymous": false,
      "inputs": [
        {
          "indexed": false,
          "internalType": "address",
          "name": "account",
          "type": "address"
        }
      ],
      "name": "Unpaused",
      "type": "event"
    },
    {
      "anonymous": false,
      "inputs": [
        {
          "indexed": true,
          "internalType": "address",
          "name": "implementation",
          "type": "address"
        }
      ],
      "name": "Upgraded",
      "type": "event"
    },
    {
      "inputs": [],
      "name": "DEFAULT_ADMIN_ROLE",
      "outputs": [
        {
          "internalType": "bytes32",
          "name": "",
          "type": "bytes32"
        }
      ],
      "stateMutability": "view",
      "type": "function"
    },
    {
      "inputs": [],
      "name": "MESSAGE_ADAPTER_ROLE",
      "outputs": [
        {
          "internalType": "bytes32",
          "name": "",
          "type": "bytes32"
        }
      ],
      "stateMutability": "view",
      "type": "function"
    },
    {
      "inputs": [],
      "name": "PAUSER_ROLE",
      "outputs": [
        {
          "internalType": "bytes32",
          "name": "",
          "type": "bytes32"
        }
      ],
      "stateMutability": "view",
      "type": "function"
    },
    {
      "inputs": [],
      "name": "UPGRADER_ROLE",
      "outputs": [
        {
          "internalType": "bytes32",
          "name": "",
          "type": "bytes32"
        }
      ],
      "stateMutability": "view",
      "type": "function"
    },
    {
      "inputs": [],
      "name": "UPGRADE_INTERFACE_VERSION",
      "outputs": [
        {
          "internalType": "string",
          "name": "",
          "type": "string"
        }
      ],
      "stateMutability": "view",
      "type": "function"
    },
    {
      "inputs": [
        {
          "internalType": "bytes32",
          "name": "_lockId",
          "type": "bytes32"
        },
        {
          "internalType": "bytes32",
          "name": "_receipt",
          "type": "bytes32"
        },
        {
          "internalType": "uint256",
          "name": "_destChainId",
          "type": "uint256"
        },
        {
          "internalType": "address",
          "name": "_destTokenAddress",
          "type": "address"
        }
      ],
      "name": "confirmLock",
      "outputs": [],
      "stateMutability": "nonpayable",
      "type": "function"
    },
    {
      "inputs": [
        {
          "internalType": "bytes32",
          "name": "",
          "type": "bytes32"
        }
      ],
      "name": "confirmedLockReceipts",
      "outputs": [
        {
          "internalType": "bytes32",
          "name": "",
          "type": "bytes32"
        }
      ],
      "stateMutability": "view",
      "type": "function"
    },
    {
      "inputs": [],
      "name": "destChainId",
      "outputs": [
        {
          "internalType": "uint256",
          "name": "",
          "type": "uint256"
        }
      ],
      "stateMutability": "view",
      "type": "function"
    },
    {
      "inputs": [],
      "name": "destTokenAddress",
      "outputs": [
        {
          "internalType": "address",
          "name": "",
          "type": "address"
        }
      ],
      "stateMutability": "view",
      "type": "function"
    },
    {
      "inputs": [],
      "name": "getExcessTokens",
      "outputs": [
        {
          "internalType": "uint256",
          "name": "",
          "type": "uint256"
        }
      ],
      "stateMutability": "view",
      "type": "function"
    },
    {
      "inputs": [
        {
          "internalType": "bytes32",
          "name": "role",
          "type": "bytes32"
        }
      ],
      "name": "getRoleAdmin",
      "outputs": [
        {
          "internalType": "bytes32",
          "name": "",
          "type": "bytes32"
        }
      ],
      "stateMutability": "view",
      "type": "function"
    },
    {
      "inputs": [
        {
          "internalType": "bytes32",
          "name": "role",
          "type": "bytes32"
        },
        {
          "internalType": "address",
          "name": "account",
          "type": "address"
        }
      ],
      "name": "grantRole",
      "outputs": [],
      "stateMutability": "nonpayable",
      "type": "function"
    },
    {
      "inputs": [
        {
          "internalType": "bytes32",
          "name": "role",
          "type": "bytes32"
        },
        {
          "internalType": "address",
          "name": "account",
          "type": "address"
        }
      ],
      "name": "hasRole",
      "outputs": [
        {
          "internalType": "bool",
          "name": "",
          "type": "bool"
        }
      ],
      "stateMutability": "view",
      "type": "function"
    },
    {
      "inputs": [
        {
          "internalType": "contract IERC20",
          "name": "_token",
          "type": "address"
        },
        {
          "internalType": "uint256",
          "name": "_destChainId",
          "type": "uint256"
        },
        {
          "internalType": "address",
          "name": "_destTokenAddress",
          "type": "address"
        },
        {
          "internalType": "uint256",
          "name": "_maxConfirmationPeriod",
          "type": "uint256"
        },
        {
          "internalType": "address",
          "name": "_defaultAdmin",
          "type": "address"
        },
        {
          "internalType": "address",
          "name": "_pauser",
          "type": "address"
        },
        {
          "internalType": "address",
          "name": "_upgrader",
          "type": "address"
        }
      ],
      "name": "initialize",
      "outputs": [],
      "stateMutability": "nonpayable",
      "type": "function"
    },
    {
      "inputs": [
        {
          "internalType": "bytes32",
          "name": "",
          "type": "bytes32"
        }
      ],
      "name": "isLockReverted",
      "outputs": [
        {
          "internalType": "bool",
          "name": "",
          "type": "bool"
        }
      ],
      "stateMutability": "view",
      "type": "function"
    },
    {
      "inputs": [
        {
          "internalType": "bytes32",
          "name": "",
          "type": "bytes32"
        }
      ],
      "name": "lockRecords",
      "outputs": [
        {
          "internalType": "address",
          "name": "sender",
          "type": "address"
        },
        {
          "internalType": "address",
          "name": "recipient",
          "type": "address"
        },
        {
          "internalType": "uint256",
          "name": "amount",
          "type": "uint256"
        },
        {
          "internalType": "address",
          "name": "token",
          "type": "address"
        },
        {
          "internalType": "uint256",
          "name": "destChainId",
          "type": "uint256"
        },
        {
          "internalType": "address",
          "name": "destTokenAddress",
          "type": "address"
        },
        {
          "internalType": "uint256",
          "name": "maxConfirmationTimestamp",
          "type": "uint256"
        },
        {
          "internalType": "uint256",
          "name": "nonce",
          "type": "uint256"
        }
      ],
      "stateMutability": "view",
      "type": "function"
    },
    {
      "inputs": [
        {
          "internalType": "address",
          "name": "recipient",
          "type": "address"
        },
        {
          "internalType": "uint256",
          "name": "amount",
          "type": "uint256"
        }
      ],
      "name": "lockTokens",
      "outputs": [],
      "stateMutability": "nonpayable",
      "type": "function"
    },
    {
      "inputs": [],
      "name": "maxConfirmationPeriod",
      "outputs": [
        {
          "internalType": "uint256",
          "name": "",
          "type": "uint256"
        }
      ],
      "stateMutability": "view",
      "type": "function"
    },
    {
      "inputs": [],
      "name": "pause",
      "outputs": [],
      "stateMutability": "nonpayable",
      "type": "function"
    },
    {
      "inputs": [],
      "name": "paused",
      "outputs": [
        {
          "internalType": "bool",
          "name": "",
          "type": "bool"
        }
      ],
      "stateMutability": "view",
      "type": "function"
    },
    {
      "inputs": [
        {
          "internalType": "bytes32",
          "name": "",
          "type": "bytes32"
        }
      ],
      "name": "processedReleases",
      "outputs": [
        {
          "internalType": "bool",
          "name": "",
          "type": "bool"
        }
      ],
      "stateMutability": "view",
      "type": "function"
    },
    {
      "inputs": [],
      "name": "proxiableUUID",
      "outputs": [
        {
          "internalType": "bytes32",
          "name": "",
          "type": "bytes32"
        }
      ],
      "stateMutability": "view",
      "type": "function"
    },
    {
      "inputs": [
        {
          "internalType": "address",
          "name": "to",
          "type": "address"
        }
      ],
      "name": "recoverExcessTokens",
      "outputs": [],
      "stateMutability": "nonpayable",
      "type": "function"
    },
    {
      "inputs": [
        {
          "internalType": "bytes32",
          "name": "burnId",
          "type": "bytes32"
        },
        {
          "internalType": "uint256",
          "name": "srcChainId",
          "type": "uint256"
        },
        {
          "internalType": "address",
          "name": "srcTokenAddress",
          "type": "address"
        },
        {
          "internalType": "address",
          "name": "sender",
          "type": "address"
        },
        {
          "internalType": "address",
          "name": "recipient",
          "type": "address"
        },
        {
          "internalType": "uint256",
          "name": "amount",
          "type": "uint256"
        },
        {
          "internalType": "uint256",
          "name": "maxConfirmationTimestamp",
          "type": "uint256"
        }
      ],
      "name": "releaseTokens",
      "outputs": [],
      "stateMutability": "nonpayable",
      "type": "function"
    },
    {
      "inputs": [
        {
          "internalType": "bytes32",
          "name": "role",
          "type": "bytes32"
        },
        {
          "internalType": "address",
          "name": "callerConfirmation",
          "type": "address"
        }
      ],
      "name": "renounceRole",
      "outputs": [],
      "stateMutability": "nonpayable",
      "type": "function"
    },
    {
      "inputs": [
        {
          "internalType": "contract IERC20",
          "name": "tokenContract",
          "type": "address"
        },
        {
          "internalType": "address",
          "name": "to",
          "type": "address"
        },
        {
          "internalType": "uint256",
          "name": "amount",
          "type": "uint256"
        }
      ],
      "name": "rescueERC20",
      "outputs": [],
      "stateMutability": "nonpayable",
      "type": "function"
    },
    {
      "inputs": [
        {
          "internalType": "bytes32",
          "name": "lockId",
          "type": "bytes32"
        }
      ],
      "name": "revertLockedTokens",
      "outputs": [],
      "stateMutability": "nonpayable",
      "type": "function"
    },
    {
      "inputs": [
        {
          "internalType": "bytes32",
          "name": "role",
          "type": "bytes32"
        },
        {
          "internalType": "address",
          "name": "account",
          "type": "address"
        }
      ],
      "name": "revokeRole",
      "outputs": [],
      "stateMutability": "nonpayable",
      "type": "function"
    },
    {
      "inputs": [
        {
          "internalType": "uint256",
          "name": "_maxPeriod",
          "type": "uint256"
        }
      ],
      "name": "setMaxConfirmationPeriod",
      "outputs": [],
      "stateMutability": "nonpayable",
      "type": "function"
    },
    {
      "inputs": [
        {
          "internalType": "address",
          "name": "adapter",
          "type": "address"
        },
        {
          "internalType": "bool",
          "name": "enabled",
          "type": "bool"
        }
      ],
      "name": "setMessageAdapter",
      "outputs": [],
      "stateMutability": "nonpayable",
      "type": "function"
    },
    {
      "inputs": [
        {
          "internalType": "bytes4",
          "name": "interfaceId",
          "type": "bytes4"
        }
      ],
      "name": "supportsInterface",
      "outputs": [
        {
          "internalType": "bool",
          "name": "",
          "type": "bool"
        }
      ],
      "stateMutability": "view",
      "type": "function"
    },
    {
      "inputs": [],
      "name": "token",
      "outputs": [
        {
          "internalType": "contract IERC20",
          "name": "",
          "type": "address"
        }
      ],
      "stateMutability": "view",
      "type": "function"
    },
    {
      "inputs": [],
      "name": "totalLockedSupply",
      "outputs": [
        {
          "internalType": "uint256",
          "name": "",
          "type": "uint256"
        }
      ],
      "stateMutability": "view",
      "type": "function"
    },
    {
      "inputs": [],
      "name": "unpause",
      "outputs": [],
      "stateMutability": "nonpayable",
      "type": "function"
    },
    {
      "inputs": [
        {
          "internalType": "address",
          "name": "newImplementation",
          "type": "address"
        },
        {
          "internalType": "bytes",
          "name": "data",
          "type": "bytes"
        }
      ],
      "name": "upgradeToAndCall",
      "outputs": [],
      "stateMutability": "payable",
      "type": "function"
    },
    {
      "inputs": [],
      "name": "verifyParity",
      "outputs": [
        {
          "internalType": "bool",
          "name": "",
          "type": "bool"
        }
      ],
      "stateMutability": "view",
      "type": "function"
    }
  ],
  "bytecode": "0x60a06040523060805234801561001457600080fd5b5061001d610022565b6100d4565b7ff0c57e16840df040f15088dc2f81fe391c3923bec73e23a9662efc9c229c6a00805468010000000000000000900460ff16156100725760405163f92ee8a960e01b815260040160405180910390fd5b80546001600160401b03908116146100d15780546001600160401b0319166001600160401b0390811782556040519081527fc7f505b2f371ae2175ee4913f4499e1f2633a7b5936321eed1cdaeb6115181d29060200160405180910390a15b50565b6080516127d06100fd60003960008181611b7801528181611ba10152611d0601526127d06000f3fe60806040526004361061020f5760003560e01c80639f70227411610118578063d547741f116100a0578063ed8e904c1161006f578063ed8e904c1461069c578063f1cee4a3146106bc578063f5f99be7146106e9578063f72c0d8b14610719578063fc0c546a1461074d57600080fd5b8063d547741f14610625578063e267b71114610645578063e63ab1e914610665578063eaa18f271461068757600080fd5b8063ad9e8689116100e7578063ad9e86891461057d578063b07d2213146105ad578063b1c25586146105cf578063b2118a8d146105ef578063c4af1c0b1461060f57600080fd5b80639f702274146104ea578063a217fddf1461050a578063a97a42121461051f578063ad3cb1cc1461053f57600080fd5b80635c975abb1161019b5780638001a11a1161016a5780638001a11a146103a65780638456cb59146103bc578063895ca155146103d157806391d14854146104095780639f0003241461042957600080fd5b80635c975abb146103215780636bb1af4314610346578063736d2ecb1461036657806373e9730f1461038657600080fd5b80632f2ff15d116101e25780632f2ff15d146102a257806336568abe146102c45780633f4ba83a146102e45780634f1ef286146102f957806352d1902d1461030c57600080fd5b806301ffc9a71461021457806316a0ea3c146102495780631b79c8391461026d578063248a9ca314610282575b600080fd5b34801561022057600080fd5b5061023461022f36600461228f565b61076d565b60405190151581526020015b60405180910390f35b34801561025557600080fd5b5061025f60025481565b604051908152602001610240565b34801561027957600080fd5b506102346107a4565b34801561028e57600080fd5b5061025f61029d3660046122b9565b61081b565b3480156102ae57600080fd5b506102c26102bd3660046122e7565b61083d565b005b3480156102d057600080fd5b506102c26102df3660046122e7565b61085f565b3480156102f057600080fd5b506102c2610897565b6102c261030736600461232d565b6108ba565b34801561031857600080fd5b5061025f6108d9565b34801561032d57600080fd5b5060008051602061275b8339815191525460ff16610234565b34801561035257600080fd5b506102c26103613660046123f9565b6108f6565b34801561037257600080fd5b506102c261038136600461246a565b610bf4565b34801561039257600080fd5b506102c26103a1366004612487565b610c64565b3480156103b257600080fd5b5061025f60055481565b3480156103c857600080fd5b506102c2610fba565b3480156103dd57600080fd5b506004546103f1906001600160a01b031681565b6040516001600160a01b039091168152602001610240565b34801561041557600080fd5b506102346104243660046122e7565b610fda565b34801561043557600080fd5b5061049a6104443660046122b9565b6007602081905260009182526040909120805460018201546002830154600384015460048501546005860154600687015496909701546001600160a01b0395861697948616969395928316949193919092169188565b604080516001600160a01b03998a16815297891660208901528701959095529286166060860152608085019190915290931660a083015260c082019290925260e081019190915261010001610240565b3480156104f657600080fd5b506102c261050536600461250b565b611012565b34801561051657600080fd5b5061025f600081565b34801561052b57600080fd5b506102c261053a36600461255a565b61125e565b34801561054b57600080fd5b50610570604051806040016040528060058152602001640352e302e360dc1b81525081565b60405161024091906125ac565b34801561058957600080fd5b506102346105983660046122b9565b60096020526000908152604090205460ff1681565b3480156105b957600080fd5b5061025f6000805160206126db83398151915281565b3480156105db57600080fd5b506102c26105ea3660046125df565b6112e0565b3480156105fb57600080fd5b506102c261060a36600461260b565b6115c6565b34801561061b57600080fd5b5061025f60035481565b34801561063157600080fd5b506102c26106403660046122e7565b61167c565b34801561065157600080fd5b506102c26106603660046122b9565b611698565b34801561067157600080fd5b5061025f60008051602061271b83398151915281565b34801561069357600080fd5b5061025f6116ed565b3480156106a857600080fd5b506102c26106b73660046122b9565b611783565b3480156106c857600080fd5b5061025f6106d73660046122b9565b60086020526000908152604090205481565b3480156106f557600080fd5b506102346107043660046122b9565b60066020526000908152604090205460ff1681565b34801561072557600080fd5b5061025f7f189ab7a9244df0848122154315af71fe140f3db0fe014031783b0946b8c9d2e381565b34801561075957600080fd5b506001546103f1906001600160a01b031681565b60006001600160e01b03198216637965db0b60e01b148061079e57506301ffc9a760e01b6001600160e01b03198316145b92915050565b6002546001546040516370a0823160e01b8152306004820152600092916001600160a01b0316906370a0823190602401602060405180830381865afa1580156107f1573d6000803e3d6000fd5b505050506040513d601f19601f82011682018060405250810190610815919061264c565b14905090565b600090815260008051602061273b833981519152602052604090206001015490565b6108468261081b565b61084f816119e2565b61085983836119ec565b50505050565b6001600160a01b03811633146108885760405163334bd91960e11b815260040160405180910390fd5b6108928282611a91565b505050565b60008051602061271b8339815191526108af816119e2565b6108b7611b0d565b50565b6108c2611b6d565b6108cb82611c14565b6108d58282611c3e565b5050565b60006108e3611cfb565b506000805160206126fb83398151915290565b6108fe611d44565b610906611d75565b6000805160206126db83398151915261091e816119e2565b86600003610961576040516305c57e8360e01b815260206004820152600a6024820152691cdc98d0da185a5b925960b21b60448201526064015b60405180910390fd5b6001600160a01b0386166109aa5760405163eac0d38960e01b815260206004820152600f60248201526e737263546f6b656e4164647265737360881b6044820152606401610958565b876109c857604051631bf4348160e31b815260040160405180910390fd5b6001600160a01b038416610a0b5760405163eac0d38960e01b81526020600482015260096024820152681c9958da5c1a595b9d60ba1b6044820152606401610958565b82600003610a2c5760405163162908e360e11b815260040160405180910390fd5b42821015610a565760405163309c39e560e11b815242600482015260248101839052604401610958565b60008881526006602052604090205460ff1615610a8657604051632bf773b360e11b815260040160405180910390fd5b6003548714610ab65760035460405163dda3dccf60e01b8152600481019190915260248101889052604401610958565b6004546001600160a01b03878116911614610afd576004805460405163fe5a2cd360e01b81526001600160a01b039182169281019290925287166024820152604401610958565b826002541015610b2e5760025460405163827334ef60e01b8152600481019190915260248101849052604401610958565b6000888152600660205260408120805460ff1916600117905560028054859290610b5990849061267b565b9091555050600154610b75906001600160a01b03168585611dad565b600154604080518581526001600160a01b0392831660208201529081018990528782166060820152818616918716908a907f7ae6083bfc9e82cb06cce30feea1b5653e003721f29d2ce034eec8ca26fd4dc69060800160405180910390a450610beb600160008051602061277b83398151915255565b50505050505050565b6000610bff816119e2565b6001600160a01b038216610c3b5760405163eac0d38960e01b8152602060048201526002602482015261746f60f01b6044820152606401610958565b6000610c456116ed565b9050801561089257600154610892906001600160a01b03168483611dad565b7ff0c57e16840df040f15088dc2f81fe391c3923bec73e23a9662efc9c229c6a008054600160401b810460ff16159067ffffffffffffffff16600081158015610caa5750825b905060008267ffffffffffffffff166001148015610cc75750303b155b905081158015610cd5575080155b15610cf35760405163f92ee8a960e01b815260040160405180910390fd5b845467ffffffffffffffff191660011785558315610d1d57845460ff60401b1916600160401b1785555b6001600160a01b038c16610d5d5760405163eac0d38960e01b81526020600482015260066024820152652fba37b5b2b760d11b6044820152606401610958565b8a1580610d695750468b145b15610da6576040516305c57e8360e01b815260206004820152600c60248201526b17d9195cdd10da185a5b925960a21b6044820152606401610958565b6001600160a01b038a16610df15760405163eac0d38960e01b81526020600482015260116024820152705f64657374546f6b656e4164647265737360781b6044820152606401610958565b6001600160a01b038816610e385760405163eac0d38960e01b815260206004820152600d60248201526c2fb232b330bab63a20b236b4b760991b6044820152606401610958565b6001600160a01b038716610e795760405163eac0d38960e01b81526020600482015260076024820152662fb830bab9b2b960c91b6044820152606401610958565b6001600160a01b038616610ebc5760405163eac0d38960e01b81526020600482015260096024820152682fbab833b930b232b960b91b6044820152606401610958565b610ec4611e20565b610ecc611e30565b610ed4611e40565b610edc611e40565b610ee76000896119ec565b50610f0060008051602061271b833981519152886119ec565b50610f2b7f189ab7a9244df0848122154315af71fe140f3db0fe014031783b0946b8c9d2e3876119ec565b50600180546001600160a01b03808f166001600160a01b03199283161790925560038d905560048054928d169290911691909117905560058990558315610fac57845460ff60401b19168555604051600181527fc7f505b2f371ae2175ee4913f4499e1f2633a7b5936321eed1cdaeb6115181d29060200160405180910390a15b505050505050505050505050565b60008051602061271b833981519152610fd2816119e2565b6108b7611e48565b600091825260008051602061273b833981519152602090815260408084206001600160a01b0393909316845291905290205460ff1690565b61101a611d75565b611022611d44565b6000805160206126db83398151915261103a816119e2565b60008581526007602081815260409283902083516101008101855281546001600160a01b03908116808352600184015482169483019490945260028301549582019590955260038201548516606082015260048201546080820152600582015490941660a0850152600681015460c08501529091015460e08301526110d257604051631bf4348160e31b815260040160405180910390fd5b806080015184146111065760808101516040516364f9bc0760e11b8152600481019190915260248101859052604401610958565b8060a001516001600160a01b0316836001600160a01b0316146111555760a08101516040516367632d7b60e11b81526001600160a01b0391821660048201529084166024820152604401610958565b60008681526009602052604090205460ff16156111885760405163fe3139b160e01b815260048101879052602401610958565b600086815260086020526040902054156111b557604051632bf773b360e11b815260040160405180910390fd5b600086815260086020908152604080832088905560079182905280832080546001600160a01b031990811682556001820180548216905560028201859055600382018054821690556004820185905560058201805490911690556006810184905590910182905551869188917f2832b73a947b4913feb2ec1720cb96b41d7522fabd0b92df94ceb257285e1bf79190a35050610859600160008051602061277b83398151915255565b6000611269816119e2565b6001600160a01b0383166112aa5760405163eac0d38960e01b815260206004820152600760248201526630b230b83a32b960c91b6044820152606401610958565b81156112c8576108596000805160206126db833981519152846119ec565b6108596000805160206126db83398151915284611a91565b6112e8611d75565b6112f0611d44565b806000036113115760405163162908e360e11b815260040160405180910390fd5b6001600160a01b0382166113545760405163eac0d38960e01b81526020600482015260096024820152681c9958da5c1a595b9d60ba1b6044820152606401610958565b6001600080828254611366919061268e565b92505081905550806002600082825461137f919061268e565b909155505060408051610100810182523381526001600160a01b03848116602083015291810183905260015482166060820152600354608082015260045490911660a08201526005546000919060c08201906113db904261268e565b815260200160005481525090506000611484828051602080830151604080850151606080870151608088015160a089015160c08a015160e0909a015186516bffffffffffffffffffffffff199a861b8b16818b015297851b8a166034890152604888019590955291831b88166068870152607c860152901b909416609c83015260b082019490945260d0808201939093528351808203909301835260f001909252805191012090565b600081815260076020818152604092839020865181546001600160a01b03199081166001600160a01b039283161783559288015160018084018054861692841692909217909155948801516002830155606088015160038301805485169183169190911790556080880151600483015560a08801516005830180549094169082161790925560c0870151600682015560e087015192019190915590549192506115309116333086611e91565b602082810151835160408086015160015460c088015160035460045485519485526001600160a01b039384169885019890985293830152606082019290925293811660808501529182169291169083907f57b21a3a553eda1e5dde8e929c993cd7f331f24b198618ad3fb29cca0ba5557a9060a00160405180910390a450506108d5600160008051602061277b83398151915255565b60006115d1816119e2565b6001600160a01b03831661160d5760405163eac0d38960e01b8152602060048201526002602482015261746f60f01b6044820152606401610958565b8160000361162e5760405163162908e360e11b815260040160405180910390fd5b6001546001600160a01b03908116908516036116685760405163626baaad60e01b81526001600160a01b0385166004820152602401610958565b6108596001600160a01b0385168484611dad565b6116858261081b565b61168e816119e2565b6108598383611a91565b60006116a3816119e2565b61012c8210806116b557506201518082115b156116e75760405163cee97bdf60e01b81526004810183905261012c6024820152620151806044820152606401610958565b50600555565b6001546040516370a0823160e01b815230600482015260009182916001600160a01b03909116906370a0823190602401602060405180830381865afa15801561173a573d6000803e3d6000fd5b505050506040513d601f19601f8201168201806040525081019061175e919061264c565b9050600254811161177057600061177d565b60025461177d908261267b565b91505090565b61178b611d75565b611793611d44565b6000805160206126db8339815191526117ab816119e2565b60008281526007602081815260409283902083516101008101855281546001600160a01b03908116808352600184015482169483019490945260028301549582019590955260038201548516606082015260048201546080820152600582015490941660a0850152600681015460c08501529091015460e083015261184357604051631bf4348160e31b815260040160405180910390fd5b8060c001514210156118775760c081015160405163445f143560e01b81524260048201526024810191909152604401610958565b600083815260086020526040902054156118a757604051635854482960e01b815260048101849052602401610958565b60008381526009602052604090205460ff16156118d757604051632bf773b360e11b815260040160405180910390fd5b600083815260096020526040808220805460ff19166001179055820151600280549192909161190790849061267b565b90915550508051604082015160015461192b926001600160a01b0390911691611dad565b600083815260076020818152604080842080546001600160a01b03199081168255600182018054821690556002820186905560038201805482169055600482018690556005820180549091169055600681018590559092019290925582518382015191519182526001600160a01b03169185917f8af0f5e484e4b613b0595903cafa379b177fb1378ee26f621ce6ac95f6f068bc910160405180910390a350506108b7600160008051602061277b83398151915255565b6108b78133611eca565b600060008051602061273b833981519152611a078484610fda565b611a87576000848152602082815260408083206001600160a01b03871684529091529020805460ff19166001179055611a3d3390565b6001600160a01b0316836001600160a01b0316857f2f8788117e7eff1d82e926ec794901d17c78024a50270940304540a733656f0d60405160405180910390a4600191505061079e565b600091505061079e565b600060008051602061273b833981519152611aac8484610fda565b15611a87576000848152602082815260408083206001600160a01b0387168085529252808320805460ff1916905551339287917ff6391f5c32d9c69d2a47ea670b442974b53935d1edc7fd64eb21e047a839171b9190a4600191505061079e565b611b15611f03565b60008051602061275b833981519152805460ff191681557f5db9ee0a495bf2e6ff9c91a7834c1ba4fdd244a5e8aa4e537bd38aeae4b073aa335b6040516001600160a01b03909116815260200160405180910390a150565b306001600160a01b037f0000000000000000000000000000000000000000000000000000000000000000161480611bf457507f00000000000000000000000000000000000000000000000000000000000000006001600160a01b0316611be86000805160206126fb833981519152546001600160a01b031690565b6001600160a01b031614155b15611c125760405163703e46dd60e11b815260040160405180910390fd5b565b7f189ab7a9244df0848122154315af71fe140f3db0fe014031783b0946b8c9d2e36108d5816119e2565b816001600160a01b03166352d1902d6040518163ffffffff1660e01b8152600401602060405180830381865afa925050508015611c98575060408051601f3d908101601f19168201909252611c959181019061264c565b60015b611cc057604051634c9c8ce360e01b81526001600160a01b0383166004820152602401610958565b6000805160206126fb8339815191528114611cf157604051632a87526960e21b815260048101829052602401610958565b6108928383611f33565b306001600160a01b037f00000000000000000000000000000000000000000000000000000000000000001614611c125760405163703e46dd60e11b815260040160405180910390fd5b60008051602061275b8339815191525460ff1615611c125760405163d93c066560e01b815260040160405180910390fd5b60008051602061277b833981519152805460011901611da757604051633ee5aeb560e01b815260040160405180910390fd5b60029055565b6040516001600160a01b0383811660248301526044820183905261089291859182169063a9059cbb906064015b604051602081830303815290604052915060e01b6020820180516001600160e01b038381831617835250505050611f89565b600160008051602061277b83398151915255565b611e28611fec565b611c12612035565b611e38611fec565b611c12612056565b611c12611fec565b611e50611d44565b60008051602061275b833981519152805460ff191660011781557f62e78cea01bee320cd4e420270b5ea74000d11b0c9f74754ebdbfc544b05a25833611b4f565b6040516001600160a01b0384811660248301528381166044830152606482018390526108599186918216906323b872dd90608401611dda565b611ed48282610fda565b6108d55760405163e2517d3f60e01b81526001600160a01b038216600482015260248101839052604401610958565b60008051602061275b8339815191525460ff16611c1257604051638dfc202b60e01b815260040160405180910390fd5b611f3c8261205e565b6040516001600160a01b038316907fbc7cd75a20ee27fd9adebab32041f755214dbc6bffa90cc0225b39da2e5c2d3b90600090a2805115611f815761089282826120c3565b6108d5612139565b6000611f9e6001600160a01b03841683612158565b90508051600014158015611fc3575080806020019051810190611fc191906126a1565b155b1561089257604051635274afe760e01b81526001600160a01b0384166004820152602401610958565b7ff0c57e16840df040f15088dc2f81fe391c3923bec73e23a9662efc9c229c6a0054600160401b900460ff16611c1257604051631afcd79f60e31b815260040160405180910390fd5b61203d611fec565b60008051602061275b833981519152805460ff19169055565b611e0c611fec565b806001600160a01b03163b60000361209457604051634c9c8ce360e01b81526001600160a01b0382166004820152602401610958565b6000805160206126fb83398151915280546001600160a01b0319166001600160a01b0392909216919091179055565b6060600080846001600160a01b0316846040516120e091906126be565b600060405180830381855af49150503d806000811461211b576040519150601f19603f3d011682016040523d82523d6000602084013e612120565b606091505b509150915061213085838361216d565b95945050505050565b3415611c125760405163b398979f60e01b815260040160405180910390fd5b6060612166838360006121c9565b9392505050565b6060826121825761217d82612266565b612166565b815115801561219957506001600160a01b0384163b155b156121c257604051639996b31560e01b81526001600160a01b0385166004820152602401610958565b5092915050565b6060814710156121ee5760405163cd78605960e01b8152306004820152602401610958565b600080856001600160a01b0316848660405161220a91906126be565b60006040518083038185875af1925050503d8060008114612247576040519150601f19603f3d011682016040523d82523d6000602084013e61224c565b606091505b509150915061225c86838361216d565b9695505050505050565b8051156122765780518082602001fd5b604051630a12f52160e11b815260040160405180910390fd5b6000602082840312156122a157600080fd5b81356001600160e01b03198116811461216657600080fd5b6000602082840312156122cb57600080fd5b5035919050565b6001600160a01b03811681146108b757600080fd5b600080604083850312156122fa57600080fd5b82359150602083013561230c816122d2565b809150509250929050565b634e487b7160e01b600052604160045260246000fd5b6000806040838503121561234057600080fd5b823561234b816122d2565b9150602083013567ffffffffffffffff81111561236757600080fd5b8301601f8101851361237857600080fd5b803567ffffffffffffffff81111561239257612392612317565b604051601f8201601f19908116603f0116810167ffffffffffffffff811182821017156123c1576123c1612317565b6040528181528282016020018710156123d957600080fd5b816020840160208301376000602083830101528093505050509250929050565b600080600080600080600060e0888a03121561241457600080fd5b8735965060208801359550604088013561242d816122d2565b9450606088013561243d816122d2565b9350608088013561244d816122d2565b9699959850939692959460a0840135945060c09093013592915050565b60006020828403121561247c57600080fd5b8135612166816122d2565b600080600080600080600060e0888a0312156124a257600080fd5b87356124ad816122d2565b96506020880135955060408801356124c4816122d2565b94506060880135935060808801356124db816122d2565b925060a08801356124eb816122d2565b915060c08801356124fb816122d2565b8091505092959891949750929550565b6000806000806080858703121561252157600080fd5b8435935060208501359250604085013591506060850135612541816122d2565b939692955090935050565b80151581146108b757600080fd5b6000806040838503121561256d57600080fd5b8235612578816122d2565b9150602083013561230c8161254c565b60005b838110156125a357818101518382015260200161258b565b50506000910152565b60208152600082518060208401526125cb816040850160208701612588565b601f01601f19169190910160400192915050565b600080604083850312156125f257600080fd5b82356125fd816122d2565b946020939093013593505050565b60008060006060848603121561262057600080fd5b833561262b816122d2565b9250602084013561263b816122d2565b929592945050506040919091013590565b60006020828403121561265e57600080fd5b5051919050565b634e487b7160e01b600052601160045260246000fd5b8181038181111561079e5761079e612665565b8082018082111561079e5761079e612665565b6000602082840312156126b357600080fd5b81516121668161254c565b600082516126d0818460208701612588565b919091019291505056fea1e2c127643b05ddd4b2a9035efb97eaf74237c1e00561fe90b272f75f614f2a360894a13ba1a3210667c828492db98dca3e2076cc3735a920a3ca505d382bbc65d7a28e3265b37a6474929f336521b332c1681b933f6cb9f3376673440d862a02dd7bc7dec4dceedda775e58dd541e08a116c6c53815c0bd028192f7b626800cd5ed15c6e187e77e9aee88184c21f4f2182ab5827cb3b7e07fbedcd63f033009b779b17422d0df92223018b32b4d1fa46e071723d6817e2486d003becc55f00a26469706673582212208394f0b7c42a6505a1bca0a2edb4359049f3fb5ec869cbe157e36092720253ba64736f6c634300081b0033",
  "linkReferences": {},
  "deployedLinkReferences": {}
}