{
  "_format": "hh-sol-artifact-1",
  "contractName": "OnestableDestinationBridge",
  "sourceName": "contracts/dest/OnestableDestinationBridge.sol",
  "abi": [
    {
      "inputs": [],
      "stateMutability": "nonpayable",
      "type": "constructor"
    },
    {
      "inputs": [],
      "name": "AccessControlBadConfirmation",
      "type": "error"
    },
    {
      "inputs": [
        {
          "internalType": "address",
          "name": "account",
          "type": "address"
        },
        {
          "internalType": "bytes32",
          "name": "neededRole",
          "type": "bytes32"
        }
      ],
      "name": "AccessControlUnauthorizedAccount",
      "type": "error"
    },
    {
      "inputs": [
        {
          "internalType": "address",
          "name": "target",
          "type": "address"
        }
      ],
      "name": "AddressEmptyCode",
      "type": "error"
    },
    {
      "inputs": [
        {
          "internalType": "address",
          "name": "account",
          "type": "address"
        }
      ],
      "name": "AddressInsufficientBalance",
      "type": "error"
    },
    {
      "inputs": [],
      "name": "AlreadyProcessed",
      "type": "error"
    },
    {
      "inputs": [
        {
          "internalType": "string",
          "name": "field1",
          "type": "string"
        },
        {
          "internalType": "string",
          "name": "field2",
          "type": "string"
        }
      ],
      "name": "ArrayLengthMismatch",
      "type": "error"
    },
    {
      "inputs": [
        {
          "internalType": "bytes32",
          "name": "burnId",
          "type": "bytes32"
        }
      ],
      "name": "ConfirmBurnNotAllowed",
      "type": "error"
    },
    {
      "inputs": [
        {
          "internalType": "uint256",
          "name": "chainId",
          "type": "uint256"
        }
      ],
      "name": "DestinationChainNotAllowed",
      "type": "error"
    },
    {
      "inputs": [
        {
          "internalType": "address",
          "name": "implementation",
          "type": "address"
        }
      ],
      "name": "ERC1967InvalidImplementation",
      "type": "error"
    },
    {
      "inputs": [],
      "name": "ERC1967NonPayable",
      "type": "error"
    },
    {
      "inputs": [],
      "name": "EnforcedPause",
      "type": "error"
    },
    {
      "inputs": [],
      "name": "ExpectedPause",
      "type": "error"
    },
    {
      "inputs": [],
      "name": "FailedInnerCall",
      "type": "error"
    },
    {
      "inputs": [
        {
          "internalType": "uint256",
          "name": "available",
          "type": "uint256"
        },
        {
          "internalType": "uint256",
          "name": "required",
          "type": "uint256"
        }
      ],
      "name": "InsufficientMintedSupply",
      "type": "error"
    },
    {
      "inputs": [],
      "name": "InvalidAmount",
      "type": "error"
    },
    {
      "inputs": [
        {
          "internalType": "string",
          "name": "field",
          "type": "string"
        }
      ],
      "name": "InvalidChainId",
      "type": "error"
    },
    {
      "inputs": [],
      "name": "InvalidId",
      "type": "error"
    },
    {
      "inputs": [],
      "name": "InvalidInitialization",
      "type": "error"
    },
    {
      "inputs": [
        {
          "internalType": "uint256",
          "name": "chainId",
          "type": "uint256"
        }
      ],
      "name": "MintNotAllowedFromSource",
      "type": "error"
    },
    {
      "inputs": [
        {
          "internalType": "address",
          "name": "allowedTokenAddress",
          "type": "address"
        },
        {
          "internalType": "address",
          "name": "srcTokenAddress",
          "type": "address"
        }
      ],
      "name": "MintNotAllowedFromSourceToken",
      "type": "error"
    },
    {
      "inputs": [
        {
          "internalType": "address",
          "name": "recipient",
          "type": "address"
        },
        {
          "internalType": "uint256",
          "name": "amount",
          "type": "uint256"
        }
      ],
      "name": "MintTokensFailed",
      "type": "error"
    },
    {
      "inputs": [],
      "name": "NotInitializing",
      "type": "error"
    },
    {
      "inputs": [],
      "name": "ReentrancyGuardReentrantCall",
      "type": "error"
    },
    {
      "inputs": [
        {
          "internalType": "uint256",
          "name": "current",
          "type": "uint256"
        },
        {
          "internalType": "uint256",
          "name": "maxConfirmationTimestamp",
          "type": "uint256"
        }
      ],
      "name": "RequestTimeout",
      "type": "error"
    },
    {
      "inputs": [
        {
          "internalType": "uint256",
          "name": "current",
          "type": "uint256"
        },
        {
          "internalType": "uint256",
          "name": "maxConfirmationTimestamp",
          "type": "uint256"
        }
      ],
      "name": "RevertBurnedTokensTooEarly",
      "type": "error"
    },
    {
      "inputs": [
        {
          "internalType": "bytes32",
          "name": "burnId",
          "type": "bytes32"
        }
      ],
      "name": "RevertNotAllowed",
      "type": "error"
    },
    {
      "inputs": [
        {
          "internalType": "address",
          "name": "token",
          "type": "address"
        }
      ],
      "name": "SafeERC20FailedOperation",
      "type": "error"
    },
    {
      "inputs": [],
      "name": "UUPSUnauthorizedCallContext",
      "type": "error"
    },
    {
      "inputs": [
        {
          "internalType": "bytes32",
          "name": "slot",
          "type": "bytes32"
        }
      ],
      "name": "UUPSUnsupportedProxiableUUID",
      "type": "error"
    },
    {
      "inputs": [
        {
          "internalType": "string",
          "name": "field",
          "type": "string"
        }
      ],
      "name": "ZeroAddress",
      "type": "error"
    },
    {
      "anonymous": false,
      "inputs": [
        {
          "indexed": true,
          "internalType": "uint256",
          "name": "chainId",
          "type": "uint256"
        },
        {
          "indexed": false,
          "internalType": "address",
          "name": "tokenAddress",
          "type": "address"
        }
      ],
      "name": "AllowedSourceTokenUpdated",
      "type": "event"
    },
    {
      "anonymous": false,
      "inputs": [
        {
          "indexed": true,
          "internalType": "bytes32",
          "name": "burnId",
          "type": "bytes32"
        },
        {
          "indexed": true,
          "internalType": "bytes32",
          "name": "receipt",
          "type": "bytes32"
        }
      ],
      "name": "BurnConfirmed",
      "type": "event"
    },
    {
      "anonymous": false,
      "inputs": [
        {
          "indexed": false,
          "internalType": "uint64",
          "name": "version",
          "type": "uint64"
        }
      ],
      "name": "Initialized",
      "type": "event"
    },
    {
      "anonymous": false,
      "inputs": [
        {
          "indexed": false,
          "internalType": "address",
          "name": "account",
          "type": "address"
        }
      ],
      "name": "Paused",
      "type": "event"
    },
    {
      "anonymous": false,
      "inputs": [
        {
          "indexed": true,
          "internalType": "bytes32",
          "name": "burnId",
          "type": "bytes32"
        },
        {
          "indexed": true,
          "internalType": "address",
          "name": "recipient",
          "type": "address"
        },
        {
          "indexed": false,
          "internalType": "uint256",
          "name": "amount",
          "type": "uint256"
        }
      ],
      "name": "RevertedBurnedTokens",
      "type": "event"
    },
    {
      "anonymous": false,
      "inputs": [
        {
          "indexed": true,
          "internalType": "bytes32",
          "name": "role",
          "type": "bytes32"
        },
        {
          "indexed": true,
          "internalType": "bytes32",
          "name": "previousAdminRole",
          "type": "bytes32"
        },
        {
          "indexed": true,
          "internalType": "bytes32",
          "name": "newAdminRole",
          "type": "bytes32"
        }
      ],
      "name": "RoleAdminChanged",
      "type": "event"
    },
    {
      "anonymous": false,
      "inputs": [
        {
          "indexed": true,
          "internalType": "bytes32",
          "name": "role",
          "type": "bytes32"
        },
        {
          "indexed": true,
          "internalType": "address",
          "name": "account",
          "type": "address"
        },
        {
          "indexed": true,
          "internalType": "address",
          "name": "sender",
          "type": "address"
        }
      ],
      "name": "RoleGranted",
      "type": "event"
    },
    {
      "anonymous": false,
      "inputs": [
        {
          "indexed": true,
          "internalType": "bytes32",
          "name": "role",
          "type": "bytes32"
        },
        {
          "indexed": true,
          "internalType": "address",
          "name": "account",
          "type": "address"
        },
        {
          "indexed": true,
          "internalType": "address",
          "name": "sender",
          "type": "address"
        }
      ],
      "name": "RoleRevoked",
      "type": "event"
    },
    {
      "anonymous": false,
      "inputs": [
        {
          "indexed": true,
          "internalType": "bytes32",
          "name": "burnId",
          "type": "bytes32"
        },
        {
          "indexed": true,
          "internalType": "address",
          "name": "sender",
          "type": "address"
        },
        {
          "indexed": true,
          "internalType": "address",
          "name": "recipient",
          "type": "address"
        },
        {
          "indexed": false,
          "internalType": "uint256",
          "name": "amount",
          "type": "uint256"
        },
        {
          "indexed": false,
          "internalType": "address",
          "name": "token",
          "type": "address"
        },
        {
          "indexed": false,
          "internalType": "uint256",
          "name": "maxConfirmationTimestamp",
          "type": "uint256"
        },
        {
          "indexed": false,
          "internalType": "uint256",
          "name": "destChainId",
          "type": "uint256"
        },
        {
          "indexed": false,
          "internalType": "address",
          "name": "destTokenAddress",
          "type": "address"
        }
      ],
      "name": "TokensBurned",
      "type": "event"
    },
    {
      "anonymous": false,
      "inputs": [
        {
          "indexed": true,
          "internalType": "bytes32",
          "name": "lockId",
          "type": "bytes32"
        },
        {
          "indexed": true,
          "internalType": "address",
          "name": "sender",
          "type": "address"
        },
        {
          "indexed": true,
          "internalType": "address",
          "name": "recipient",
          "type": "address"
        },
        {
          "indexed": false,
          "internalType": "uint256",
          "name": "amount",
          "type": "uint256"
        },
        {
          "indexed": false,
          "internalType": "uint256",
          "name": "srcChainId",
          "type": "uint256"
        },
        {
          "indexed": false,
          "internalType": "address",
          "name": "srcTokenAddress",
          "type": "address"
        }
      ],
      "name": "TokensMinted",
      "type": "event"
    },
    {
      "anonymous": false,
      "inputs": [
        {
          "indexed": false,
          "internalType": "address",
          "name": "account",
          "type": "address"
        }
      ],
      "name": "Unpaused",
      "type": "event"
    },
    {
      "anonymous": false,
      "inputs": [
        {
          "indexed": true,
          "internalType": "address",
          "name": "implementation",
          "type": "address"
        }
      ],
      "name": "Upgraded",
      "type": "event"
    },
    {
      "inputs": [],
      "name": "DEFAULT_ADMIN_ROLE",
      "outputs": [
        {
          "internalType": "bytes32",
          "name": "",
          "type": "bytes32"
        }
      ],
      "stateMutability": "view",
      "type": "function"
    },
    {
      "inputs": [],
      "name": "MESSAGE_ADAPTER_ROLE",
      "outputs": [
        {
          "internalType": "bytes32",
          "name": "",
          "type": "bytes32"
        }
      ],
      "stateMutability": "view",
      "type": "function"
    },
    {
      "inputs": [],
      "name": "PAUSER_ROLE",
      "outputs": [
        {
          "internalType": "bytes32",
          "name": "",
          "type": "bytes32"
        }
      ],
      "stateMutability": "view",
      "type": "function"
    },
    {
      "inputs": [],
      "name": "UPGRADER_ROLE",
      "outputs": [
        {
          "internalType": "bytes32",
          "name": "",
          "type": "bytes32"
        }
      ],
      "stateMutability": "view",
      "type": "function"
    },
    {
      "inputs": [],
      "name": "UPGRADE_INTERFACE_VERSION",
      "outputs": [
        {
          "internalType": "string",
          "name": "",
          "type": "string"
        }
      ],
      "stateMutability": "view",
      "type": "function"
    },
    {
      "inputs": [
        {
          "internalType": "uint256",
          "name": "",
          "type": "uint256"
        }
      ],
      "name": "allowedSourceTokens",
      "outputs": [
        {
          "internalType": "address",
          "name": "",
          "type": "address"
        }
      ],
      "stateMutability": "view",
      "type": "function"
    },
    {
      "inputs": [],
      "name": "bridgedToken",
      "outputs": [
        {
          "internalType": "contract IOnestableBridgedToken",
          "name": "",
          "type": "address"
        }
      ],
      "stateMutability": "view",
      "type": "function"
    },
    {
      "inputs": [
        {
          "internalType": "bytes32",
          "name": "",
          "type": "bytes32"
        }
      ],
      "name": "burnRecords",
      "outputs": [
        {
          "internalType": "address",
          "name": "sender",
          "type": "address"
        },
        {
          "internalType": "address",
          "name": "recipient",
          "type": "address"
        },
        {
          "internalType": "uint256",
          "name": "amount",
          "type": "uint256"
        },
        {
          "internalType": "uint256",
          "name": "destChainId",
          "type": "uint256"
        },
        {
          "internalType": "address",
          "name": "destTokenAddress",
          "type": "address"
        },
        {
          "internalType": "uint256",
          "name": "maxConfirmationTimestamp",
          "type": "uint256"
        },
        {
          "internalType": "uint256",
          "name": "nonce",
          "type": "uint256"
        }
      ],
      "stateMutability": "view",
      "type": "function"
    },
    {
      "inputs": [
        {
          "internalType": "uint256",
          "name": "destChainId",
          "type": "uint256"
        },
        {
          "internalType": "address",
          "name": "recipient",
          "type": "address"
        },
        {
          "internalType": "uint256",
          "name": "amount",
          "type": "uint256"
        }
      ],
      "name": "burnTokens",
      "outputs": [],
      "stateMutability": "nonpayable",
      "type": "function"
    },
    {
      "inputs": [
        {
          "internalType": "bytes32",
          "name": "burnId",
          "type": "bytes32"
        },
        {
          "internalType": "bytes32",
          "name": "receipt",
          "type": "bytes32"
        }
      ],
      "name": "confirmBurn",
      "outputs": [],
      "stateMutability": "nonpayable",
      "type": "function"
    },
    {
      "inputs": [
        {
          "internalType": "bytes32",
          "name": "",
          "type": "bytes32"
        }
      ],
      "name": "confirmedBurnReceipts",
      "outputs": [
        {
          "internalType": "bytes32",
          "name": "",
          "type": "bytes32"
        }
      ],
      "stateMutability": "view",
      "type": "function"
    },
    {
      "inputs": [
        {
          "internalType": "bytes32",
          "name": "role",
          "type": "bytes32"
        }
      ],
      "name": "getRoleAdmin",
      "outputs": [
        {
          "internalType": "bytes32",
          "name": "",
          "type": "bytes32"
        }
      ],
      "stateMutability": "view",
      "type": "function"
    },
    {
      "inputs": [
        {
          "internalType": "bytes32",
          "name": "role",
          "type": "bytes32"
        },
        {
          "internalType": "address",
          "name": "account",
          "type": "address"
        }
      ],
      "name": "grantRole",
      "outputs": [],
      "stateMutability": "nonpayable",
      "type": "function"
    },
    {
      "inputs": [
        {
          "internalType": "bytes32",
          "name": "role",
          "type": "bytes32"
        },
        {
          "internalType": "address",
          "name": "account",
          "type": "address"
        }
      ],
      "name": "hasRole",
      "outputs": [
        {
          "internalType": "bool",
          "name": "",
          "type": "bool"
        }
      ],
      "stateMutability": "view",
      "type": "function"
    },
    {
      "inputs": [
        {
          "internalType": "contract IOnestableBridgedToken",
          "name": "_bridgedToken",
          "type": "address"
        },
        {
          "internalType": "uint256[]",
          "name": "_srcChainIds",
          "type": "uint256[]"
        },
        {
          "internalType": "address[]",
          "name": "_srcTokenAddresses",
          "type": "address[]"
        },
        {
          "internalType": "uint256",
          "name": "_maxConfirmationPeriod",
          "type": "uint256"
        },
        {
          "internalType": "address",
          "name": "_defaultAdmin",
          "type": "address"
        },
        {
          "internalType": "address",
          "name": "_pauser",
          "type": "address"
        },
        {
          "internalType": "address",
          "name": "_upgrader",
          "type": "address"
        }
      ],
      "name": "initialize",
      "outputs": [],
      "stateMutability": "nonpayable",
      "type": "function"
    },
    {
      "inputs": [
        {
          "internalType": "bytes32",
          "name": "",
          "type": "bytes32"
        }
      ],
      "name": "isBurnReverted",
      "outputs": [
        {
          "internalType": "bool",
          "name": "",
          "type": "bool"
        }
      ],
      "stateMutability": "view",
      "type": "function"
    },
    {
      "inputs": [],
      "name": "maxConfirmationPeriod",
      "outputs": [
        {
          "internalType": "uint256",
          "name": "",
          "type": "uint256"
        }
      ],
      "stateMutability": "view",
      "type": "function"
    },
    {
      "inputs": [
        {
          "internalType": "bytes32",
          "name": "lockId",
          "type": "bytes32"
        },
        {
          "internalType": "uint256",
          "name": "srcChainId",
          "type": "uint256"
        },
        {
          "internalType": "address",
          "name": "srcTokenAddress",
          "type": "address"
        },
        {
          "internalType": "address",
          "name": "sender",
          "type": "address"
        },
        {
          "internalType": "address",
          "name": "recipient",
          "type": "address"
        },
        {
          "internalType": "uint256",
          "name": "amount",
          "type": "uint256"
        },
        {
          "internalType": "uint256",
          "name": "maxConfirmationTimestamp",
          "type": "uint256"
        }
      ],
      "name": "mintTokens",
      "outputs": [],
      "stateMutability": "nonpayable",
      "type": "function"
    },
    {
      "inputs": [],
      "name": "pause",
      "outputs": [],
      "stateMutability": "nonpayable",
      "type": "function"
    },
    {
      "inputs": [],
      "name": "paused",
      "outputs": [
        {
          "internalType": "bool",
          "name": "",
          "type": "bool"
        }
      ],
      "stateMutability": "view",
      "type": "function"
    },
    {
      "inputs": [
        {
          "internalType": "bytes32",
          "name": "",
          "type": "bytes32"
        }
      ],
      "name": "processedMints",
      "outputs": [
        {
          "internalType": "bool",
          "name": "",
          "type": "bool"
        }
      ],
      "stateMutability": "view",
      "type": "function"
    },
    {
      "inputs": [],
      "name": "proxiableUUID",
      "outputs": [
        {
          "internalType": "bytes32",
          "name": "",
          "type": "bytes32"
        }
      ],
      "stateMutability": "view",
      "type": "function"
    },
    {
      "inputs": [
        {
          "internalType": "bytes32",
          "name": "role",
          "type": "bytes32"
        },
        {
          "internalType": "address",
          "name": "callerConfirmation",
          "type": "address"
        }
      ],
      "name": "renounceRole",
      "outputs": [],
      "stateMutability": "nonpayable",
      "type": "function"
    },
    {
      "inputs": [
        {
          "internalType": "contract IERC20",
          "name": "tokenContract",
          "type": "address"
        },
        {
          "internalType": "address",
          "name": "to",
          "type": "address"
        },
        {
          "internalType": "uint256",
          "name": "amount",
          "type": "uint256"
        }
      ],
      "name": "rescueERC20",
      "outputs": [],
      "stateMutability": "nonpayable",
      "type": "function"
    },
    {
      "inputs": [
        {
          "internalType": "bytes32",
          "name": "burnId",
          "type": "bytes32"
        }
      ],
      "name": "revertBurnedTokens",
      "outputs": [],
      "stateMutability": "nonpayable",
      "type": "function"
    },
    {
      "inputs": [
        {
          "internalType": "bytes32",
          "name": "role",
          "type": "bytes32"
        },
        {
          "internalType": "address",
          "name": "account",
          "type": "address"
        }
      ],
      "name": "revokeRole",
      "outputs": [],
      "stateMutability": "nonpayable",
      "type": "function"
    },
    {
      "inputs": [
        {
          "internalType": "uint256",
          "name": "chainId",
          "type": "uint256"
        },
        {
          "internalType": "address",
          "name": "tokenAddress",
          "type": "address"
        }
      ],
      "name": "setAllowedSourceTokens",
      "outputs": [],
      "stateMutability": "nonpayable",
      "type": "function"
    },
    {
      "inputs": [
        {
          "internalType": "uint256",
          "name": "_maxPeriod",
          "type": "uint256"
        }
      ],
      "name": "setMaxConfirmationPeriod",
      "outputs": [],
      "stateMutability": "nonpayable",
      "type": "function"
    },
    {
      "inputs": [
        {
          "internalType": "address",
          "name": "adapter",
          "type": "address"
        },
        {
          "internalType": "bool",
          "name": "enabled",
          "type": "bool"
        }
      ],
      "name": "setMessageAdapter",
      "outputs": [],
      "stateMutability": "nonpayable",
      "type": "function"
    },
    {
      "inputs": [
        {
          "internalType": "bytes4",
          "name": "interfaceId",
          "type": "bytes4"
        }
      ],
      "name": "supportsInterface",
      "outputs": [
        {
          "internalType": "bool",
          "name": "",
          "type": "bool"
        }
      ],
      "stateMutability": "view",
      "type": "function"
    },
    {
      "inputs": [],
      "name": "totalMintedSupply",
      "outputs": [
        {
          "internalType": "uint256",
          "name": "",
          "type": "uint256"
        }
      ],
      "stateMutability": "view",
      "type": "function"
    },
    {
      "inputs": [],
      "name": "unpause",
      "outputs": [],
      "stateMutability": "nonpayable",
      "type": "function"
    },
    {
      "inputs": [
        {
          "internalType": "address",
          "name": "newImplementation",
          "type": "address"
        },
        {
          "internalType": "bytes",
          "name": "data",
          "type": "bytes"
        }
      ],
      "name": "upgradeToAndCall",
      "outputs": [],
      "stateMutability": "payable",
      "type": "function"
    }
  ],
  "bytecode": "0x60a06040523060805234801561001457600080fd5b5061001d610022565b6100d4565b7ff0c57e16840df040f15088dc2f81fe391c3923bec73e23a9662efc9c229c6a00805468010000000000000000900460ff16156100725760405163f92ee8a960e01b815260040160405180910390fd5b80546001600160401b03908116146100d15780546001600160401b0319166001600160401b0390811782556040519081527fc7f505b2f371ae2175ee4913f4499e1f2633a7b5936321eed1cdaeb6115181d29060200160405180910390a15b50565b6080516127936100fd60003960008181611b0401528181611b2d0152611c9001526127936000f3fe6080604052600436106101ee5760003560e01c806391d148541161010d578063d547741f116100a0578063e63ab1e91161006f578063e63ab1e9146105cb578063ee383937146105ed578063f1cf5daa1461060d578063f412ddc31461062d578063f72c0d8b146106dc57600080fd5b8063d547741f1461052e578063da337f841461054e578063df13ebda1461057e578063e267b711146105ab57600080fd5b8063ad3cb1cc116100dc578063ad3cb1cc1461047e578063b07d2213146104bc578063b2118a8d146104de578063b2c0efe0146104fe57600080fd5b806391d14854146103db578063a217fddf146103fb578063a484a3d714610410578063a97a42121461045e57600080fd5b80633f4ba83a116101855780635c975abb116101545780635c975abb14610375578063601e26031461039a5780638001a11a146103b05780638456cb59146103c657600080fd5b80633f4ba83a146103185780634f1ef2861461032d57806352d1902d146103405780635a16f2781461035557600080fd5b806336568abe116101c157806336568abe1461029857806338f04f3e146102b85780633bbbc9d2146102d85780633f3ca004146102f857600080fd5b806301ffc9a7146101f3578063248a9ca31461022857806329df1d77146102565780632f2ff15d14610278575b600080fd5b3480156101ff57600080fd5b5061021361020e366004612135565b610710565b60405190151581526020015b60405180910390f35b34801561023457600080fd5b5061024861024336600461215f565b610747565b60405190815260200161021f565b34801561026257600080fd5b5061027661027136600461215f565b610769565b005b34801561028457600080fd5b5061027661029336600461219d565b610a19565b3480156102a457600080fd5b506102766102b336600461219d565b610a3b565b3480156102c457600080fd5b506102766102d33660046121cd565b610a73565b3480156102e457600080fd5b506102766102f336600461219d565b610d9a565b34801561030457600080fd5b5061027661031336600461223e565b610e44565b34801561032457600080fd5b506102766111d6565b61027661033b3660046122bd565b6111f6565b34801561034c57600080fd5b50610248611215565b34801561036157600080fd5b50610276610370366004612404565b611232565b34801561038157600080fd5b5060008051602061271e8339815191525460ff16610213565b3480156103a657600080fd5b5061024860025481565b3480156103bc57600080fd5b5061024860035481565b3480156103d257600080fd5b5061027661159e565b3480156103e757600080fd5b506102136103f636600461219d565b6115be565b34801561040757600080fd5b50610248600081565b34801561041c57600080fd5b5061044661042b36600461215f565b6008602052600090815260409020546001600160a01b031681565b6040516001600160a01b03909116815260200161021f565b34801561046a57600080fd5b50610276610479366004612522565b6115f6565b34801561048a57600080fd5b506104af604051806040016040528060058152602001640352e302e360dc1b81525081565b60405161021f9190612574565b3480156104c857600080fd5b5061024860008051602061269e83398151915281565b3480156104ea57600080fd5b506102766104f93660046125a7565b611678565b34801561050a57600080fd5b5061021361051936600461215f565b60046020526000908152604090205460ff1681565b34801561053a57600080fd5b5061027661054936600461219d565b6116f4565b34801561055a57600080fd5b5061021361056936600461215f565b60076020526000908152604090205460ff1681565b34801561058a57600080fd5b5061024861059936600461215f565b60066020526000908152604090205481565b3480156105b757600080fd5b506102766105c636600461215f565b611710565b3480156105d757600080fd5b506102486000805160206126de83398151915281565b3480156105f957600080fd5b50600154610446906001600160a01b031681565b34801561061957600080fd5b506102766106283660046125d7565b611721565b34801561063957600080fd5b5061069561064836600461215f565b600560208190526000918252604090912080546001820154600283015460038401546004850154958501546006909501546001600160a01b03948516969385169592949193909116919087565b604080516001600160a01b03988916815296881660208801528601949094526060850192909252909316608083015260a082019290925260c081019190915260e00161021f565b3480156106e857600080fd5b506102487f189ab7a9244df0848122154315af71fe140f3db0fe014031783b0946b8c9d2e381565b60006001600160e01b03198216637965db0b60e01b148061074157506301ffc9a760e01b6001600160e01b03198316145b92915050565b60009081526000805160206126fe833981519152602052604090206001015490565b610771611888565b6107796118c0565b60008051602061269e833981519152610791816118f3565b600082815260056020818152604092839020835160e08101855281546001600160a01b03908116808352600184015482169483019490945260028301549582019590955260038201546060820152600482015490941660808501529182015460a084015260069091015460c083015261081d57604051631bf4348160e31b815260040160405180910390fd5b8060a001514210156108565760a08101516040516326386c7360e21b815242600482015260248101919091526044015b60405180910390fd5b6000838152600660205260409020541561088657604051635854482960e01b81526004810184905260240161084d565b60008381526007602052604090205460ff16156108b657604051632bf773b360e11b815260040160405180910390fd5b600083815260076020526040808220805460ff1916600117905582015160028054919290916108e690849061260f565b9091555050600154815160408084015190516340c10f1960e01b81526000936001600160a01b0316926340c10f1992610935926004016001600160a01b03929092168252602082015260400190565b6020604051808303816000875af1158015610954573d6000803e3d6000fd5b505050506040513d601f19601f820116820180604052508101906109789190612622565b9050806109b057815160408084015190516351b56ffb60e11b81526001600160a01b039092166004830152602482015260440161084d565b81600001516001600160a01b0316847fbffc17b7a726d22c05d31ec64fb82f8e8f50ed0eb01c512d5d8280fad902179784604001516040516109f491815260200190565b60405180910390a3505050610a16600160008051602061273e83398151915255565b50565b610a2282610747565b610a2b816118f3565b610a358383611911565b50505050565b6001600160a01b0381163314610a645760405163334bd91960e11b815260040160405180910390fd5b610a6e82826119b6565b505050565b610a7b6118c0565b610a83611888565b60008051602061269e833981519152610a9b816118f3565b86600003610ad9576040516305c57e8360e01b815260206004820152600a6024820152691cdc98d0da185a5b925960b21b604482015260640161084d565b87610af757604051631bf4348160e31b815260040160405180910390fd5b6001600160a01b038416610b3a5760405163eac0d38960e01b81526020600482015260096024820152681c9958da5c1a595b9d60ba1b604482015260640161084d565b82600003610b5b5760405163162908e360e11b815260040160405180910390fd5b42821015610b855760405163309c39e560e11b81524260048201526024810183905260440161084d565b60008881526004602052604090205460ff1615610bb557604051632bf773b360e11b815260040160405180910390fd5b6000878152600860205260409020546001600160a01b031680610bee57604051633b58057560e11b81526004810189905260240161084d565b806001600160a01b0316876001600160a01b031614610c3357604051639a2f96bd60e01b81526001600160a01b0380831660048301528816602482015260440161084d565b6000898152600460205260408120805460ff1916600117905560028054869290610c5e90849061260f565b90915550506001546040516340c10f1960e01b81526001600160a01b0387811660048301526024820187905260009216906340c10f19906044016020604051808303816000875af1158015610cb7573d6000803e3d6000fd5b505050506040513d601f19601f82011682018060405250810190610cdb9190612622565b905080610d0d576040516351b56ffb60e11b81526001600160a01b03871660048201526024810186905260440161084d565b856001600160a01b0316876001600160a01b03168b7f2a00bc9f610a99adaf5b0ab0062a76043da34d7212405a83d76911da5833dbbf888d8d604051610d6f9392919092835260208301919091526001600160a01b0316604082015260600190565b60405180910390a4505050610d91600160008051602061273e83398151915255565b50505050505050565b6000610da5816118f3565b468303610ddf576040516305c57e8360e01b815260206004820152600760248201526618da185a5b925960ca1b604482015260640161084d565b60008381526008602090815260409182902080546001600160a01b0319166001600160a01b038616908117909155915191825284917f551ad9e4e71ef265602225ac2e1c9c89f8f4d33bedb9cd8468fb5870c83f5e89910160405180910390a2505050565b610e4c6118c0565b610e54611888565b80600003610e755760405163162908e360e11b815260040160405180910390fd5b6001600160a01b038216610eb85760405163eac0d38960e01b81526020600482015260096024820152681c9958da5c1a595b9d60ba1b604482015260640161084d565b806002541015610ee957600254604051630cccb0c760e21b815260048101919091526024810182905260440161084d565b6000838152600860205260409020546001600160a01b031680610f22576040516311da24df60e11b81526004810185905260240161084d565b600154610f3a906001600160a01b0316333085611a32565b600154604051630852cd8d60e31b8152600481018490526001600160a01b03909116906342966c6890602401600060405180830381600087803b158015610f8057600080fd5b505af1158015610f94573d6000803e3d6000fd5b505050506001600080828254610faa919061260f565b925050819055508160026000828254610fc3919061263f565b9250508190555060006040518060e00160405280336001600160a01b03168152602001856001600160a01b03168152602001848152602001868152602001836001600160a01b031681526020016003544261101e919061260f565b8152602001600054815250905060006110be828051602080830151604080850151606080870151608088015160a089015160c08a0151955198841b6bffffffffffffffffffffffff19908116988a019890985295831b87166034890152604888019390935260688701521b9092166088840152609c83015260bc82015260009060dc01604051602081830303815290604052805190602001209050919050565b600081815260056020818152604092839020865181546001600160a01b03199081166001600160a01b039283161783559288015160018084018054861692841692909217909155948801516002830155606088015160038084019190915560808901516004840180549095169083161790935560a08801519382019390935560c08701516006909101559154915492935087811692339285927f9666926aeec77247f0bfe007ccc456fffdfe20fc8738c7a6582bb953ac5fc2c2928a9290911690611189904261260f565b604080519384526001600160a01b039283166020850152830152606082018c90528816608082015260a00160405180910390a4505050610a6e600160008051602061273e83398151915255565b6000805160206126de8339815191526111ee816118f3565b610a16611a99565b6111fe611af9565b61120782611b9e565b6112118282611bc8565b5050565b600061121f611c85565b506000805160206126be83398151915290565b7ff0c57e16840df040f15088dc2f81fe391c3923bec73e23a9662efc9c229c6a008054600160401b810460ff16159067ffffffffffffffff166000811580156112785750825b905060008267ffffffffffffffff1660011480156112955750303b155b9050811580156112a3575080155b156112c15760405163f92ee8a960e01b815260040160405180910390fd5b845467ffffffffffffffff1916600117855583156112eb57845460ff60401b1916600160401b1785555b6001600160a01b038c166113325760405163eac0d38960e01b815260206004820152600d60248201526c2fb13934b233b2b22a37b5b2b760991b604482015260640161084d565b6001600160a01b0388166113795760405163eac0d38960e01b815260206004820152600d60248201526c2fb232b330bab63a20b236b4b760991b604482015260640161084d565b6001600160a01b0387166113ba5760405163eac0d38960e01b81526020600482015260076024820152662fb830bab9b2b960c91b604482015260640161084d565b6001600160a01b0386166113fd5760405163eac0d38960e01b81526020600482015260096024820152682fbab833b930b232b960b91b604482015260640161084d565b89518b5114611469576040805163616c411360e01b81526004810191909152600c60448201526b5f737263436861696e49647360a01b60648201526080602482015260126084820152715f737263546f6b656e41646472657373657360701b60a482015260c40161084d565b611471611cce565b611479611cde565b611481611cee565b611489611cee565b611494600089611911565b506114ad6000805160206126de83398151915288611911565b506114d87f189ab7a9244df0848122154315af71fe140f3db0fe014031783b0946b8c9d2e387611911565b50600180546001600160a01b0319166001600160a01b038e16179055600389905560005b8b51811015611549576115418c828151811061151a5761151a612652565b60200260200101518c838151811061153457611534612652565b6020026020010151610d9a565b6001016114fc565b50831561159057845460ff60401b19168555604051600181527fc7f505b2f371ae2175ee4913f4499e1f2633a7b5936321eed1cdaeb6115181d29060200160405180910390a15b505050505050505050505050565b6000805160206126de8339815191526115b6816118f3565b610a16611cf6565b60009182526000805160206126fe833981519152602090815260408084206001600160a01b0393909316845291905290205460ff1690565b6000611601816118f3565b6001600160a01b0383166116425760405163eac0d38960e01b815260206004820152600760248201526630b230b83a32b960c91b604482015260640161084d565b811561166057610a3560008051602061269e83398151915284611911565b610a3560008051602061269e833981519152846119b6565b6000611683816118f3565b6001600160a01b0383166116bf5760405163eac0d38960e01b8152602060048201526002602482015261746f60f01b604482015260640161084d565b816000036116e05760405163162908e360e11b815260040160405180910390fd5b610a356001600160a01b0385168484611d3f565b6116fd82610747565b611706816118f3565b610a3583836119b6565b600061171b816118f3565b50600355565b611729611888565b6117316118c0565b60008051602061269e833981519152611749816118f3565b600083815260056020818152604092839020835160e08101855281546001600160a01b03908116808352600184015482169483019490945260028301549582019590955260038201546060820152600482015490941660808501529182015460a084015260069091015460c08301526117d557604051631bf4348160e31b815260040160405180910390fd5b60008481526007602052604090205460ff1615611807576040516291c78160e21b81526004810185905260240161084d565b6000848152600660205260409020541561183457604051632bf773b360e11b815260040160405180910390fd5b60008481526006602052604080822085905551849186917ff5256adb112226e7da3aa86c1f5e8ffe850768c550b167eb69f3910ec7c5f4039190a35050611211600160008051602061273e83398151915255565b60008051602061273e8339815191528054600119016118ba57604051633ee5aeb560e01b815260040160405180910390fd5b60029055565b60008051602061271e8339815191525460ff16156118f15760405163d93c066560e01b815260040160405180910390fd5b565b610a168133611d70565b600160008051602061273e83398151915255565b60006000805160206126fe83398151915261192c84846115be565b6119ac576000848152602082815260408083206001600160a01b03871684529091529020805460ff191660011790556119623390565b6001600160a01b0316836001600160a01b0316857f2f8788117e7eff1d82e926ec794901d17c78024a50270940304540a733656f0d60405160405180910390a46001915050610741565b6000915050610741565b60006000805160206126fe8339815191526119d184846115be565b156119ac576000848152602082815260408083206001600160a01b0387168085529252808320805460ff1916905551339287917ff6391f5c32d9c69d2a47ea670b442974b53935d1edc7fd64eb21e047a839171b9190a46001915050610741565b6040516001600160a01b038481166024830152838116604483015260648201839052610a359186918216906323b872dd906084015b604051602081830303815290604052915060e01b6020820180516001600160e01b038381831617835250505050611da9565b611aa1611e0c565b60008051602061271e833981519152805460ff191681557f5db9ee0a495bf2e6ff9c91a7834c1ba4fdd244a5e8aa4e537bd38aeae4b073aa335b6040516001600160a01b03909116815260200160405180910390a150565b306001600160a01b037f0000000000000000000000000000000000000000000000000000000000000000161480611b8057507f00000000000000000000000000000000000000000000000000000000000000006001600160a01b0316611b746000805160206126be833981519152546001600160a01b031690565b6001600160a01b031614155b156118f15760405163703e46dd60e11b815260040160405180910390fd5b7f189ab7a9244df0848122154315af71fe140f3db0fe014031783b0946b8c9d2e3611211816118f3565b816001600160a01b03166352d1902d6040518163ffffffff1660e01b8152600401602060405180830381865afa925050508015611c22575060408051601f3d908101601f19168201909252611c1f91810190612668565b60015b611c4a57604051634c9c8ce360e01b81526001600160a01b038316600482015260240161084d565b6000805160206126be8339815191528114611c7b57604051632a87526960e21b81526004810182905260240161084d565b610a6e8383611e3c565b306001600160a01b037f000000000000000000000000000000000000000000000000000000000000000016146118f15760405163703e46dd60e11b815260040160405180910390fd5b611cd6611e92565b6118f1611edb565b611ce6611e92565b6118f1611efc565b6118f1611e92565b611cfe6118c0565b60008051602061271e833981519152805460ff191660011781557f62e78cea01bee320cd4e420270b5ea74000d11b0c9f74754ebdbfc544b05a25833611adb565b6040516001600160a01b03838116602483015260448201839052610a6e91859182169063a9059cbb90606401611a67565b611d7a82826115be565b6112115760405163e2517d3f60e01b81526001600160a01b03821660048201526024810183905260440161084d565b6000611dbe6001600160a01b03841683611f04565b90508051600014158015611de3575080806020019051810190611de19190612622565b155b15610a6e57604051635274afe760e01b81526001600160a01b038416600482015260240161084d565b60008051602061271e8339815191525460ff166118f157604051638dfc202b60e01b815260040160405180910390fd5b611e4582611f19565b6040516001600160a01b038316907fbc7cd75a20ee27fd9adebab32041f755214dbc6bffa90cc0225b39da2e5c2d3b90600090a2805115611e8a57610a6e8282611f7e565b611211611ff4565b7ff0c57e16840df040f15088dc2f81fe391c3923bec73e23a9662efc9c229c6a0054600160401b900460ff166118f157604051631afcd79f60e31b815260040160405180910390fd5b611ee3611e92565b60008051602061271e833981519152805460ff19169055565b6118fd611e92565b6060611f1283836000612013565b9392505050565b806001600160a01b03163b600003611f4f57604051634c9c8ce360e01b81526001600160a01b038216600482015260240161084d565b6000805160206126be83398151915280546001600160a01b0319166001600160a01b0392909216919091179055565b6060600080846001600160a01b031684604051611f9b9190612681565b600060405180830381855af49150503d8060008114611fd6576040519150601f19603f3d011682016040523d82523d6000602084013e611fdb565b606091505b5091509150611feb8583836120b0565b95945050505050565b34156118f15760405163b398979f60e01b815260040160405180910390fd5b6060814710156120385760405163cd78605960e01b815230600482015260240161084d565b600080856001600160a01b031684866040516120549190612681565b60006040518083038185875af1925050503d8060008114612091576040519150601f19603f3d011682016040523d82523d6000602084013e612096565b606091505b50915091506120a68683836120b0565b9695505050505050565b6060826120c5576120c08261210c565b611f12565b81511580156120dc57506001600160a01b0384163b155b1561210557604051639996b31560e01b81526001600160a01b038516600482015260240161084d565b5080611f12565b80511561211c5780518082602001fd5b604051630a12f52160e11b815260040160405180910390fd5b60006020828403121561214757600080fd5b81356001600160e01b031981168114611f1257600080fd5b60006020828403121561217157600080fd5b5035919050565b6001600160a01b0381168114610a1657600080fd5b803561219881612178565b919050565b600080604083850312156121b057600080fd5b8235915060208301356121c281612178565b809150509250929050565b600080600080600080600060e0888a0312156121e857600080fd5b8735965060208801359550604088013561220181612178565b9450606088013561221181612178565b9350608088013561222181612178565b9699959850939692959460a0840135945060c09093013592915050565b60008060006060848603121561225357600080fd5b83359250602084013561226581612178565b929592945050506040919091013590565b634e487b7160e01b600052604160045260246000fd5b604051601f8201601f1916810167ffffffffffffffff811182821017156122b5576122b5612276565b604052919050565b600080604083850312156122d057600080fd5b82356122db81612178565b9150602083013567ffffffffffffffff8111156122f757600080fd5b8301601f8101851361230857600080fd5b803567ffffffffffffffff81111561232257612322612276565b612335601f8201601f191660200161228c565b81815286602083850101111561234a57600080fd5b816020840160208301376000602083830101528093505050509250929050565b600067ffffffffffffffff82111561238457612384612276565b5060051b60200190565b600082601f83011261239f57600080fd5b81356123b26123ad8261236a565b61228c565b8082825260208201915060208360051b8601019250858311156123d457600080fd5b602085015b838110156123fa5780356123ec81612178565b8352602092830192016123d9565b5095945050505050565b600080600080600080600060e0888a03121561241f57600080fd5b873561242a81612178565b9650602088013567ffffffffffffffff81111561244657600080fd5b8801601f81018a1361245757600080fd5b80356124656123ad8261236a565b8082825260208201915060208360051b85010192508c83111561248757600080fd5b6020840193505b828410156124a957833582526020938401939091019061248e565b9850505050604088013567ffffffffffffffff8111156124c857600080fd5b6124d48a828b0161238e565b955050606088013593506124ea6080890161218d565b92506124f860a0890161218d565b915061250660c0890161218d565b905092959891949750929550565b8015158114610a1657600080fd5b6000806040838503121561253557600080fd5b823561254081612178565b915060208301356121c281612514565b60005b8381101561256b578181015183820152602001612553565b50506000910152565b6020815260008251806020840152612593816040850160208701612550565b601f01601f19169190910160400192915050565b6000806000606084860312156125bc57600080fd5b83356125c781612178565b9250602084013561226581612178565b600080604083850312156125ea57600080fd5b50508035926020909101359150565b634e487b7160e01b600052601160045260246000fd5b80820180821115610741576107416125f9565b60006020828403121561263457600080fd5b8151611f1281612514565b81810381811115610741576107416125f9565b634e487b7160e01b600052603260045260246000fd5b60006020828403121561267a57600080fd5b5051919050565b60008251612693818460208701612550565b919091019291505056fea1e2c127643b05ddd4b2a9035efb97eaf74237c1e00561fe90b272f75f614f2a360894a13ba1a3210667c828492db98dca3e2076cc3735a920a3ca505d382bbc65d7a28e3265b37a6474929f336521b332c1681b933f6cb9f3376673440d862a02dd7bc7dec4dceedda775e58dd541e08a116c6c53815c0bd028192f7b626800cd5ed15c6e187e77e9aee88184c21f4f2182ab5827cb3b7e07fbedcd63f033009b779b17422d0df92223018b32b4d1fa46e071723d6817e2486d003becc55f00a2646970667358221220007445bd611e8030990478d8368a00c9c3dceebceaab68312c6712c0a7c096ef64736f6c634300081b0033",
  "linkReferences": {},
  "deployedLinkReferences": {}
}