{
  "_format": "hh-sol-artifact-1",
  "contractName": "OnestableDestinationBridge",
  "sourceName": "contracts/dest/OnestableDestinationBridge.sol",
  "abi": [
    {
      "inputs": [],
      "stateMutability": "nonpayable",
      "type": "constructor"
    },
    {
      "inputs": [],
      "name": "AccessControlBadConfirmation",
      "type": "error"
    },
    {
      "inputs": [
        {
          "internalType": "address",
          "name": "account",
          "type": "address"
        },
        {
          "internalType": "bytes32",
          "name": "neededRole",
          "type": "bytes32"
        }
      ],
      "name": "AccessControlUnauthorizedAccount",
      "type": "error"
    },
    {
      "inputs": [
        {
          "internalType": "address",
          "name": "target",
          "type": "address"
        }
      ],
      "name": "AddressEmptyCode",
      "type": "error"
    },
    {
      "inputs": [
        {
          "internalType": "address",
          "name": "account",
          "type": "address"
        }
      ],
      "name": "AddressInsufficientBalance",
      "type": "error"
    },
    {
      "inputs": [],
      "name": "AlreadyProcessed",
      "type": "error"
    },
    {
      "inputs": [
        {
          "internalType": "string",
          "name": "field1",
          "type": "string"
        },
        {
          "internalType": "string",
          "name": "field2",
          "type": "string"
        }
      ],
      "name": "ArrayLengthMismatch",
      "type": "error"
    },
    {
      "inputs": [
        {
          "internalType": "uint256",
          "name": "chainId",
          "type": "uint256"
        }
      ],
      "name": "BurnForDestinationChainNotAllowed",
      "type": "error"
    },
    {
      "inputs": [
        {
          "internalType": "bytes32",
          "name": "burnId",
          "type": "bytes32"
        }
      ],
      "name": "ConfirmBurnNotAllowed",
      "type": "error"
    },
    {
      "inputs": [
        {
          "internalType": "uint256",
          "name": "allowed",
          "type": "uint256"
        },
        {
          "internalType": "uint256",
          "name": "provided",
          "type": "uint256"
        }
      ],
      "name": "DestinationChainNotAllowed",
      "type": "error"
    },
    {
      "inputs": [
        {
          "internalType": "address",
          "name": "allowed",
          "type": "address"
        },
        {
          "internalType": "address",
          "name": "provided",
          "type": "address"
        }
      ],
      "name": "DestinationTokenNotAllowed",
      "type": "error"
    },
    {
      "inputs": [
        {
          "internalType": "address",
          "name": "implementation",
          "type": "address"
        }
      ],
      "name": "ERC1967InvalidImplementation",
      "type": "error"
    },
    {
      "inputs": [],
      "name": "ERC1967NonPayable",
      "type": "error"
    },
    {
      "inputs": [],
      "name": "EnforcedPause",
      "type": "error"
    },
    {
      "inputs": [],
      "name": "ExpectedPause",
      "type": "error"
    },
    {
      "inputs": [],
      "name": "FailedInnerCall",
      "type": "error"
    },
    {
      "inputs": [
        {
          "internalType": "uint256",
          "name": "available",
          "type": "uint256"
        },
        {
          "internalType": "uint256",
          "name": "required",
          "type": "uint256"
        }
      ],
      "name": "InsufficientMintedSupply",
      "type": "error"
    },
    {
      "inputs": [],
      "name": "InvalidAmount",
      "type": "error"
    },
    {
      "inputs": [
        {
          "internalType": "string",
          "name": "field",
          "type": "string"
        }
      ],
      "name": "InvalidChainId",
      "type": "error"
    },
    {
      "inputs": [],
      "name": "InvalidId",
      "type": "error"
    },
    {
      "inputs": [],
      "name": "InvalidInitialization",
      "type": "error"
    },
    {
      "inputs": [
        {
          "internalType": "uint256",
          "name": "chainId",
          "type": "uint256"
        }
      ],
      "name": "MintNotAllowedFromSource",
      "type": "error"
    },
    {
      "inputs": [
        {
          "internalType": "address",
          "name": "allowedTokenAddress",
          "type": "address"
        },
        {
          "internalType": "address",
          "name": "srcTokenAddress",
          "type": "address"
        }
      ],
      "name": "MintNotAllowedFromSourceToken",
      "type": "error"
    },
    {
      "inputs": [
        {
          "internalType": "address",
          "name": "recipient",
          "type": "address"
        },
        {
          "internalType": "uint256",
          "name": "amount",
          "type": "uint256"
        }
      ],
      "name": "MintTokensFailed",
      "type": "error"
    },
    {
      "inputs": [],
      "name": "NotInitializing",
      "type": "error"
    },
    {
      "inputs": [],
      "name": "ReentrancyGuardReentrantCall",
      "type": "error"
    },
    {
      "inputs": [
        {
          "internalType": "uint256",
          "name": "current",
          "type": "uint256"
        },
        {
          "internalType": "uint256",
          "name": "maxConfirmationTimestamp",
          "type": "uint256"
        }
      ],
      "name": "RequestTimeout",
      "type": "error"
    },
    {
      "inputs": [
        {
          "internalType": "uint256",
          "name": "current",
          "type": "uint256"
        },
        {
          "internalType": "uint256",
          "name": "maxConfirmationTimestamp",
          "type": "uint256"
        }
      ],
      "name": "RevertBurnedTokensTooEarly",
      "type": "error"
    },
    {
      "inputs": [
        {
          "internalType": "bytes32",
          "name": "burnId",
          "type": "bytes32"
        }
      ],
      "name": "RevertNotAllowed",
      "type": "error"
    },
    {
      "inputs": [
        {
          "internalType": "address",
          "name": "token",
          "type": "address"
        }
      ],
      "name": "SafeERC20FailedOperation",
      "type": "error"
    },
    {
      "inputs": [],
      "name": "UUPSUnauthorizedCallContext",
      "type": "error"
    },
    {
      "inputs": [
        {
          "internalType": "bytes32",
          "name": "slot",
          "type": "bytes32"
        }
      ],
      "name": "UUPSUnsupportedProxiableUUID",
      "type": "error"
    },
    {
      "inputs": [
        {
          "internalType": "string",
          "name": "field",
          "type": "string"
        }
      ],
      "name": "ZeroAddress",
      "type": "error"
    },
    {
      "anonymous": false,
      "inputs": [
        {
          "indexed": true,
          "internalType": "uint256",
          "name": "chainId",
          "type": "uint256"
        },
        {
          "indexed": false,
          "internalType": "address",
          "name": "tokenAddress",
          "type": "address"
        }
      ],
      "name": "AllowedSourceTokenUpdated",
      "type": "event"
    },
    {
      "anonymous": false,
      "inputs": [
        {
          "indexed": true,
          "internalType": "bytes32",
          "name": "burnId",
          "type": "bytes32"
        },
        {
          "indexed": true,
          "internalType": "bytes32",
          "name": "receipt",
          "type": "bytes32"
        }
      ],
      "name": "BurnConfirmed",
      "type": "event"
    },
    {
      "anonymous": false,
      "inputs": [
        {
          "indexed": false,
          "internalType": "uint64",
          "name": "version",
          "type": "uint64"
        }
      ],
      "name": "Initialized",
      "type": "event"
    },
    {
      "anonymous": false,
      "inputs": [
        {
          "indexed": false,
          "internalType": "address",
          "name": "account",
          "type": "address"
        }
      ],
      "name": "Paused",
      "type": "event"
    },
    {
      "anonymous": false,
      "inputs": [
        {
          "indexed": true,
          "internalType": "bytes32",
          "name": "burnId",
          "type": "bytes32"
        },
        {
          "indexed": true,
          "internalType": "address",
          "name": "recipient",
          "type": "address"
        },
        {
          "indexed": false,
          "internalType": "uint256",
          "name": "amount",
          "type": "uint256"
        }
      ],
      "name": "RevertedBurnedTokens",
      "type": "event"
    },
    {
      "anonymous": false,
      "inputs": [
        {
          "indexed": true,
          "internalType": "bytes32",
          "name": "role",
          "type": "bytes32"
        },
        {
          "indexed": true,
          "internalType": "bytes32",
          "name": "previousAdminRole",
          "type": "bytes32"
        },
        {
          "indexed": true,
          "internalType": "bytes32",
          "name": "newAdminRole",
          "type": "bytes32"
        }
      ],
      "name": "RoleAdminChanged",
      "type": "event"
    },
    {
      "anonymous": false,
      "inputs": [
        {
          "indexed": true,
          "internalType": "bytes32",
          "name": "role",
          "type": "bytes32"
        },
        {
          "indexed": true,
          "internalType": "address",
          "name": "account",
          "type": "address"
        },
        {
          "indexed": true,
          "internalType": "address",
          "name": "sender",
          "type": "address"
        }
      ],
      "name": "RoleGranted",
      "type": "event"
    },
    {
      "anonymous": false,
      "inputs": [
        {
          "indexed": true,
          "internalType": "bytes32",
          "name": "role",
          "type": "bytes32"
        },
        {
          "indexed": true,
          "internalType": "address",
          "name": "account",
          "type": "address"
        },
        {
          "indexed": true,
          "internalType": "address",
          "name": "sender",
          "type": "address"
        }
      ],
      "name": "RoleRevoked",
      "type": "event"
    },
    {
      "anonymous": false,
      "inputs": [
        {
          "indexed": true,
          "internalType": "bytes32",
          "name": "burnId",
          "type": "bytes32"
        },
        {
          "indexed": true,
          "internalType": "address",
          "name": "sender",
          "type": "address"
        },
        {
          "indexed": true,
          "internalType": "address",
          "name": "recipient",
          "type": "address"
        },
        {
          "indexed": false,
          "internalType": "uint256",
          "name": "amount",
          "type": "uint256"
        },
        {
          "indexed": false,
          "internalType": "address",
          "name": "token",
          "type": "address"
        },
        {
          "indexed": false,
          "internalType": "uint256",
          "name": "maxConfirmationTimestamp",
          "type": "uint256"
        },
        {
          "indexed": false,
          "internalType": "uint256",
          "name": "destChainId",
          "type": "uint256"
        },
        {
          "indexed": false,
          "internalType": "address",
          "name": "destTokenAddress",
          "type": "address"
        }
      ],
      "name": "TokensBurned",
      "type": "event"
    },
    {
      "anonymous": false,
      "inputs": [
        {
          "indexed": true,
          "internalType": "bytes32",
          "name": "lockId",
          "type": "bytes32"
        },
        {
          "indexed": true,
          "internalType": "address",
          "name": "sender",
          "type": "address"
        },
        {
          "indexed": true,
          "internalType": "address",
          "name": "recipient",
          "type": "address"
        },
        {
          "indexed": false,
          "internalType": "uint256",
          "name": "amount",
          "type": "uint256"
        },
        {
          "indexed": false,
          "internalType": "address",
          "name": "token",
          "type": "address"
        },
        {
          "indexed": false,
          "internalType": "uint256",
          "name": "srcChainId",
          "type": "uint256"
        },
        {
          "indexed": false,
          "internalType": "address",
          "name": "srcTokenAddress",
          "type": "address"
        }
      ],
      "name": "TokensMinted",
      "type": "event"
    },
    {
      "anonymous": false,
      "inputs": [
        {
          "indexed": false,
          "internalType": "address",
          "name": "account",
          "type": "address"
        }
      ],
      "name": "Unpaused",
      "type": "event"
    },
    {
      "anonymous": false,
      "inputs": [
        {
          "indexed": true,
          "internalType": "address",
          "name": "implementation",
          "type": "address"
        }
      ],
      "name": "Upgraded",
      "type": "event"
    },
    {
      "inputs": [],
      "name": "DEFAULT_ADMIN_ROLE",
      "outputs": [
        {
          "internalType": "bytes32",
          "name": "",
          "type": "bytes32"
        }
      ],
      "stateMutability": "view",
      "type": "function"
    },
    {
      "inputs": [],
      "name": "MESSAGE_ADAPTER_ROLE",
      "outputs": [
        {
          "internalType": "bytes32",
          "name": "",
          "type": "bytes32"
        }
      ],
      "stateMutability": "view",
      "type": "function"
    },
    {
      "inputs": [],
      "name": "PAUSER_ROLE",
      "outputs": [
        {
          "internalType": "bytes32",
          "name": "",
          "type": "bytes32"
        }
      ],
      "stateMutability": "view",
      "type": "function"
    },
    {
      "inputs": [],
      "name": "UPGRADER_ROLE",
      "outputs": [
        {
          "internalType": "bytes32",
          "name": "",
          "type": "bytes32"
        }
      ],
      "stateMutability": "view",
      "type": "function"
    },
    {
      "inputs": [],
      "name": "UPGRADE_INTERFACE_VERSION",
      "outputs": [
        {
          "internalType": "string",
          "name": "",
          "type": "string"
        }
      ],
      "stateMutability": "view",
      "type": "function"
    },
    {
      "inputs": [
        {
          "internalType": "uint256",
          "name": "",
          "type": "uint256"
        }
      ],
      "name": "allowedSourceTokens",
      "outputs": [
        {
          "internalType": "address",
          "name": "",
          "type": "address"
        }
      ],
      "stateMutability": "view",
      "type": "function"
    },
    {
      "inputs": [],
      "name": "bridgedToken",
      "outputs": [
        {
          "internalType": "contract IOnestableBridgedToken",
          "name": "",
          "type": "address"
        }
      ],
      "stateMutability": "view",
      "type": "function"
    },
    {
      "inputs": [
        {
          "internalType": "bytes32",
          "name": "",
          "type": "bytes32"
        }
      ],
      "name": "burnRecords",
      "outputs": [
        {
          "internalType": "address",
          "name": "sender",
          "type": "address"
        },
        {
          "internalType": "address",
          "name": "recipient",
          "type": "address"
        },
        {
          "internalType": "uint256",
          "name": "amount",
          "type": "uint256"
        },
        {
          "internalType": "address",
          "name": "token",
          "type": "address"
        },
        {
          "internalType": "uint256",
          "name": "destChainId",
          "type": "uint256"
        },
        {
          "internalType": "address",
          "name": "destTokenAddress",
          "type": "address"
        },
        {
          "internalType": "uint256",
          "name": "maxConfirmationTimestamp",
          "type": "uint256"
        },
        {
          "internalType": "uint256",
          "name": "nonce",
          "type": "uint256"
        }
      ],
      "stateMutability": "view",
      "type": "function"
    },
    {
      "inputs": [
        {
          "internalType": "uint256",
          "name": "destChainId",
          "type": "uint256"
        },
        {
          "internalType": "address",
          "name": "recipient",
          "type": "address"
        },
        {
          "internalType": "uint256",
          "name": "amount",
          "type": "uint256"
        }
      ],
      "name": "burnTokens",
      "outputs": [],
      "stateMutability": "nonpayable",
      "type": "function"
    },
    {
      "inputs": [
        {
          "internalType": "bytes32",
          "name": "burnId",
          "type": "bytes32"
        },
        {
          "internalType": "bytes32",
          "name": "receipt",
          "type": "bytes32"
        },
        {
          "internalType": "uint256",
          "name": "destChainId",
          "type": "uint256"
        },
        {
          "internalType": "address",
          "name": "destTokenAddress",
          "type": "address"
        }
      ],
      "name": "confirmBurn",
      "outputs": [],
      "stateMutability": "nonpayable",
      "type": "function"
    },
    {
      "inputs": [
        {
          "internalType": "bytes32",
          "name": "",
          "type": "bytes32"
        }
      ],
      "name": "confirmedBurnReceipts",
      "outputs": [
        {
          "internalType": "bytes32",
          "name": "",
          "type": "bytes32"
        }
      ],
      "stateMutability": "view",
      "type": "function"
    },
    {
      "inputs": [
        {
          "internalType": "bytes32",
          "name": "role",
          "type": "bytes32"
        }
      ],
      "name": "getRoleAdmin",
      "outputs": [
        {
          "internalType": "bytes32",
          "name": "",
          "type": "bytes32"
        }
      ],
      "stateMutability": "view",
      "type": "function"
    },
    {
      "inputs": [
        {
          "internalType": "bytes32",
          "name": "role",
          "type": "bytes32"
        },
        {
          "internalType": "address",
          "name": "account",
          "type": "address"
        }
      ],
      "name": "grantRole",
      "outputs": [],
      "stateMutability": "nonpayable",
      "type": "function"
    },
    {
      "inputs": [
        {
          "internalType": "bytes32",
          "name": "role",
          "type": "bytes32"
        },
        {
          "internalType": "address",
          "name": "account",
          "type": "address"
        }
      ],
      "name": "hasRole",
      "outputs": [
        {
          "internalType": "bool",
          "name": "",
          "type": "bool"
        }
      ],
      "stateMutability": "view",
      "type": "function"
    },
    {
      "inputs": [
        {
          "internalType": "contract IOnestableBridgedToken",
          "name": "_bridgedToken",
          "type": "address"
        },
        {
          "internalType": "uint256[]",
          "name": "_srcChainIds",
          "type": "uint256[]"
        },
        {
          "internalType": "address[]",
          "name": "_srcTokenAddresses",
          "type": "address[]"
        },
        {
          "internalType": "uint256",
          "name": "_maxConfirmationPeriod",
          "type": "uint256"
        },
        {
          "internalType": "address",
          "name": "_defaultAdmin",
          "type": "address"
        },
        {
          "internalType": "address",
          "name": "_pauser",
          "type": "address"
        },
        {
          "internalType": "address",
          "name": "_upgrader",
          "type": "address"
        }
      ],
      "name": "initialize",
      "outputs": [],
      "stateMutability": "nonpayable",
      "type": "function"
    },
    {
      "inputs": [
        {
          "internalType": "bytes32",
          "name": "",
          "type": "bytes32"
        }
      ],
      "name": "isBurnReverted",
      "outputs": [
        {
          "internalType": "bool",
          "name": "",
          "type": "bool"
        }
      ],
      "stateMutability": "view",
      "type": "function"
    },
    {
      "inputs": [],
      "name": "maxConfirmationPeriod",
      "outputs": [
        {
          "internalType": "uint256",
          "name": "",
          "type": "uint256"
        }
      ],
      "stateMutability": "view",
      "type": "function"
    },
    {
      "inputs": [
        {
          "internalType": "bytes32",
          "name": "lockId",
          "type": "bytes32"
        },
        {
          "internalType": "uint256",
          "name": "srcChainId",
          "type": "uint256"
        },
        {
          "internalType": "address",
          "name": "srcTokenAddress",
          "type": "address"
        },
        {
          "internalType": "address",
          "name": "sender",
          "type": "address"
        },
        {
          "internalType": "address",
          "name": "recipient",
          "type": "address"
        },
        {
          "internalType": "uint256",
          "name": "amount",
          "type": "uint256"
        },
        {
          "internalType": "uint256",
          "name": "maxConfirmationTimestamp",
          "type": "uint256"
        }
      ],
      "name": "mintTokens",
      "outputs": [],
      "stateMutability": "nonpayable",
      "type": "function"
    },
    {
      "inputs": [],
      "name": "pause",
      "outputs": [],
      "stateMutability": "nonpayable",
      "type": "function"
    },
    {
      "inputs": [],
      "name": "paused",
      "outputs": [
        {
          "internalType": "bool",
          "name": "",
          "type": "bool"
        }
      ],
      "stateMutability": "view",
      "type": "function"
    },
    {
      "inputs": [
        {
          "internalType": "bytes32",
          "name": "",
          "type": "bytes32"
        }
      ],
      "name": "processedMints",
      "outputs": [
        {
          "internalType": "bool",
          "name": "",
          "type": "bool"
        }
      ],
      "stateMutability": "view",
      "type": "function"
    },
    {
      "inputs": [],
      "name": "proxiableUUID",
      "outputs": [
        {
          "internalType": "bytes32",
          "name": "",
          "type": "bytes32"
        }
      ],
      "stateMutability": "view",
      "type": "function"
    },
    {
      "inputs": [
        {
          "internalType": "bytes32",
          "name": "role",
          "type": "bytes32"
        },
        {
          "internalType": "address",
          "name": "callerConfirmation",
          "type": "address"
        }
      ],
      "name": "renounceRole",
      "outputs": [],
      "stateMutability": "nonpayable",
      "type": "function"
    },
    {
      "inputs": [
        {
          "internalType": "contract IERC20",
          "name": "tokenContract",
          "type": "address"
        },
        {
          "internalType": "address",
          "name": "to",
          "type": "address"
        },
        {
          "internalType": "uint256",
          "name": "amount",
          "type": "uint256"
        }
      ],
      "name": "rescueERC20",
      "outputs": [],
      "stateMutability": "nonpayable",
      "type": "function"
    },
    {
      "inputs": [
        {
          "internalType": "bytes32",
          "name": "burnId",
          "type": "bytes32"
        }
      ],
      "name": "revertBurnedTokens",
      "outputs": [],
      "stateMutability": "nonpayable",
      "type": "function"
    },
    {
      "inputs": [
        {
          "internalType": "bytes32",
          "name": "role",
          "type": "bytes32"
        },
        {
          "internalType": "address",
          "name": "account",
          "type": "address"
        }
      ],
      "name": "revokeRole",
      "outputs": [],
      "stateMutability": "nonpayable",
      "type": "function"
    },
    {
      "inputs": [
        {
          "internalType": "uint256",
          "name": "chainId",
          "type": "uint256"
        },
        {
          "internalType": "address",
          "name": "tokenAddress",
          "type": "address"
        }
      ],
      "name": "setAllowedSourceTokens",
      "outputs": [],
      "stateMutability": "nonpayable",
      "type": "function"
    },
    {
      "inputs": [
        {
          "internalType": "uint256",
          "name": "_maxPeriod",
          "type": "uint256"
        }
      ],
      "name": "setMaxConfirmationPeriod",
      "outputs": [],
      "stateMutability": "nonpayable",
      "type": "function"
    },
    {
      "inputs": [
        {
          "internalType": "address",
          "name": "adapter",
          "type": "address"
        },
        {
          "internalType": "bool",
          "name": "enabled",
          "type": "bool"
        }
      ],
      "name": "setMessageAdapter",
      "outputs": [],
      "stateMutability": "nonpayable",
      "type": "function"
    },
    {
      "inputs": [
        {
          "internalType": "bytes4",
          "name": "interfaceId",
          "type": "bytes4"
        }
      ],
      "name": "supportsInterface",
      "outputs": [
        {
          "internalType": "bool",
          "name": "",
          "type": "bool"
        }
      ],
      "stateMutability": "view",
      "type": "function"
    },
    {
      "inputs": [],
      "name": "totalMintedSupply",
      "outputs": [
        {
          "internalType": "uint256",
          "name": "",
          "type": "uint256"
        }
      ],
      "stateMutability": "view",
      "type": "function"
    },
    {
      "inputs": [],
      "name": "unpause",
      "outputs": [],
      "stateMutability": "nonpayable",
      "type": "function"
    },
    {
      "inputs": [
        {
          "internalType": "address",
          "name": "newImplementation",
          "type": "address"
        },
        {
          "internalType": "bytes",
          "name": "data",
          "type": "bytes"
        }
      ],
      "name": "upgradeToAndCall",
      "outputs": [],
      "stateMutability": "payable",
      "type": "function"
    }
  ],
  "bytecode": "0x60a06040523060805234801561001457600080fd5b5061001d610022565b6100d4565b7ff0c57e16840df040f15088dc2f81fe391c3923bec73e23a9662efc9c229c6a00805468010000000000000000900460ff16156100725760405163f92ee8a960e01b815260040160405180910390fd5b80546001600160401b03908116146100d15780546001600160401b0319166001600160401b0390811782556040519081527fc7f505b2f371ae2175ee4913f4499e1f2633a7b5936321eed1cdaeb6115181d29060200160405180910390a15b50565b6080516128716100fd60003960008181611bc301528181611bec0152611d4f01526128716000f3fe6080604052600436106101ee5760003560e01c806391d148541161010d578063b2c0efe0116100a0578063e267b7111161006f578063e267b711146105cb578063e63ab1e9146105eb578063ee3839371461060d578063f412ddc31461062d578063f72c0d8b146106ed57600080fd5b8063b2c0efe01461051e578063d547741f1461054e578063da337f841461056e578063df13ebda1461059e57600080fd5b8063a97a4212116100dc578063a97a42121461047e578063ad3cb1cc1461049e578063b07d2213146104dc578063b2118a8d146104fe57600080fd5b806391d14854146103db578063a0b35dc0146103fb578063a217fddf1461041b578063a484a3d71461043057600080fd5b80633f4ba83a116101855780635c975abb116101545780635c975abb14610375578063601e26031461039a5780638001a11a146103b05780638456cb59146103c657600080fd5b80633f4ba83a146103185780634f1ef2861461032d57806352d1902d146103405780635a16f2781461035557600080fd5b806336568abe116101c157806336568abe1461029857806338f04f3e146102b85780633bbbc9d2146102d85780633f3ca004146102f857600080fd5b806301ffc9a7146101f3578063248a9ca31461022857806329df1d77146102565780632f2ff15d14610278575b600080fd5b3480156101ff57600080fd5b5061021361020e3660046121f4565b610721565b60405190151581526020015b60405180910390f35b34801561023457600080fd5b5061024861024336600461221e565b610758565b60405190815260200161021f565b34801561026257600080fd5b5061027661027136600461221e565b61077a565b005b34801561028457600080fd5b5061027661029336600461225c565b610a38565b3480156102a457600080fd5b506102766102b336600461225c565b610a5a565b3480156102c457600080fd5b506102766102d336600461228c565b610a92565b3480156102e457600080fd5b506102766102f336600461225c565b610dad565b34801561030457600080fd5b506102766103133660046122fd565b610e57565b34801561032457600080fd5b50610276611204565b61027661033b36600461237c565b611224565b34801561034c57600080fd5b50610248611243565b34801561036157600080fd5b506102766103703660046124c3565b611260565b34801561038157600080fd5b506000805160206127fc8339815191525460ff16610213565b3480156103a657600080fd5b5061024860025481565b3480156103bc57600080fd5b5061024860035481565b3480156103d257600080fd5b506102766115cc565b3480156103e757600080fd5b506102136103f636600461225c565b6115ec565b34801561040757600080fd5b506102766104163660046125d3565b611624565b34801561042757600080fd5b50610248600081565b34801561043c57600080fd5b5061046661044b36600461221e565b6008602052600090815260409020546001600160a01b031681565b6040516001600160a01b03909116815260200161021f565b34801561048a57600080fd5b50610276610499366004612622565b61181c565b3480156104aa57600080fd5b506104cf604051806040016040528060058152602001640352e302e360dc1b81525081565b60405161021f9190612674565b3480156104e857600080fd5b5061024860008051602061277c83398151915281565b34801561050a57600080fd5b506102766105193660046126a7565b61189e565b34801561052a57600080fd5b5061021361053936600461221e565b60046020526000908152604090205460ff1681565b34801561055a57600080fd5b5061027661056936600461225c565b61191a565b34801561057a57600080fd5b5061021361058936600461221e565b60076020526000908152604090205460ff1681565b3480156105aa57600080fd5b506102486105b936600461221e565b60066020526000908152604090205481565b3480156105d757600080fd5b506102766105e636600461221e565b611936565b3480156105f757600080fd5b506102486000805160206127bc83398151915281565b34801561061957600080fd5b50600154610466906001600160a01b031681565b34801561063957600080fd5b5061069d61064836600461221e565b6005602081905260009182526040909120805460018201546002830154600384015460048501549585015460068601546007909601546001600160a01b03958616979486169693959283169493919092169188565b604080516001600160a01b03998a16815297891660208901528701959095529286166060860152608085019190915290931660a083015260c082019290925260e08101919091526101000161021f565b3480156106f957600080fd5b506102487f189ab7a9244df0848122154315af71fe140f3db0fe014031783b0946b8c9d2e381565b60006001600160e01b03198216637965db0b60e01b148061075257506301ffc9a760e01b6001600160e01b03198316145b92915050565b60009081526000805160206127dc833981519152602052604090206001015490565b610782611947565b61078a61197f565b60008051602061277c8339815191526107a2816119b2565b60008281526005602081815260409283902083516101008101855281546001600160a01b039081168083526001840154821694830194909452600283015495820195909552600382015485166060820152600482015460808201529281015490931660a0830152600683015460c083015260079092015460e08201529061083c57604051631bf4348160e31b815260040160405180910390fd5b8060c001514210156108755760c08101516040516326386c7360e21b815242600482015260248101919091526044015b60405180910390fd5b600083815260066020526040902054156108a557604051635854482960e01b81526004810184905260240161086c565b60008381526007602052604090205460ff16156108d557604051632bf773b360e11b815260040160405180910390fd5b600083815260076020526040808220805460ff1916600117905582015160028054919290916109059084906126ed565b9091555050600154815160408084015190516340c10f1960e01b81526000936001600160a01b0316926340c10f1992610954926004016001600160a01b03929092168252602082015260400190565b6020604051808303816000875af1158015610973573d6000803e3d6000fd5b505050506040513d601f19601f820116820180604052508101906109979190612700565b9050806109cf57815160408084015190516351b56ffb60e11b81526001600160a01b039092166004830152602482015260440161086c565b81600001516001600160a01b0316847fbffc17b7a726d22c05d31ec64fb82f8e8f50ed0eb01c512d5d8280fad90217978460400151604051610a1391815260200190565b60405180910390a3505050610a35600160008051602061281c83398151915255565b50565b610a4182610758565b610a4a816119b2565b610a5483836119d0565b50505050565b6001600160a01b0381163314610a835760405163334bd91960e11b815260040160405180910390fd5b610a8d8282611a75565b505050565b610a9a61197f565b610aa2611947565b60008051602061277c833981519152610aba816119b2565b86600003610af8576040516305c57e8360e01b815260206004820152600a6024820152691cdc98d0da185a5b925960b21b604482015260640161086c565b87610b1657604051631bf4348160e31b815260040160405180910390fd5b6001600160a01b038416610b595760405163eac0d38960e01b81526020600482015260096024820152681c9958da5c1a595b9d60ba1b604482015260640161086c565b82600003610b7a5760405163162908e360e11b815260040160405180910390fd5b42821015610ba45760405163309c39e560e11b81524260048201526024810183905260440161086c565b60008881526004602052604090205460ff1615610bd457604051632bf773b360e11b815260040160405180910390fd5b6000878152600860205260409020546001600160a01b031680610c0d57604051633b58057560e11b81526004810189905260240161086c565b806001600160a01b0316876001600160a01b031614610c5257604051639a2f96bd60e01b81526001600160a01b0380831660048301528816602482015260440161086c565b6000898152600460205260408120805460ff1916600117905560028054869290610c7d9084906126ed565b90915550506001546040516340c10f1960e01b81526001600160a01b0387811660048301526024820187905260009216906340c10f19906044016020604051808303816000875af1158015610cd6573d6000803e3d6000fd5b505050506040513d601f19601f82011682018060405250810190610cfa9190612700565b905080610d2c576040516351b56ffb60e11b81526001600160a01b03871660048201526024810186905260440161086c565b600154604080518781526001600160a01b0392831660208201529081018b90528982166060820152818816918916908c907fe9593d0f8ec1a5789c0378883cbe6e4e061a39dc20cdfdaa76b70219be0272739060800160405180910390a4505050610da4600160008051602061281c83398151915255565b50505050505050565b6000610db8816119b2565b468303610df2576040516305c57e8360e01b815260206004820152600760248201526618da185a5b925960ca1b604482015260640161086c565b60008381526008602090815260409182902080546001600160a01b0319166001600160a01b038616908117909155915191825284917f551ad9e4e71ef265602225ac2e1c9c89f8f4d33bedb9cd8468fb5870c83f5e89910160405180910390a2505050565b610e5f61197f565b610e67611947565b80600003610e885760405163162908e360e11b815260040160405180910390fd5b6001600160a01b038216610ecb5760405163eac0d38960e01b81526020600482015260096024820152681c9958da5c1a595b9d60ba1b604482015260640161086c565b806002541015610efc57600254604051630cccb0c760e21b815260048101919091526024810182905260440161086c565b6000838152600860205260409020546001600160a01b031680610f3557604051635a7fcce760e01b81526004810185905260240161086c565b600154610f4d906001600160a01b0316333085611af1565b600154604051630852cd8d60e31b8152600481018490526001600160a01b03909116906342966c6890602401600060405180830381600087803b158015610f9357600080fd5b505af1158015610fa7573d6000803e3d6000fd5b505050506001600080828254610fbd91906126ed565b925050819055508160026000828254610fd6919061271d565b909155505060408051610100810182523381526001600160a01b038581166020830152918101849052600154821660608201526080810186905290821660a08201526003546000919060c082019061102e90426126ed565b8152602001600054815250905060006110d7828051602080830151604080850151606080870151608088015160a089015160c08a015160e0909a015186516bffffffffffffffffffffffff199a861b8b16818b015297851b8a166034890152604888019590955291831b88166068870152607c860152901b909416609c83015260b082019490945260d0808201939093528351808203909301835260f001909252805191012090565b600081815260056020818152604092839020865181546001600160a01b03199081166001600160a01b0392831617835592880151600180840180548616928416929092179091559488015160028301556060880151600380840180548616928416929092179091556080890151600484015560a089015194830180549094169482169490941790925560c0870151600682015560e08701516007909101559154905492935087821692339285927f9666926aeec77247f0bfe007ccc456fffdfe20fc8738c7a6582bb953ac5fc2c2928a9291909116906111b790426126ed565b604080519384526001600160a01b039283166020850152830152606082018c90528816608082015260a00160405180910390a4505050610a8d600160008051602061281c83398151915255565b6000805160206127bc83398151915261121c816119b2565b610a35611b58565b61122c611bb8565b61123582611c5d565b61123f8282611c87565b5050565b600061124d611d44565b5060008051602061279c83398151915290565b7ff0c57e16840df040f15088dc2f81fe391c3923bec73e23a9662efc9c229c6a008054600160401b810460ff16159067ffffffffffffffff166000811580156112a65750825b905060008267ffffffffffffffff1660011480156112c35750303b155b9050811580156112d1575080155b156112ef5760405163f92ee8a960e01b815260040160405180910390fd5b845467ffffffffffffffff19166001178555831561131957845460ff60401b1916600160401b1785555b6001600160a01b038c166113605760405163eac0d38960e01b815260206004820152600d60248201526c2fb13934b233b2b22a37b5b2b760991b604482015260640161086c565b6001600160a01b0388166113a75760405163eac0d38960e01b815260206004820152600d60248201526c2fb232b330bab63a20b236b4b760991b604482015260640161086c565b6001600160a01b0387166113e85760405163eac0d38960e01b81526020600482015260076024820152662fb830bab9b2b960c91b604482015260640161086c565b6001600160a01b03861661142b5760405163eac0d38960e01b81526020600482015260096024820152682fbab833b930b232b960b91b604482015260640161086c565b89518b5114611497576040805163616c411360e01b81526004810191909152600c60448201526b5f737263436861696e49647360a01b60648201526080602482015260126084820152715f737263546f6b656e41646472657373657360701b60a482015260c40161086c565b61149f611d8d565b6114a7611d9d565b6114af611dad565b6114b7611dad565b6114c26000896119d0565b506114db6000805160206127bc833981519152886119d0565b506115067f189ab7a9244df0848122154315af71fe140f3db0fe014031783b0946b8c9d2e3876119d0565b50600180546001600160a01b0319166001600160a01b038e16179055600389905560005b8b518110156115775761156f8c828151811061154857611548612730565b60200260200101518c838151811061156257611562612730565b6020026020010151610dad565b60010161152a565b5083156115be57845460ff60401b19168555604051600181527fc7f505b2f371ae2175ee4913f4499e1f2633a7b5936321eed1cdaeb6115181d29060200160405180910390a15b505050505050505050505050565b6000805160206127bc8339815191526115e4816119b2565b610a35611db5565b60009182526000805160206127dc833981519152602090815260408084206001600160a01b0393909316845291905290205460ff1690565b61162c611947565b61163461197f565b60008051602061277c83398151915261164c816119b2565b60008581526005602081815260409283902083516101008101855281546001600160a01b039081168083526001840154821694830194909452600283015495820195909552600382015485166060820152600482015460808201529281015490931660a0830152600683015460c083015260079092015460e0820152906116e657604051631bf4348160e31b815260040160405180910390fd5b8060800151841461171a5760808101516040516364f9bc0760e11b815260048101919091526024810185905260440161086c565b8060a001516001600160a01b0316836001600160a01b0316146117695760a08101516040516367632d7b60e11b81526001600160a01b039182166004820152908416602482015260440161086c565b60008681526007602052604090205460ff161561179b576040516291c78160e21b81526004810187905260240161086c565b600086815260066020526040902054156117c857604051632bf773b360e11b815260040160405180910390fd5b60008681526006602052604080822087905551869188917ff5256adb112226e7da3aa86c1f5e8ffe850768c550b167eb69f3910ec7c5f4039190a35050610a54600160008051602061281c83398151915255565b6000611827816119b2565b6001600160a01b0383166118685760405163eac0d38960e01b815260206004820152600760248201526630b230b83a32b960c91b604482015260640161086c565b811561188657610a5460008051602061277c833981519152846119d0565b610a5460008051602061277c83398151915284611a75565b60006118a9816119b2565b6001600160a01b0383166118e55760405163eac0d38960e01b8152602060048201526002602482015261746f60f01b604482015260640161086c565b816000036119065760405163162908e360e11b815260040160405180910390fd5b610a546001600160a01b0385168484611dfe565b61192382610758565b61192c816119b2565b610a548383611a75565b6000611941816119b2565b50600355565b60008051602061281c83398151915280546001190161197957604051633ee5aeb560e01b815260040160405180910390fd5b60029055565b6000805160206127fc8339815191525460ff16156119b05760405163d93c066560e01b815260040160405180910390fd5b565b610a358133611e2f565b600160008051602061281c83398151915255565b60006000805160206127dc8339815191526119eb84846115ec565b611a6b576000848152602082815260408083206001600160a01b03871684529091529020805460ff19166001179055611a213390565b6001600160a01b0316836001600160a01b0316857f2f8788117e7eff1d82e926ec794901d17c78024a50270940304540a733656f0d60405160405180910390a46001915050610752565b6000915050610752565b60006000805160206127dc833981519152611a9084846115ec565b15611a6b576000848152602082815260408083206001600160a01b0387168085529252808320805460ff1916905551339287917ff6391f5c32d9c69d2a47ea670b442974b53935d1edc7fd64eb21e047a839171b9190a46001915050610752565b6040516001600160a01b038481166024830152838116604483015260648201839052610a549186918216906323b872dd906084015b604051602081830303815290604052915060e01b6020820180516001600160e01b038381831617835250505050611e68565b611b60611ecb565b6000805160206127fc833981519152805460ff191681557f5db9ee0a495bf2e6ff9c91a7834c1ba4fdd244a5e8aa4e537bd38aeae4b073aa335b6040516001600160a01b03909116815260200160405180910390a150565b306001600160a01b037f0000000000000000000000000000000000000000000000000000000000000000161480611c3f57507f00000000000000000000000000000000000000000000000000000000000000006001600160a01b0316611c3360008051602061279c833981519152546001600160a01b031690565b6001600160a01b031614155b156119b05760405163703e46dd60e11b815260040160405180910390fd5b7f189ab7a9244df0848122154315af71fe140f3db0fe014031783b0946b8c9d2e361123f816119b2565b816001600160a01b03166352d1902d6040518163ffffffff1660e01b8152600401602060405180830381865afa925050508015611ce1575060408051601f3d908101601f19168201909252611cde91810190612746565b60015b611d0957604051634c9c8ce360e01b81526001600160a01b038316600482015260240161086c565b60008051602061279c8339815191528114611d3a57604051632a87526960e21b81526004810182905260240161086c565b610a8d8383611efb565b306001600160a01b037f000000000000000000000000000000000000000000000000000000000000000016146119b05760405163703e46dd60e11b815260040160405180910390fd5b611d95611f51565b6119b0611f9a565b611da5611f51565b6119b0611fbb565b6119b0611f51565b611dbd61197f565b6000805160206127fc833981519152805460ff191660011781557f62e78cea01bee320cd4e420270b5ea74000d11b0c9f74754ebdbfc544b05a25833611b9a565b6040516001600160a01b03838116602483015260448201839052610a8d91859182169063a9059cbb90606401611b26565b611e3982826115ec565b61123f5760405163e2517d3f60e01b81526001600160a01b03821660048201526024810183905260440161086c565b6000611e7d6001600160a01b03841683611fc3565b90508051600014158015611ea2575080806020019051810190611ea09190612700565b155b15610a8d57604051635274afe760e01b81526001600160a01b038416600482015260240161086c565b6000805160206127fc8339815191525460ff166119b057604051638dfc202b60e01b815260040160405180910390fd5b611f0482611fd8565b6040516001600160a01b038316907fbc7cd75a20ee27fd9adebab32041f755214dbc6bffa90cc0225b39da2e5c2d3b90600090a2805115611f4957610a8d828261203d565b61123f6120b3565b7ff0c57e16840df040f15088dc2f81fe391c3923bec73e23a9662efc9c229c6a0054600160401b900460ff166119b057604051631afcd79f60e31b815260040160405180910390fd5b611fa2611f51565b6000805160206127fc833981519152805460ff19169055565b6119bc611f51565b6060611fd1838360006120d2565b9392505050565b806001600160a01b03163b60000361200e57604051634c9c8ce360e01b81526001600160a01b038216600482015260240161086c565b60008051602061279c83398151915280546001600160a01b0319166001600160a01b0392909216919091179055565b6060600080846001600160a01b03168460405161205a919061275f565b600060405180830381855af49150503d8060008114612095576040519150601f19603f3d011682016040523d82523d6000602084013e61209a565b606091505b50915091506120aa85838361216f565b95945050505050565b34156119b05760405163b398979f60e01b815260040160405180910390fd5b6060814710156120f75760405163cd78605960e01b815230600482015260240161086c565b600080856001600160a01b03168486604051612113919061275f565b60006040518083038185875af1925050503d8060008114612150576040519150601f19603f3d011682016040523d82523d6000602084013e612155565b606091505b509150915061216586838361216f565b9695505050505050565b6060826121845761217f826121cb565b611fd1565b815115801561219b57506001600160a01b0384163b155b156121c457604051639996b31560e01b81526001600160a01b038516600482015260240161086c565b5080611fd1565b8051156121db5780518082602001fd5b604051630a12f52160e11b815260040160405180910390fd5b60006020828403121561220657600080fd5b81356001600160e01b031981168114611fd157600080fd5b60006020828403121561223057600080fd5b5035919050565b6001600160a01b0381168114610a3557600080fd5b803561225781612237565b919050565b6000806040838503121561226f57600080fd5b82359150602083013561228181612237565b809150509250929050565b600080600080600080600060e0888a0312156122a757600080fd5b873596506020880135955060408801356122c081612237565b945060608801356122d081612237565b935060808801356122e081612237565b9699959850939692959460a0840135945060c09093013592915050565b60008060006060848603121561231257600080fd5b83359250602084013561232481612237565b929592945050506040919091013590565b634e487b7160e01b600052604160045260246000fd5b604051601f8201601f1916810167ffffffffffffffff8111828210171561237457612374612335565b604052919050565b6000806040838503121561238f57600080fd5b823561239a81612237565b9150602083013567ffffffffffffffff8111156123b657600080fd5b8301601f810185136123c757600080fd5b803567ffffffffffffffff8111156123e1576123e1612335565b6123f4601f8201601f191660200161234b565b81815286602083850101111561240957600080fd5b816020840160208301376000602083830101528093505050509250929050565b600067ffffffffffffffff82111561244357612443612335565b5060051b60200190565b600082601f83011261245e57600080fd5b813561247161246c82612429565b61234b565b8082825260208201915060208360051b86010192508583111561249357600080fd5b602085015b838110156124b95780356124ab81612237565b835260209283019201612498565b5095945050505050565b600080600080600080600060e0888a0312156124de57600080fd5b87356124e981612237565b9650602088013567ffffffffffffffff81111561250557600080fd5b8801601f81018a1361251657600080fd5b803561252461246c82612429565b8082825260208201915060208360051b85010192508c83111561254657600080fd5b6020840193505b8284101561256857833582526020938401939091019061254d565b9850505050604088013567ffffffffffffffff81111561258757600080fd5b6125938a828b0161244d565b955050606088013593506125a96080890161224c565b92506125b760a0890161224c565b91506125c560c0890161224c565b905092959891949750929550565b600080600080608085870312156125e957600080fd5b843593506020850135925060408501359150606085013561260981612237565b939692955090935050565b8015158114610a3557600080fd5b6000806040838503121561263557600080fd5b823561264081612237565b9150602083013561228181612614565b60005b8381101561266b578181015183820152602001612653565b50506000910152565b6020815260008251806020840152612693816040850160208701612650565b601f01601f19169190910160400192915050565b6000806000606084860312156126bc57600080fd5b83356126c781612237565b9250602084013561232481612237565b634e487b7160e01b600052601160045260246000fd5b80820180821115610752576107526126d7565b60006020828403121561271257600080fd5b8151611fd181612614565b81810381811115610752576107526126d7565b634e487b7160e01b600052603260045260246000fd5b60006020828403121561275857600080fd5b5051919050565b60008251612771818460208701612650565b919091019291505056fea1e2c127643b05ddd4b2a9035efb97eaf74237c1e00561fe90b272f75f614f2a360894a13ba1a3210667c828492db98dca3e2076cc3735a920a3ca505d382bbc65d7a28e3265b37a6474929f336521b332c1681b933f6cb9f3376673440d862a02dd7bc7dec4dceedda775e58dd541e08a116c6c53815c0bd028192f7b626800cd5ed15c6e187e77e9aee88184c21f4f2182ab5827cb3b7e07fbedcd63f033009b779b17422d0df92223018b32b4d1fa46e071723d6817e2486d003becc55f00a2646970667358221220fd91c78bb362c7edbbb4c19b8bd6f22f7027288849a62ef47bd70b035023647064736f6c634300081b0033",
  "linkReferences": {},
  "deployedLinkReferences": {}
}