{
  "_format": "hh-sol-artifact-1",
  "contractName": "OnestableDestinationRelayerAdapter",
  "sourceName": "contracts/dest/OnestableDestinationRelayerAdapter.sol",
  "abi": [
    {
      "inputs": [
        {
          "internalType": "address",
          "name": "_owner",
          "type": "address"
        },
        {
          "internalType": "address",
          "name": "_authorizedSigner",
          "type": "address"
        },
        {
          "internalType": "address",
          "name": "_bridge",
          "type": "address"
        }
      ],
      "stateMutability": "nonpayable",
      "type": "constructor"
    },
    {
      "inputs": [],
      "name": "ECDSAInvalidSignature",
      "type": "error"
    },
    {
      "inputs": [
        {
          "internalType": "uint256",
          "name": "length",
          "type": "uint256"
        }
      ],
      "name": "ECDSAInvalidSignatureLength",
      "type": "error"
    },
    {
      "inputs": [
        {
          "internalType": "bytes32",
          "name": "s",
          "type": "bytes32"
        }
      ],
      "name": "ECDSAInvalidSignatureS",
      "type": "error"
    },
    {
      "inputs": [],
      "name": "EnforcedPause",
      "type": "error"
    },
    {
      "inputs": [],
      "name": "ExpectedPause",
      "type": "error"
    },
    {
      "inputs": [
        {
          "internalType": "address",
          "name": "owner",
          "type": "address"
        }
      ],
      "name": "OwnableInvalidOwner",
      "type": "error"
    },
    {
      "inputs": [
        {
          "internalType": "address",
          "name": "account",
          "type": "address"
        }
      ],
      "name": "OwnableUnauthorizedAccount",
      "type": "error"
    },
    {
      "inputs": [],
      "name": "ReentrancyGuardReentrantCall",
      "type": "error"
    },
    {
      "inputs": [
        {
          "internalType": "address",
          "name": "signer",
          "type": "address"
        }
      ],
      "name": "UnauthorizedSigner",
      "type": "error"
    },
    {
      "inputs": [
        {
          "internalType": "string",
          "name": "field",
          "type": "string"
        }
      ],
      "name": "ZeroAddress",
      "type": "error"
    },
    {
      "anonymous": false,
      "inputs": [
        {
          "indexed": true,
          "internalType": "address",
          "name": "previousOwner",
          "type": "address"
        },
        {
          "indexed": true,
          "internalType": "address",
          "name": "newOwner",
          "type": "address"
        }
      ],
      "name": "OwnershipTransferred",
      "type": "event"
    },
    {
      "anonymous": false,
      "inputs": [
        {
          "indexed": false,
          "internalType": "address",
          "name": "account",
          "type": "address"
        }
      ],
      "name": "Paused",
      "type": "event"
    },
    {
      "anonymous": false,
      "inputs": [
        {
          "indexed": true,
          "internalType": "address",
          "name": "prevSigner",
          "type": "address"
        },
        {
          "indexed": true,
          "internalType": "address",
          "name": "newSigner",
          "type": "address"
        }
      ],
      "name": "SignerChanged",
      "type": "event"
    },
    {
      "anonymous": false,
      "inputs": [
        {
          "indexed": false,
          "internalType": "address",
          "name": "account",
          "type": "address"
        }
      ],
      "name": "Unpaused",
      "type": "event"
    },
    {
      "inputs": [],
      "name": "authorizedSigner",
      "outputs": [
        {
          "internalType": "address",
          "name": "",
          "type": "address"
        }
      ],
      "stateMutability": "view",
      "type": "function"
    },
    {
      "inputs": [],
      "name": "bridge",
      "outputs": [
        {
          "internalType": "contract IOnestableDestinationBridge",
          "name": "",
          "type": "address"
        }
      ],
      "stateMutability": "view",
      "type": "function"
    },
    {
      "inputs": [
        {
          "internalType": "bytes32",
          "name": "burnId",
          "type": "bytes32"
        },
        {
          "internalType": "bytes32",
          "name": "receipt",
          "type": "bytes32"
        },
        {
          "internalType": "bytes",
          "name": "signature",
          "type": "bytes"
        }
      ],
      "name": "executeConfirm",
      "outputs": [],
      "stateMutability": "nonpayable",
      "type": "function"
    },
    {
      "inputs": [
        {
          "internalType": "bytes32",
          "name": "lockId",
          "type": "bytes32"
        },
        {
          "internalType": "uint256",
          "name": "srcChainId",
          "type": "uint256"
        },
        {
          "internalType": "address",
          "name": "srcTokenAddress",
          "type": "address"
        },
        {
          "internalType": "address",
          "name": "sender",
          "type": "address"
        },
        {
          "internalType": "address",
          "name": "recipient",
          "type": "address"
        },
        {
          "internalType": "uint256",
          "name": "amount",
          "type": "uint256"
        },
        {
          "internalType": "uint256",
          "name": "maxConfirmationTimestamp",
          "type": "uint256"
        },
        {
          "internalType": "bytes",
          "name": "signature",
          "type": "bytes"
        }
      ],
      "name": "executeMint",
      "outputs": [],
      "stateMutability": "nonpayable",
      "type": "function"
    },
    {
      "inputs": [
        {
          "internalType": "bytes32",
          "name": "burnId",
          "type": "bytes32"
        },
        {
          "internalType": "bytes",
          "name": "signature",
          "type": "bytes"
        }
      ],
      "name": "executeRevert",
      "outputs": [],
      "stateMutability": "nonpayable",
      "type": "function"
    },
    {
      "inputs": [],
      "name": "owner",
      "outputs": [
        {
          "internalType": "address",
          "name": "",
          "type": "address"
        }
      ],
      "stateMutability": "view",
      "type": "function"
    },
    {
      "inputs": [],
      "name": "pause",
      "outputs": [],
      "stateMutability": "nonpayable",
      "type": "function"
    },
    {
      "inputs": [],
      "name": "paused",
      "outputs": [
        {
          "internalType": "bool",
          "name": "",
          "type": "bool"
        }
      ],
      "stateMutability": "view",
      "type": "function"
    },
    {
      "inputs": [],
      "name": "renounceOwnership",
      "outputs": [],
      "stateMutability": "nonpayable",
      "type": "function"
    },
    {
      "inputs": [
        {
          "internalType": "address",
          "name": "newSigner",
          "type": "address"
        }
      ],
      "name": "setAuthorizedSigner",
      "outputs": [],
      "stateMutability": "nonpayable",
      "type": "function"
    },
    {
      "inputs": [
        {
          "internalType": "address",
          "name": "newOwner",
          "type": "address"
        }
      ],
      "name": "transferOwnership",
      "outputs": [],
      "stateMutability": "nonpayable",
      "type": "function"
    },
    {
      "inputs": [],
      "name": "unpause",
      "outputs": [],
      "stateMutability": "nonpayable",
      "type": "function"
    }
  ],
  "bytecode": "0x60a060405234801561001057600080fd5b50604051610e78380380610e7883398101604081905261002f916101dd565b8282816001600160a01b03811661006157604051631e4fbdf760e01b8152600060048201526024015b60405180910390fd5b61006a81610171565b506000805460ff60a01b191690556001600160a01b0382166100b85760405163eac0d38960e01b81526020600482015260066024820152652fb7bbb732b960d11b6044820152606401610058565b6001600160a01b0381166101035760405163eac0d38960e01b81526020600482015260116024820152702fb0baba3437b934bd32b229b4b3b732b960791b6044820152606401610058565b600180546001600160a01b0319166001600160a01b039283161781556002558216905061015d5760405163eac0d38960e01b81526020600482015260076024820152665f62726964676560c81b6044820152606401610058565b6001600160a01b0316608052506102209050565b600080546001600160a01b038381166001600160a01b0319831681178455604051919092169283917f8be0079c531659141344cd1fd0a4f28419497f9722a3daafe3b4186f6b6457e09190a35050565b80516001600160a01b03811681146101d857600080fd5b919050565b6000806000606084860312156101f257600080fd5b6101fb846101c1565b9250610209602085016101c1565b9150610217604085016101c1565b90509250925092565b608051610c286102506000396000818161017e01528181610211015281816102f7015261045d0152610c286000f3fe608060405234801561001057600080fd5b50600436106100b45760003560e01c80638da5cb5b116100715780638da5cb5b1461011b578063c2b7b2e214610140578063c771909c14610153578063d279b0ca14610166578063e78cea9214610179578063f2fde38b146101a057600080fd5b80632f7bacae146100b95780633f4ba83a146100ce578063549b894f146100d65780635c975abb146100e9578063715018a61461010b5780638456cb5914610113575b600080fd5b6100cc6100c7366004610a60565b6101b3565b005b6100cc610285565b6100cc6100e4366004610aac565b610297565b600054600160a01b900460ff1660405190151581526020015b60405180910390f35b6100cc61036c565b6100cc61037e565b6000546001600160a01b03165b6040516001600160a01b039091168152602001610102565b6100cc61014e366004610b1b565b61038e565b600154610128906001600160a01b031681565b6100cc610174366004610bba565b6104cf565b6101287f000000000000000000000000000000000000000000000000000000000000000081565b6100cc6101ae366004610bba565b610571565b6101bb6105af565b6101c36105d7565b6000836040516020016101d891815260200190565b6040516020818303038152906040528051906020012090506101fb818484610602565b6040516329df1d7760e01b8152600481018590527f00000000000000000000000000000000000000000000000000000000000000006001600160a01b0316906329df1d7790602401600060405180830381600087803b15801561025d57600080fd5b505af1158015610271573d6000803e3d6000fd5b50505050506102806001600255565b505050565b61028d6106d5565b610295610702565b565b61029f6105af565b6102a76105d7565b604080516020808201879052818301869052825180830384018152606090920190925280519101206102da818484610602565b6040516378e7aed560e11b815260048101869052602481018590527f00000000000000000000000000000000000000000000000000000000000000006001600160a01b03169063f1cf5daa90604401600060405180830381600087803b15801561034357600080fd5b505af1158015610357573d6000803e3d6000fd5b50505050506103666001600255565b50505050565b6103746106d5565b6102956000610757565b6103866106d5565b6102956107a7565b6103966105af565b61039e6105d7565b60408051602081018b90529081018990526bffffffffffffffffffffffff19606089811b82168184015288811b8216607484015287901b166088820152609c810185905260bc810184905260009060dc01604051602081830303815290604052805190602001209050610412818484610602565b604051631c78279f60e11b8152600481018b9052602481018a90526001600160a01b0389811660448301528881166064830152878116608483015260a4820187905260c482018690527f000000000000000000000000000000000000000000000000000000000000000016906338f04f3e9060e401600060405180830381600087803b1580156104a157600080fd5b505af11580156104b5573d6000803e3d6000fd5b50505050506104c46001600255565b505050505050505050565b6104d76106d5565b6001600160a01b03811661051f5760405163eac0d38960e01b81526020600482015260096024820152683732bba9b4b3b732b960b91b60448201526064015b60405180910390fd5b600180546001600160a01b038381166001600160a01b0319831681179093556040519116919082907feeb293e1f8f3a9db91ade748726387ed1352ca78f5430c5f06fe3d1e1ad5057990600090a35050565b6105796106d5565b6001600160a01b0381166105a357604051631e4fbdf760e01b815260006004820152602401610516565b6105ac81610757565b50565b60028054036105d157604051633ee5aeb560e01b815260040160405180910390fd5b60028055565b600054600160a01b900460ff16156102955760405163d93c066560e01b815260040160405180910390fd5b6040517f19457468657265756d205369676e6564204d6573736167653a0a3332000000006020820152603c8101849052600090605c0160405160208183030381529060405280519060200120905060006106928285858080601f0160208091040260200160405190810160405280939291908181526020018383808284376000920191909152506107ea92505050565b6001549091506001600160a01b038083169116146106ce5760405163e74c68bb60e01b81526001600160a01b0382166004820152602401610516565b5050505050565b6000546001600160a01b031633146102955760405163118cdaa760e01b8152336004820152602401610516565b61070a610814565b6000805460ff60a01b191690557f5db9ee0a495bf2e6ff9c91a7834c1ba4fdd244a5e8aa4e537bd38aeae4b073aa335b6040516001600160a01b03909116815260200160405180910390a1565b600080546001600160a01b038381166001600160a01b0319831681178455604051919092169283917f8be0079c531659141344cd1fd0a4f28419497f9722a3daafe3b4186f6b6457e09190a35050565b6107af6105d7565b6000805460ff60a01b1916600160a01b1790557f62e78cea01bee320cd4e420270b5ea74000d11b0c9f74754ebdbfc544b05a25861073a3390565b6000806000806107fa868661083e565b92509250925061080a828261088b565b5090949350505050565b600054600160a01b900460ff1661029557604051638dfc202b60e01b815260040160405180910390fd5b600080600083516041036108785760208401516040850151606086015160001a61086a88828585610948565b955095509550505050610884565b50508151600091506002905b9250925092565b600082600381111561089f5761089f610bdc565b036108a8575050565b60018260038111156108bc576108bc610bdc565b036108da5760405163f645eedf60e01b815260040160405180910390fd5b60028260038111156108ee576108ee610bdc565b0361090f5760405163fce698f760e01b815260048101829052602401610516565b600382600381111561092357610923610bdc565b03610944576040516335e2f38360e21b815260048101829052602401610516565b5050565b600080807f7fffffffffffffffffffffffffffffff5d576e7357a4501ddfe92f46681b20a08411156109835750600091506003905082610a0d565b604080516000808252602082018084528a905260ff891692820192909252606081018790526080810186905260019060a0016020604051602081039080840390855afa1580156109d7573d6000803e3d6000fd5b5050604051601f1901519150506001600160a01b038116610a0357506000925060019150829050610a0d565b9250600091508190505b9450945094915050565b60008083601f840112610a2957600080fd5b50813567ffffffffffffffff811115610a4157600080fd5b602083019150836020828501011115610a5957600080fd5b9250929050565b600080600060408486031215610a7557600080fd5b83359250602084013567ffffffffffffffff811115610a9357600080fd5b610a9f86828701610a17565b9497909650939450505050565b60008060008060608587031215610ac257600080fd5b8435935060208501359250604085013567ffffffffffffffff811115610ae757600080fd5b610af387828801610a17565b95989497509550505050565b80356001600160a01b0381168114610b1657600080fd5b919050565b60008060008060008060008060006101008a8c031215610b3a57600080fd5b8935985060208a01359750610b5160408b01610aff565b9650610b5f60608b01610aff565b9550610b6d60808b01610aff565b945060a08a0135935060c08a0135925060e08a013567ffffffffffffffff811115610b9757600080fd5b610ba38c828d01610a17565b915080935050809150509295985092959850929598565b600060208284031215610bcc57600080fd5b610bd582610aff565b9392505050565b634e487b7160e01b600052602160045260246000fdfea2646970667358221220a408c6807754ae2fdaea35810ce58f01d3b4ce5ea68470f1e11bae51ff780ba264736f6c634300081b0033",
  "linkReferences": {},
  "deployedLinkReferences": {}
}