{
  "_format": "hh-sol-artifact-1",
  "contractName": "OnestableSourceBridge",
  "sourceName": "contracts/src/OnestableSourceBridge.sol",
  "abi": [
    {
      "inputs": [],
      "stateMutability": "nonpayable",
      "type": "constructor"
    },
    {
      "inputs": [],
      "name": "AccessControlBadConfirmation",
      "type": "error"
    },
    {
      "inputs": [
        {
          "internalType": "address",
          "name": "account",
          "type": "address"
        },
        {
          "internalType": "bytes32",
          "name": "neededRole",
          "type": "bytes32"
        }
      ],
      "name": "AccessControlUnauthorizedAccount",
      "type": "error"
    },
    {
      "inputs": [
        {
          "internalType": "address",
          "name": "target",
          "type": "address"
        }
      ],
      "name": "AddressEmptyCode",
      "type": "error"
    },
    {
      "inputs": [
        {
          "internalType": "address",
          "name": "account",
          "type": "address"
        }
      ],
      "name": "AddressInsufficientBalance",
      "type": "error"
    },
    {
      "inputs": [],
      "name": "AlreadyProcessed",
      "type": "error"
    },
    {
      "inputs": [
        {
          "internalType": "bytes32",
          "name": "lockId",
          "type": "bytes32"
        }
      ],
      "name": "ConfirmLockNotAllowed",
      "type": "error"
    },
    {
      "inputs": [
        {
          "internalType": "address",
          "name": "implementation",
          "type": "address"
        }
      ],
      "name": "ERC1967InvalidImplementation",
      "type": "error"
    },
    {
      "inputs": [],
      "name": "ERC1967NonPayable",
      "type": "error"
    },
    {
      "inputs": [],
      "name": "EnforcedPause",
      "type": "error"
    },
    {
      "inputs": [],
      "name": "ExpectedPause",
      "type": "error"
    },
    {
      "inputs": [],
      "name": "FailedInnerCall",
      "type": "error"
    },
    {
      "inputs": [
        {
          "internalType": "uint256",
          "name": "available",
          "type": "uint256"
        },
        {
          "internalType": "uint256",
          "name": "required",
          "type": "uint256"
        }
      ],
      "name": "InsufficientLockedSupply",
      "type": "error"
    },
    {
      "inputs": [],
      "name": "InvalidAmount",
      "type": "error"
    },
    {
      "inputs": [
        {
          "internalType": "string",
          "name": "field",
          "type": "string"
        }
      ],
      "name": "InvalidChainId",
      "type": "error"
    },
    {
      "inputs": [],
      "name": "InvalidId",
      "type": "error"
    },
    {
      "inputs": [],
      "name": "InvalidInitialization",
      "type": "error"
    },
    {
      "inputs": [],
      "name": "NotInitializing",
      "type": "error"
    },
    {
      "inputs": [],
      "name": "ReentrancyGuardReentrantCall",
      "type": "error"
    },
    {
      "inputs": [
        {
          "internalType": "uint256",
          "name": "allowedChainId",
          "type": "uint256"
        },
        {
          "internalType": "uint256",
          "name": "srcChainId",
          "type": "uint256"
        }
      ],
      "name": "ReleaseNotAllowedFromSource",
      "type": "error"
    },
    {
      "inputs": [
        {
          "internalType": "address",
          "name": "allowedTokenAddress",
          "type": "address"
        },
        {
          "internalType": "address",
          "name": "srcTokenAddress",
          "type": "address"
        }
      ],
      "name": "ReleaseNotAllowedFromSourceToken",
      "type": "error"
    },
    {
      "inputs": [
        {
          "internalType": "uint256",
          "name": "current",
          "type": "uint256"
        },
        {
          "internalType": "uint256",
          "name": "maxConfirmationTimestamp",
          "type": "uint256"
        }
      ],
      "name": "RequestTimeout",
      "type": "error"
    },
    {
      "inputs": [
        {
          "internalType": "address",
          "name": "token",
          "type": "address"
        }
      ],
      "name": "RescueNotAllowed",
      "type": "error"
    },
    {
      "inputs": [
        {
          "internalType": "uint256",
          "name": "current",
          "type": "uint256"
        },
        {
          "internalType": "uint256",
          "name": "maxConfirmationTimestamp",
          "type": "uint256"
        }
      ],
      "name": "RevertLockedTokensTooEarly",
      "type": "error"
    },
    {
      "inputs": [
        {
          "internalType": "bytes32",
          "name": "lockId",
          "type": "bytes32"
        }
      ],
      "name": "RevertNotAllowed",
      "type": "error"
    },
    {
      "inputs": [
        {
          "internalType": "address",
          "name": "token",
          "type": "address"
        }
      ],
      "name": "SafeERC20FailedOperation",
      "type": "error"
    },
    {
      "inputs": [],
      "name": "UUPSUnauthorizedCallContext",
      "type": "error"
    },
    {
      "inputs": [
        {
          "internalType": "bytes32",
          "name": "slot",
          "type": "bytes32"
        }
      ],
      "name": "UUPSUnsupportedProxiableUUID",
      "type": "error"
    },
    {
      "inputs": [
        {
          "internalType": "string",
          "name": "field",
          "type": "string"
        }
      ],
      "name": "ZeroAddress",
      "type": "error"
    },
    {
      "anonymous": false,
      "inputs": [
        {
          "indexed": false,
          "internalType": "uint64",
          "name": "version",
          "type": "uint64"
        }
      ],
      "name": "Initialized",
      "type": "event"
    },
    {
      "anonymous": false,
      "inputs": [
        {
          "indexed": true,
          "internalType": "bytes32",
          "name": "lockId",
          "type": "bytes32"
        },
        {
          "indexed": true,
          "internalType": "bytes32",
          "name": "receipt",
          "type": "bytes32"
        }
      ],
      "name": "LockConfirmed",
      "type": "event"
    },
    {
      "anonymous": false,
      "inputs": [
        {
          "indexed": false,
          "internalType": "address",
          "name": "account",
          "type": "address"
        }
      ],
      "name": "Paused",
      "type": "event"
    },
    {
      "anonymous": false,
      "inputs": [
        {
          "indexed": true,
          "internalType": "bytes32",
          "name": "lockId",
          "type": "bytes32"
        },
        {
          "indexed": true,
          "internalType": "address",
          "name": "recipient",
          "type": "address"
        },
        {
          "indexed": false,
          "internalType": "uint256",
          "name": "amount",
          "type": "uint256"
        }
      ],
      "name": "RevertedLockedTokens",
      "type": "event"
    },
    {
      "anonymous": false,
      "inputs": [
        {
          "indexed": true,
          "internalType": "bytes32",
          "name": "role",
          "type": "bytes32"
        },
        {
          "indexed": true,
          "internalType": "bytes32",
          "name": "previousAdminRole",
          "type": "bytes32"
        },
        {
          "indexed": true,
          "internalType": "bytes32",
          "name": "newAdminRole",
          "type": "bytes32"
        }
      ],
      "name": "RoleAdminChanged",
      "type": "event"
    },
    {
      "anonymous": false,
      "inputs": [
        {
          "indexed": true,
          "internalType": "bytes32",
          "name": "role",
          "type": "bytes32"
        },
        {
          "indexed": true,
          "internalType": "address",
          "name": "account",
          "type": "address"
        },
        {
          "indexed": true,
          "internalType": "address",
          "name": "sender",
          "type": "address"
        }
      ],
      "name": "RoleGranted",
      "type": "event"
    },
    {
      "anonymous": false,
      "inputs": [
        {
          "indexed": true,
          "internalType": "bytes32",
          "name": "role",
          "type": "bytes32"
        },
        {
          "indexed": true,
          "internalType": "address",
          "name": "account",
          "type": "address"
        },
        {
          "indexed": true,
          "internalType": "address",
          "name": "sender",
          "type": "address"
        }
      ],
      "name": "RoleRevoked",
      "type": "event"
    },
    {
      "anonymous": false,
      "inputs": [
        {
          "indexed": true,
          "internalType": "bytes32",
          "name": "lockId",
          "type": "bytes32"
        },
        {
          "indexed": true,
          "internalType": "address",
          "name": "sender",
          "type": "address"
        },
        {
          "indexed": true,
          "internalType": "address",
          "name": "recipient",
          "type": "address"
        },
        {
          "indexed": false,
          "internalType": "uint256",
          "name": "amount",
          "type": "uint256"
        },
        {
          "indexed": false,
          "internalType": "address",
          "name": "token",
          "type": "address"
        },
        {
          "indexed": false,
          "internalType": "uint256",
          "name": "maxConfirmationTimestamp",
          "type": "uint256"
        },
        {
          "indexed": false,
          "internalType": "uint256",
          "name": "destChainId",
          "type": "uint256"
        },
        {
          "indexed": false,
          "internalType": "address",
          "name": "destTokenAddress",
          "type": "address"
        }
      ],
      "name": "TokensLocked",
      "type": "event"
    },
    {
      "anonymous": false,
      "inputs": [
        {
          "indexed": true,
          "internalType": "bytes32",
          "name": "burnId",
          "type": "bytes32"
        },
        {
          "indexed": true,
          "internalType": "address",
          "name": "sender",
          "type": "address"
        },
        {
          "indexed": true,
          "internalType": "address",
          "name": "recipient",
          "type": "address"
        },
        {
          "indexed": false,
          "internalType": "uint256",
          "name": "amount",
          "type": "uint256"
        },
        {
          "indexed": false,
          "internalType": "uint256",
          "name": "srcChainId",
          "type": "uint256"
        },
        {
          "indexed": false,
          "internalType": "address",
          "name": "srcTokenAddress",
          "type": "address"
        }
      ],
      "name": "TokensReleased",
      "type": "event"
    },
    {
      "anonymous": false,
      "inputs": [
        {
          "indexed": false,
          "internalType": "address",
          "name": "account",
          "type": "address"
        }
      ],
      "name": "Unpaused",
      "type": "event"
    },
    {
      "anonymous": false,
      "inputs": [
        {
          "indexed": true,
          "internalType": "address",
          "name": "implementation",
          "type": "address"
        }
      ],
      "name": "Upgraded",
      "type": "event"
    },
    {
      "inputs": [],
      "name": "DEFAULT_ADMIN_ROLE",
      "outputs": [
        {
          "internalType": "bytes32",
          "name": "",
          "type": "bytes32"
        }
      ],
      "stateMutability": "view",
      "type": "function"
    },
    {
      "inputs": [],
      "name": "MESSAGE_ADAPTER_ROLE",
      "outputs": [
        {
          "internalType": "bytes32",
          "name": "",
          "type": "bytes32"
        }
      ],
      "stateMutability": "view",
      "type": "function"
    },
    {
      "inputs": [],
      "name": "PAUSER_ROLE",
      "outputs": [
        {
          "internalType": "bytes32",
          "name": "",
          "type": "bytes32"
        }
      ],
      "stateMutability": "view",
      "type": "function"
    },
    {
      "inputs": [],
      "name": "UPGRADER_ROLE",
      "outputs": [
        {
          "internalType": "bytes32",
          "name": "",
          "type": "bytes32"
        }
      ],
      "stateMutability": "view",
      "type": "function"
    },
    {
      "inputs": [],
      "name": "UPGRADE_INTERFACE_VERSION",
      "outputs": [
        {
          "internalType": "string",
          "name": "",
          "type": "string"
        }
      ],
      "stateMutability": "view",
      "type": "function"
    },
    {
      "inputs": [
        {
          "internalType": "bytes32",
          "name": "lockId",
          "type": "bytes32"
        },
        {
          "internalType": "bytes32",
          "name": "receipt",
          "type": "bytes32"
        }
      ],
      "name": "confirmLock",
      "outputs": [],
      "stateMutability": "nonpayable",
      "type": "function"
    },
    {
      "inputs": [
        {
          "internalType": "bytes32",
          "name": "",
          "type": "bytes32"
        }
      ],
      "name": "confirmedLockReceipts",
      "outputs": [
        {
          "internalType": "bytes32",
          "name": "",
          "type": "bytes32"
        }
      ],
      "stateMutability": "view",
      "type": "function"
    },
    {
      "inputs": [],
      "name": "destChainId",
      "outputs": [
        {
          "internalType": "uint256",
          "name": "",
          "type": "uint256"
        }
      ],
      "stateMutability": "view",
      "type": "function"
    },
    {
      "inputs": [],
      "name": "destTokenAddress",
      "outputs": [
        {
          "internalType": "address",
          "name": "",
          "type": "address"
        }
      ],
      "stateMutability": "view",
      "type": "function"
    },
    {
      "inputs": [],
      "name": "getExcessTokens",
      "outputs": [
        {
          "internalType": "uint256",
          "name": "",
          "type": "uint256"
        }
      ],
      "stateMutability": "view",
      "type": "function"
    },
    {
      "inputs": [
        {
          "internalType": "bytes32",
          "name": "role",
          "type": "bytes32"
        }
      ],
      "name": "getRoleAdmin",
      "outputs": [
        {
          "internalType": "bytes32",
          "name": "",
          "type": "bytes32"
        }
      ],
      "stateMutability": "view",
      "type": "function"
    },
    {
      "inputs": [
        {
          "internalType": "bytes32",
          "name": "role",
          "type": "bytes32"
        },
        {
          "internalType": "address",
          "name": "account",
          "type": "address"
        }
      ],
      "name": "grantRole",
      "outputs": [],
      "stateMutability": "nonpayable",
      "type": "function"
    },
    {
      "inputs": [
        {
          "internalType": "bytes32",
          "name": "role",
          "type": "bytes32"
        },
        {
          "internalType": "address",
          "name": "account",
          "type": "address"
        }
      ],
      "name": "hasRole",
      "outputs": [
        {
          "internalType": "bool",
          "name": "",
          "type": "bool"
        }
      ],
      "stateMutability": "view",
      "type": "function"
    },
    {
      "inputs": [
        {
          "internalType": "contract IERC20",
          "name": "_token",
          "type": "address"
        },
        {
          "internalType": "uint256",
          "name": "_destChainId",
          "type": "uint256"
        },
        {
          "internalType": "address",
          "name": "_destTokenAddress",
          "type": "address"
        },
        {
          "internalType": "uint256",
          "name": "_maxConfirmationPeriod",
          "type": "uint256"
        },
        {
          "internalType": "address",
          "name": "_defaultAdmin",
          "type": "address"
        },
        {
          "internalType": "address",
          "name": "_pauser",
          "type": "address"
        },
        {
          "internalType": "address",
          "name": "_upgrader",
          "type": "address"
        }
      ],
      "name": "initialize",
      "outputs": [],
      "stateMutability": "nonpayable",
      "type": "function"
    },
    {
      "inputs": [
        {
          "internalType": "bytes32",
          "name": "",
          "type": "bytes32"
        }
      ],
      "name": "isLockReverted",
      "outputs": [
        {
          "internalType": "bool",
          "name": "",
          "type": "bool"
        }
      ],
      "stateMutability": "view",
      "type": "function"
    },
    {
      "inputs": [
        {
          "internalType": "bytes32",
          "name": "",
          "type": "bytes32"
        }
      ],
      "name": "lockRecords",
      "outputs": [
        {
          "internalType": "address",
          "name": "sender",
          "type": "address"
        },
        {
          "internalType": "address",
          "name": "recipient",
          "type": "address"
        },
        {
          "internalType": "uint256",
          "name": "amount",
          "type": "uint256"
        },
        {
          "internalType": "uint256",
          "name": "destChainId",
          "type": "uint256"
        },
        {
          "internalType": "address",
          "name": "destTokenAddress",
          "type": "address"
        },
        {
          "internalType": "uint256",
          "name": "maxConfirmationTimestamp",
          "type": "uint256"
        },
        {
          "internalType": "uint256",
          "name": "nonce",
          "type": "uint256"
        }
      ],
      "stateMutability": "view",
      "type": "function"
    },
    {
      "inputs": [
        {
          "internalType": "address",
          "name": "recipient",
          "type": "address"
        },
        {
          "internalType": "uint256",
          "name": "amount",
          "type": "uint256"
        }
      ],
      "name": "lockTokens",
      "outputs": [],
      "stateMutability": "nonpayable",
      "type": "function"
    },
    {
      "inputs": [],
      "name": "maxConfirmationPeriod",
      "outputs": [
        {
          "internalType": "uint256",
          "name": "",
          "type": "uint256"
        }
      ],
      "stateMutability": "view",
      "type": "function"
    },
    {
      "inputs": [],
      "name": "pause",
      "outputs": [],
      "stateMutability": "nonpayable",
      "type": "function"
    },
    {
      "inputs": [],
      "name": "paused",
      "outputs": [
        {
          "internalType": "bool",
          "name": "",
          "type": "bool"
        }
      ],
      "stateMutability": "view",
      "type": "function"
    },
    {
      "inputs": [
        {
          "internalType": "bytes32",
          "name": "",
          "type": "bytes32"
        }
      ],
      "name": "processedReleases",
      "outputs": [
        {
          "internalType": "bool",
          "name": "",
          "type": "bool"
        }
      ],
      "stateMutability": "view",
      "type": "function"
    },
    {
      "inputs": [],
      "name": "proxiableUUID",
      "outputs": [
        {
          "internalType": "bytes32",
          "name": "",
          "type": "bytes32"
        }
      ],
      "stateMutability": "view",
      "type": "function"
    },
    {
      "inputs": [
        {
          "internalType": "address",
          "name": "to",
          "type": "address"
        }
      ],
      "name": "recoverExcessTokens",
      "outputs": [],
      "stateMutability": "nonpayable",
      "type": "function"
    },
    {
      "inputs": [
        {
          "internalType": "bytes32",
          "name": "burnId",
          "type": "bytes32"
        },
        {
          "internalType": "uint256",
          "name": "srcChainId",
          "type": "uint256"
        },
        {
          "internalType": "address",
          "name": "srcTokenAddress",
          "type": "address"
        },
        {
          "internalType": "address",
          "name": "sender",
          "type": "address"
        },
        {
          "internalType": "address",
          "name": "recipient",
          "type": "address"
        },
        {
          "internalType": "uint256",
          "name": "amount",
          "type": "uint256"
        },
        {
          "internalType": "uint256",
          "name": "maxConfirmationTimestamp",
          "type": "uint256"
        }
      ],
      "name": "releaseTokens",
      "outputs": [],
      "stateMutability": "nonpayable",
      "type": "function"
    },
    {
      "inputs": [
        {
          "internalType": "bytes32",
          "name": "role",
          "type": "bytes32"
        },
        {
          "internalType": "address",
          "name": "callerConfirmation",
          "type": "address"
        }
      ],
      "name": "renounceRole",
      "outputs": [],
      "stateMutability": "nonpayable",
      "type": "function"
    },
    {
      "inputs": [
        {
          "internalType": "contract IERC20",
          "name": "tokenContract",
          "type": "address"
        },
        {
          "internalType": "address",
          "name": "to",
          "type": "address"
        },
        {
          "internalType": "uint256",
          "name": "amount",
          "type": "uint256"
        }
      ],
      "name": "rescueERC20",
      "outputs": [],
      "stateMutability": "nonpayable",
      "type": "function"
    },
    {
      "inputs": [
        {
          "internalType": "bytes32",
          "name": "lockId",
          "type": "bytes32"
        }
      ],
      "name": "revertLockedTokens",
      "outputs": [],
      "stateMutability": "nonpayable",
      "type": "function"
    },
    {
      "inputs": [
        {
          "internalType": "bytes32",
          "name": "role",
          "type": "bytes32"
        },
        {
          "internalType": "address",
          "name": "account",
          "type": "address"
        }
      ],
      "name": "revokeRole",
      "outputs": [],
      "stateMutability": "nonpayable",
      "type": "function"
    },
    {
      "inputs": [
        {
          "internalType": "uint256",
          "name": "_maxPeriod",
          "type": "uint256"
        }
      ],
      "name": "setMaxConfirmationPeriod",
      "outputs": [],
      "stateMutability": "nonpayable",
      "type": "function"
    },
    {
      "inputs": [
        {
          "internalType": "address",
          "name": "adapter",
          "type": "address"
        },
        {
          "internalType": "bool",
          "name": "enabled",
          "type": "bool"
        }
      ],
      "name": "setMessageAdapter",
      "outputs": [],
      "stateMutability": "nonpayable",
      "type": "function"
    },
    {
      "inputs": [
        {
          "internalType": "bytes4",
          "name": "interfaceId",
          "type": "bytes4"
        }
      ],
      "name": "supportsInterface",
      "outputs": [
        {
          "internalType": "bool",
          "name": "",
          "type": "bool"
        }
      ],
      "stateMutability": "view",
      "type": "function"
    },
    {
      "inputs": [],
      "name": "token",
      "outputs": [
        {
          "internalType": "contract IERC20",
          "name": "",
          "type": "address"
        }
      ],
      "stateMutability": "view",
      "type": "function"
    },
    {
      "inputs": [],
      "name": "totalLockedSupply",
      "outputs": [
        {
          "internalType": "uint256",
          "name": "",
          "type": "uint256"
        }
      ],
      "stateMutability": "view",
      "type": "function"
    },
    {
      "inputs": [],
      "name": "unpause",
      "outputs": [],
      "stateMutability": "nonpayable",
      "type": "function"
    },
    {
      "inputs": [
        {
          "internalType": "address",
          "name": "newImplementation",
          "type": "address"
        },
        {
          "internalType": "bytes",
          "name": "data",
          "type": "bytes"
        }
      ],
      "name": "upgradeToAndCall",
      "outputs": [],
      "stateMutability": "payable",
      "type": "function"
    },
    {
      "inputs": [],
      "name": "verifyParity",
      "outputs": [
        {
          "internalType": "bool",
          "name": "",
          "type": "bool"
        }
      ],
      "stateMutability": "view",
      "type": "function"
    }
  ],
  "bytecode": "0x60a06040523060805234801561001457600080fd5b5061001d610022565b6100d4565b7ff0c57e16840df040f15088dc2f81fe391c3923bec73e23a9662efc9c229c6a00805468010000000000000000900460ff16156100725760405163f92ee8a960e01b815260040160405180910390fd5b80546001600160401b03908116146100d15780546001600160401b0319166001600160401b0390811782556040519081527fc7f505b2f371ae2175ee4913f4499e1f2633a7b5936321eed1cdaeb6115181d29060200160405180910390a15b50565b6080516125f76100fd600039600081816119be015281816119e70152611b4c01526125f76000f3fe60806040526004361061020f5760003560e01c8063a217fddf11610118578063d547741f116100a0578063ed8e904c1161006f578063ed8e904c14610688578063f1cee4a3146106a8578063f5f99be7146106d5578063f72c0d8b14610705578063fc0c546a1461073957600080fd5b8063d547741f14610611578063e267b71114610631578063e63ab1e914610651578063eaa18f271461067357600080fd5b8063b07d2213116100e7578063b07d221314610579578063b1c255861461059b578063b2118a8d146105bb578063bf631210146105db578063c4af1c0b146105fb57600080fd5b8063a217fddf146104d6578063a97a4212146104eb578063ad3cb1cc1461050b578063ad9e86891461054957600080fd5b80635c975abb1161019b5780638001a11a1161016a5780638001a11a146103a65780638456cb59146103bc578063895ca155146103d157806391d14854146104095780639f0003241461042957600080fd5b80635c975abb146103215780636bb1af4314610346578063736d2ecb1461036657806373e9730f1461038657600080fd5b80632f2ff15d116101e25780632f2ff15d146102a257806336568abe146102c45780633f4ba83a146102e45780634f1ef286146102f957806352d1902d1461030c57600080fd5b806301ffc9a71461021457806316a0ea3c146102495780631b79c8391461026d578063248a9ca314610282575b600080fd5b34801561022057600080fd5b5061023461022f3660046120d5565b610759565b60405190151581526020015b60405180910390f35b34801561025557600080fd5b5061025f60025481565b604051908152602001610240565b34801561027957600080fd5b50610234610790565b34801561028e57600080fd5b5061025f61029d3660046120ff565b610807565b3480156102ae57600080fd5b506102c26102bd36600461212d565b610829565b005b3480156102d057600080fd5b506102c26102df36600461212d565b61084b565b3480156102f057600080fd5b506102c2610883565b6102c2610307366004612173565b6108a6565b34801561031857600080fd5b5061025f6108c5565b34801561032d57600080fd5b506000805160206125828339815191525460ff16610234565b34801561035257600080fd5b506102c261036136600461223f565b6108e2565b34801561037257600080fd5b506102c26103813660046122b0565b610bec565b34801561039257600080fd5b506102c26103a13660046122cd565b610c5c565b3480156103b257600080fd5b5061025f60055481565b3480156103c857600080fd5b506102c2610fb2565b3480156103dd57600080fd5b506004546103f1906001600160a01b031681565b6040516001600160a01b039091168152602001610240565b34801561041557600080fd5b5061023461042436600461212d565b610fd2565b34801561043557600080fd5b5061048f6104443660046120ff565b60076020526000908152604090208054600182015460028301546003840154600485015460058601546006909601546001600160a01b03958616969486169593949293909116919087565b604080516001600160a01b03988916815296881660208801528601949094526060850192909252909316608083015260a082019290925260c081019190915260e001610240565b3480156104e257600080fd5b5061025f600081565b3480156104f757600080fd5b506102c261050636600461235f565b61100a565b34801561051757600080fd5b5061053c604051806040016040528060058152602001640352e302e360dc1b81525081565b60405161024091906123b1565b34801561055557600080fd5b506102346105643660046120ff565b60096020526000908152604090205460ff1681565b34801561058557600080fd5b5061025f60008051602061250283398151915281565b3480156105a757600080fd5b506102c26105b63660046123e4565b61108c565b3480156105c757600080fd5b506102c26105d6366004612410565b611348565b3480156105e757600080fd5b506102c26105f6366004612451565b6113fe565b34801561060757600080fd5b5061025f60035481565b34801561061d57600080fd5b506102c261062c36600461212d565b611565565b34801561063d57600080fd5b506102c261064c3660046120ff565b611581565b34801561065d57600080fd5b5061025f60008051602061254283398151915281565b34801561067f57600080fd5b5061025f611592565b34801561069457600080fd5b506102c26106a33660046120ff565b611628565b3480156106b457600080fd5b5061025f6106c33660046120ff565b60086020526000908152604090205481565b3480156106e157600080fd5b506102346106f03660046120ff565b60066020526000908152604090205460ff1681565b34801561071157600080fd5b5061025f7f189ab7a9244df0848122154315af71fe140f3db0fe014031783b0946b8c9d2e381565b34801561074557600080fd5b506001546103f1906001600160a01b031681565b60006001600160e01b03198216637965db0b60e01b148061078a57506301ffc9a760e01b6001600160e01b03198316145b92915050565b6002546001546040516370a0823160e01b8152306004820152600092916001600160a01b0316906370a0823190602401602060405180830381865afa1580156107dd573d6000803e3d6000fd5b505050506040513d601f19601f820116820180604052508101906108019190612473565b14905090565b6000908152600080516020612562833981519152602052604090206001015490565b61083282610807565b61083b81611828565b6108458383611832565b50505050565b6001600160a01b03811633146108745760405163334bd91960e11b815260040160405180910390fd5b61087e82826118d7565b505050565b60008051602061254283398151915261089b81611828565b6108a3611953565b50565b6108ae6119b3565b6108b782611a5a565b6108c18282611a84565b5050565b60006108cf611b41565b5060008051602061252283398151915290565b6108ea611b8a565b6108f2611bbb565b60008051602061250283398151915261090a81611828565b8660000361094d576040516305c57e8360e01b815260206004820152600a6024820152691cdc98d0da185a5b925960b21b60448201526064015b60405180910390fd5b6001600160a01b0386166109965760405163eac0d38960e01b815260206004820152600f60248201526e737263546f6b656e4164647265737360881b6044820152606401610944565b876109b457604051631bf4348160e31b815260040160405180910390fd5b6001600160a01b0384166109f75760405163eac0d38960e01b81526020600482015260096024820152681c9958da5c1a595b9d60ba1b6044820152606401610944565b82600003610a185760405163162908e360e11b815260040160405180910390fd5b42821015610a425760405163309c39e560e11b815242600482015260248101839052604401610944565b60008881526006602052604090205460ff1615610a7257604051632bf773b360e11b815260040160405180910390fd5b6003548714610aa25760035460405163dda3dccf60e01b8152600481019190915260248101889052604401610944565b6004546001600160a01b03878116911614610ae9576004805460405163fe5a2cd360e01b81526001600160a01b039182169281019290925287166024820152604401610944565b826002541015610b1a5760025460405163827334ef60e01b8152600481019190915260248101849052604401610944565b6000888152600660205260408120805460ff1916600117905560028054859290610b459084906124a2565b9091555050600154610b61906001600160a01b03168585611bf3565b836001600160a01b0316856001600160a01b0316897f333360d5d1fceb5fbab45c7faa6c254a8e64bb4b7d1aca50c2c5d362b7949c9f868b8b604051610bc39392919092835260208301919091526001600160a01b0316604082015260600190565b60405180910390a450610be360016000805160206125a283398151915255565b50505050505050565b6000610bf781611828565b6001600160a01b038216610c335760405163eac0d38960e01b8152602060048201526002602482015261746f60f01b6044820152606401610944565b6000610c3d611592565b9050801561087e5760015461087e906001600160a01b03168483611bf3565b7ff0c57e16840df040f15088dc2f81fe391c3923bec73e23a9662efc9c229c6a008054600160401b810460ff16159067ffffffffffffffff16600081158015610ca25750825b905060008267ffffffffffffffff166001148015610cbf5750303b155b905081158015610ccd575080155b15610ceb5760405163f92ee8a960e01b815260040160405180910390fd5b845467ffffffffffffffff191660011785558315610d1557845460ff60401b1916600160401b1785555b6001600160a01b038c16610d555760405163eac0d38960e01b81526020600482015260066024820152652fba37b5b2b760d11b6044820152606401610944565b8a1580610d615750468b145b15610d9e576040516305c57e8360e01b815260206004820152600c60248201526b17d9195cdd10da185a5b925960a21b6044820152606401610944565b6001600160a01b038a16610de95760405163eac0d38960e01b81526020600482015260116024820152705f64657374546f6b656e4164647265737360781b6044820152606401610944565b6001600160a01b038816610e305760405163eac0d38960e01b815260206004820152600d60248201526c2fb232b330bab63a20b236b4b760991b6044820152606401610944565b6001600160a01b038716610e715760405163eac0d38960e01b81526020600482015260076024820152662fb830bab9b2b960c91b6044820152606401610944565b6001600160a01b038616610eb45760405163eac0d38960e01b81526020600482015260096024820152682fbab833b930b232b960b91b6044820152606401610944565b610ebc611c66565b610ec4611c76565b610ecc611c86565b610ed4611c86565b610edf600089611832565b50610ef860008051602061254283398151915288611832565b50610f237f189ab7a9244df0848122154315af71fe140f3db0fe014031783b0946b8c9d2e387611832565b50600180546001600160a01b03808f166001600160a01b03199283161790925560038d905560048054928d169290911691909117905560058990558315610fa457845460ff60401b19168555604051600181527fc7f505b2f371ae2175ee4913f4499e1f2633a7b5936321eed1cdaeb6115181d29060200160405180910390a15b505050505050505050505050565b600080516020612542833981519152610fca81611828565b6108a3611c8e565b6000918252600080516020612562833981519152602090815260408084206001600160a01b0393909316845291905290205460ff1690565b600061101581611828565b6001600160a01b0383166110565760405163eac0d38960e01b815260206004820152600760248201526630b230b83a32b960c91b6044820152606401610944565b81156110745761084560008051602061250283398151915284611832565b610845600080516020612502833981519152846118d7565b611094611bbb565b61109c611b8a565b806000036110bd5760405163162908e360e11b815260040160405180910390fd5b6001600160a01b0382166111005760405163eac0d38960e01b81526020600482015260096024820152681c9958da5c1a595b9d60ba1b6044820152606401610944565b600160008082825461111291906124b5565b92505081905550806002600082825461112b91906124b5565b90915550506040805160e0810182523381526001600160a01b038481166020830152918101839052600354606082015260045490911660808201526005546000919060a082019061117c90426124b5565b81526020016000548152509050600061121c828051602080830151604080850151606080870151608088015160a089015160c08a0151955198841b6bffffffffffffffffffffffff19908116988a019890985295831b87166034890152604888019390935260688701521b9092166088840152609c83015260bc82015260009060dc01604051602081830303815290604052805190602001209050919050565b600081815260076020908152604091829020855181546001600160a01b03199081166001600160a01b0392831617835592870151600180840180548616928416929092179091559387015160028301556060870151600383015560808701516004830180549094169082161790925560a0860151600582015560c086015160069091015590549192506112b29116333086611cd7565b602082810151835160408086015160015460a08089015160035460045486519586526001600160a01b03948516998601999099529484015260608301939093529485166080820152928416939091169184917f57b21a3a553eda1e5dde8e929c993cd7f331f24b198618ad3fb29cca0ba5557a910160405180910390a450506108c160016000805160206125a283398151915255565b600061135381611828565b6001600160a01b03831661138f5760405163eac0d38960e01b8152602060048201526002602482015261746f60f01b6044820152606401610944565b816000036113b05760405163162908e360e11b815260040160405180910390fd5b6001546001600160a01b03908116908516036113ea5760405163626baaad60e01b81526001600160a01b0385166004820152602401610944565b6108456001600160a01b0385168484611bf3565b611406611bbb565b61140e611b8a565b60008051602061250283398151915261142681611828565b600083815260076020908152604091829020825160e08101845281546001600160a01b0390811680835260018401548216948301949094526002830154948201949094526003820154606082015260048201549093166080840152600581015460a08401526006015460c08301526114b157604051631bf4348160e31b815260040160405180910390fd5b60008481526009602052604090205460ff16156114e45760405163fe3139b160e01b815260048101859052602401610944565b6000848152600860205260409020541561151157604051632bf773b360e11b815260040160405180910390fd5b60008481526008602052604080822085905551849186917f2832b73a947b4913feb2ec1720cb96b41d7522fabd0b92df94ceb257285e1bf79190a350506108c160016000805160206125a283398151915255565b61156e82610807565b61157781611828565b61084583836118d7565b600061158c81611828565b50600555565b6001546040516370a0823160e01b815230600482015260009182916001600160a01b03909116906370a0823190602401602060405180830381865afa1580156115df573d6000803e3d6000fd5b505050506040513d601f19601f820116820180604052508101906116039190612473565b90506002548111611615576000611622565b60025461162290826124a2565b91505090565b611630611bbb565b611638611b8a565b60008051602061250283398151915261165081611828565b600082815260076020908152604091829020825160e08101845281546001600160a01b0390811680835260018401548216948301949094526002830154948201949094526003820154606082015260048201549093166080840152600581015460a08401526006015460c08301526116db57604051631bf4348160e31b815260040160405180910390fd5b8060a0015142101561170f5760a081015160405163445f143560e01b81524260048201526024810191909152604401610944565b6000838152600860205260409020541561173f57604051635854482960e01b815260048101849052602401610944565b60008381526009602052604090205460ff161561176f57604051632bf773b360e11b815260040160405180910390fd5b600083815260096020526040808220805460ff19166001179055820151600280549192909161179f9084906124a2565b9091555050805160408201516001546117c3926001600160a01b0390911691611bf3565b80600001516001600160a01b0316837f8af0f5e484e4b613b0595903cafa379b177fb1378ee26f621ce6ac95f6f068bc836040015160405161180791815260200190565b60405180910390a350506108a360016000805160206125a283398151915255565b6108a38133611d10565b600060008051602061256283398151915261184d8484610fd2565b6118cd576000848152602082815260408083206001600160a01b03871684529091529020805460ff191660011790556118833390565b6001600160a01b0316836001600160a01b0316857f2f8788117e7eff1d82e926ec794901d17c78024a50270940304540a733656f0d60405160405180910390a4600191505061078a565b600091505061078a565b60006000805160206125628339815191526118f28484610fd2565b156118cd576000848152602082815260408083206001600160a01b0387168085529252808320805460ff1916905551339287917ff6391f5c32d9c69d2a47ea670b442974b53935d1edc7fd64eb21e047a839171b9190a4600191505061078a565b61195b611d49565b600080516020612582833981519152805460ff191681557f5db9ee0a495bf2e6ff9c91a7834c1ba4fdd244a5e8aa4e537bd38aeae4b073aa335b6040516001600160a01b03909116815260200160405180910390a150565b306001600160a01b037f0000000000000000000000000000000000000000000000000000000000000000161480611a3a57507f00000000000000000000000000000000000000000000000000000000000000006001600160a01b0316611a2e600080516020612522833981519152546001600160a01b031690565b6001600160a01b031614155b15611a585760405163703e46dd60e11b815260040160405180910390fd5b565b7f189ab7a9244df0848122154315af71fe140f3db0fe014031783b0946b8c9d2e36108c181611828565b816001600160a01b03166352d1902d6040518163ffffffff1660e01b8152600401602060405180830381865afa925050508015611ade575060408051601f3d908101601f19168201909252611adb91810190612473565b60015b611b0657604051634c9c8ce360e01b81526001600160a01b0383166004820152602401610944565b6000805160206125228339815191528114611b3757604051632a87526960e21b815260048101829052602401610944565b61087e8383611d79565b306001600160a01b037f00000000000000000000000000000000000000000000000000000000000000001614611a585760405163703e46dd60e11b815260040160405180910390fd5b6000805160206125828339815191525460ff1615611a585760405163d93c066560e01b815260040160405180910390fd5b6000805160206125a2833981519152805460011901611bed57604051633ee5aeb560e01b815260040160405180910390fd5b60029055565b6040516001600160a01b0383811660248301526044820183905261087e91859182169063a9059cbb906064015b604051602081830303815290604052915060e01b6020820180516001600160e01b038381831617835250505050611dcf565b60016000805160206125a283398151915255565b611c6e611e32565b611a58611e7b565b611c7e611e32565b611a58611e9c565b611a58611e32565b611c96611b8a565b600080516020612582833981519152805460ff191660011781557f62e78cea01bee320cd4e420270b5ea74000d11b0c9f74754ebdbfc544b05a25833611995565b6040516001600160a01b0384811660248301528381166044830152606482018390526108459186918216906323b872dd90608401611c20565b611d1a8282610fd2565b6108c15760405163e2517d3f60e01b81526001600160a01b038216600482015260248101839052604401610944565b6000805160206125828339815191525460ff16611a5857604051638dfc202b60e01b815260040160405180910390fd5b611d8282611ea4565b6040516001600160a01b038316907fbc7cd75a20ee27fd9adebab32041f755214dbc6bffa90cc0225b39da2e5c2d3b90600090a2805115611dc75761087e8282611f09565b6108c1611f7f565b6000611de46001600160a01b03841683611f9e565b90508051600014158015611e09575080806020019051810190611e0791906124c8565b155b1561087e57604051635274afe760e01b81526001600160a01b0384166004820152602401610944565b7ff0c57e16840df040f15088dc2f81fe391c3923bec73e23a9662efc9c229c6a0054600160401b900460ff16611a5857604051631afcd79f60e31b815260040160405180910390fd5b611e83611e32565b600080516020612582833981519152805460ff19169055565b611c52611e32565b806001600160a01b03163b600003611eda57604051634c9c8ce360e01b81526001600160a01b0382166004820152602401610944565b60008051602061252283398151915280546001600160a01b0319166001600160a01b0392909216919091179055565b6060600080846001600160a01b031684604051611f2691906124e5565b600060405180830381855af49150503d8060008114611f61576040519150601f19603f3d011682016040523d82523d6000602084013e611f66565b606091505b5091509150611f76858383611fb3565b95945050505050565b3415611a585760405163b398979f60e01b815260040160405180910390fd5b6060611fac8383600061200f565b9392505050565b606082611fc857611fc3826120ac565b611fac565b8151158015611fdf57506001600160a01b0384163b155b1561200857604051639996b31560e01b81526001600160a01b0385166004820152602401610944565b5092915050565b6060814710156120345760405163cd78605960e01b8152306004820152602401610944565b600080856001600160a01b0316848660405161205091906124e5565b60006040518083038185875af1925050503d806000811461208d576040519150601f19603f3d011682016040523d82523d6000602084013e612092565b606091505b50915091506120a2868383611fb3565b9695505050505050565b8051156120bc5780518082602001fd5b604051630a12f52160e11b815260040160405180910390fd5b6000602082840312156120e757600080fd5b81356001600160e01b031981168114611fac57600080fd5b60006020828403121561211157600080fd5b5035919050565b6001600160a01b03811681146108a357600080fd5b6000806040838503121561214057600080fd5b82359150602083013561215281612118565b809150509250929050565b634e487b7160e01b600052604160045260246000fd5b6000806040838503121561218657600080fd5b823561219181612118565b9150602083013567ffffffffffffffff8111156121ad57600080fd5b8301601f810185136121be57600080fd5b803567ffffffffffffffff8111156121d8576121d861215d565b604051601f8201601f19908116603f0116810167ffffffffffffffff811182821017156122075761220761215d565b60405281815282820160200187101561221f57600080fd5b816020840160208301376000602083830101528093505050509250929050565b600080600080600080600060e0888a03121561225a57600080fd5b8735965060208801359550604088013561227381612118565b9450606088013561228381612118565b9350608088013561229381612118565b9699959850939692959460a0840135945060c09093013592915050565b6000602082840312156122c257600080fd5b8135611fac81612118565b600080600080600080600060e0888a0312156122e857600080fd5b87356122f381612118565b965060208801359550604088013561230a81612118565b945060608801359350608088013561232181612118565b925060a088013561233181612118565b915060c088013561234181612118565b8091505092959891949750929550565b80151581146108a357600080fd5b6000806040838503121561237257600080fd5b823561237d81612118565b9150602083013561215281612351565b60005b838110156123a8578181015183820152602001612390565b50506000910152565b60208152600082518060208401526123d081604085016020870161238d565b601f01601f19169190910160400192915050565b600080604083850312156123f757600080fd5b823561240281612118565b946020939093013593505050565b60008060006060848603121561242557600080fd5b833561243081612118565b9250602084013561244081612118565b929592945050506040919091013590565b6000806040838503121561246457600080fd5b50508035926020909101359150565b60006020828403121561248557600080fd5b5051919050565b634e487b7160e01b600052601160045260246000fd5b8181038181111561078a5761078a61248c565b8082018082111561078a5761078a61248c565b6000602082840312156124da57600080fd5b8151611fac81612351565b600082516124f781846020870161238d565b919091019291505056fea1e2c127643b05ddd4b2a9035efb97eaf74237c1e00561fe90b272f75f614f2a360894a13ba1a3210667c828492db98dca3e2076cc3735a920a3ca505d382bbc65d7a28e3265b37a6474929f336521b332c1681b933f6cb9f3376673440d862a02dd7bc7dec4dceedda775e58dd541e08a116c6c53815c0bd028192f7b626800cd5ed15c6e187e77e9aee88184c21f4f2182ab5827cb3b7e07fbedcd63f033009b779b17422d0df92223018b32b4d1fa46e071723d6817e2486d003becc55f00a264697066735822122052a4097436f5b45955763c570bce39bc9f5f59b38ab1aad9da2c3d895973b7a964736f6c634300081b0033",
  "linkReferences": {},
  "deployedLinkReferences": {}
}