{
  "_format": "hh-sol-artifact-1",
  "contractName": "OnestableDestinationRelayerAdapter",
  "sourceName": "contracts/dest/OnestableDestinationRelayerAdapter.sol",
  "abi": [
    {
      "inputs": [
        {
          "internalType": "address",
          "name": "_owner",
          "type": "address"
        },
        {
          "internalType": "address",
          "name": "_authorizedSigner",
          "type": "address"
        },
        {
          "internalType": "address",
          "name": "_bridge",
          "type": "address"
        }
      ],
      "stateMutability": "nonpayable",
      "type": "constructor"
    },
    {
      "inputs": [],
      "name": "ECDSAInvalidSignature",
      "type": "error"
    },
    {
      "inputs": [
        {
          "internalType": "uint256",
          "name": "length",
          "type": "uint256"
        }
      ],
      "name": "ECDSAInvalidSignatureLength",
      "type": "error"
    },
    {
      "inputs": [
        {
          "internalType": "bytes32",
          "name": "s",
          "type": "bytes32"
        }
      ],
      "name": "ECDSAInvalidSignatureS",
      "type": "error"
    },
    {
      "inputs": [
        {
          "internalType": "string",
          "name": "field",
          "type": "string"
        }
      ],
      "name": "EmptyString",
      "type": "error"
    },
    {
      "inputs": [],
      "name": "EnforcedPause",
      "type": "error"
    },
    {
      "inputs": [],
      "name": "ExpectedPause",
      "type": "error"
    },
    {
      "inputs": [],
      "name": "InvalidShortString",
      "type": "error"
    },
    {
      "inputs": [
        {
          "internalType": "address",
          "name": "owner",
          "type": "address"
        }
      ],
      "name": "OwnableInvalidOwner",
      "type": "error"
    },
    {
      "inputs": [
        {
          "internalType": "address",
          "name": "account",
          "type": "address"
        }
      ],
      "name": "OwnableUnauthorizedAccount",
      "type": "error"
    },
    {
      "inputs": [],
      "name": "ReentrancyGuardReentrantCall",
      "type": "error"
    },
    {
      "inputs": [
        {
          "internalType": "string",
          "name": "str",
          "type": "string"
        }
      ],
      "name": "StringTooLong",
      "type": "error"
    },
    {
      "inputs": [
        {
          "internalType": "address",
          "name": "signer",
          "type": "address"
        }
      ],
      "name": "UnauthorizedSigner",
      "type": "error"
    },
    {
      "inputs": [
        {
          "internalType": "string",
          "name": "field",
          "type": "string"
        }
      ],
      "name": "ZeroAddress",
      "type": "error"
    },
    {
      "anonymous": false,
      "inputs": [],
      "name": "EIP712DomainChanged",
      "type": "event"
    },
    {
      "anonymous": false,
      "inputs": [
        {
          "indexed": true,
          "internalType": "address",
          "name": "previousOwner",
          "type": "address"
        },
        {
          "indexed": true,
          "internalType": "address",
          "name": "newOwner",
          "type": "address"
        }
      ],
      "name": "OwnershipTransferred",
      "type": "event"
    },
    {
      "anonymous": false,
      "inputs": [
        {
          "indexed": false,
          "internalType": "address",
          "name": "account",
          "type": "address"
        }
      ],
      "name": "Paused",
      "type": "event"
    },
    {
      "anonymous": false,
      "inputs": [
        {
          "indexed": true,
          "internalType": "address",
          "name": "prevSigner",
          "type": "address"
        },
        {
          "indexed": true,
          "internalType": "address",
          "name": "newSigner",
          "type": "address"
        }
      ],
      "name": "SignerChanged",
      "type": "event"
    },
    {
      "anonymous": false,
      "inputs": [
        {
          "indexed": false,
          "internalType": "address",
          "name": "account",
          "type": "address"
        }
      ],
      "name": "Unpaused",
      "type": "event"
    },
    {
      "inputs": [],
      "name": "CONFIRM_BURN_TYPEHASH",
      "outputs": [
        {
          "internalType": "bytes32",
          "name": "",
          "type": "bytes32"
        }
      ],
      "stateMutability": "view",
      "type": "function"
    },
    {
      "inputs": [],
      "name": "MINT_TYPEHASH",
      "outputs": [
        {
          "internalType": "bytes32",
          "name": "",
          "type": "bytes32"
        }
      ],
      "stateMutability": "view",
      "type": "function"
    },
    {
      "inputs": [],
      "name": "REVERT_BURN_TYPEHASH",
      "outputs": [
        {
          "internalType": "bytes32",
          "name": "",
          "type": "bytes32"
        }
      ],
      "stateMutability": "view",
      "type": "function"
    },
    {
      "inputs": [],
      "name": "authorizedSigner",
      "outputs": [
        {
          "internalType": "address",
          "name": "",
          "type": "address"
        }
      ],
      "stateMutability": "view",
      "type": "function"
    },
    {
      "inputs": [],
      "name": "bridge",
      "outputs": [
        {
          "internalType": "contract IOnestableDestinationBridge",
          "name": "",
          "type": "address"
        }
      ],
      "stateMutability": "view",
      "type": "function"
    },
    {
      "inputs": [],
      "name": "eip712Domain",
      "outputs": [
        {
          "internalType": "bytes1",
          "name": "fields",
          "type": "bytes1"
        },
        {
          "internalType": "string",
          "name": "name",
          "type": "string"
        },
        {
          "internalType": "string",
          "name": "version",
          "type": "string"
        },
        {
          "internalType": "uint256",
          "name": "chainId",
          "type": "uint256"
        },
        {
          "internalType": "address",
          "name": "verifyingContract",
          "type": "address"
        },
        {
          "internalType": "bytes32",
          "name": "salt",
          "type": "bytes32"
        },
        {
          "internalType": "uint256[]",
          "name": "extensions",
          "type": "uint256[]"
        }
      ],
      "stateMutability": "view",
      "type": "function"
    },
    {
      "inputs": [
        {
          "internalType": "bytes32",
          "name": "burnId",
          "type": "bytes32"
        },
        {
          "internalType": "bytes32",
          "name": "receipt",
          "type": "bytes32"
        },
        {
          "internalType": "uint256",
          "name": "destChainId",
          "type": "uint256"
        },
        {
          "internalType": "address",
          "name": "destTokenAddress",
          "type": "address"
        },
        {
          "internalType": "bytes",
          "name": "signature",
          "type": "bytes"
        }
      ],
      "name": "executeConfirm",
      "outputs": [],
      "stateMutability": "nonpayable",
      "type": "function"
    },
    {
      "inputs": [
        {
          "internalType": "bytes32",
          "name": "lockId",
          "type": "bytes32"
        },
        {
          "internalType": "uint256",
          "name": "srcChainId",
          "type": "uint256"
        },
        {
          "internalType": "address",
          "name": "srcTokenAddress",
          "type": "address"
        },
        {
          "internalType": "address",
          "name": "sender",
          "type": "address"
        },
        {
          "internalType": "address",
          "name": "recipient",
          "type": "address"
        },
        {
          "internalType": "uint256",
          "name": "amount",
          "type": "uint256"
        },
        {
          "internalType": "uint256",
          "name": "maxConfirmationTimestamp",
          "type": "uint256"
        },
        {
          "internalType": "bytes",
          "name": "signature",
          "type": "bytes"
        }
      ],
      "name": "executeMint",
      "outputs": [],
      "stateMutability": "nonpayable",
      "type": "function"
    },
    {
      "inputs": [
        {
          "internalType": "bytes32",
          "name": "burnId",
          "type": "bytes32"
        },
        {
          "internalType": "bytes",
          "name": "signature",
          "type": "bytes"
        }
      ],
      "name": "executeRevert",
      "outputs": [],
      "stateMutability": "nonpayable",
      "type": "function"
    },
    {
      "inputs": [],
      "name": "owner",
      "outputs": [
        {
          "internalType": "address",
          "name": "",
          "type": "address"
        }
      ],
      "stateMutability": "view",
      "type": "function"
    },
    {
      "inputs": [],
      "name": "pause",
      "outputs": [],
      "stateMutability": "nonpayable",
      "type": "function"
    },
    {
      "inputs": [],
      "name": "paused",
      "outputs": [
        {
          "internalType": "bool",
          "name": "",
          "type": "bool"
        }
      ],
      "stateMutability": "view",
      "type": "function"
    },
    {
      "inputs": [],
      "name": "renounceOwnership",
      "outputs": [],
      "stateMutability": "nonpayable",
      "type": "function"
    },
    {
      "inputs": [
        {
          "internalType": "address",
          "name": "newSigner",
          "type": "address"
        }
      ],
      "name": "setAuthorizedSigner",
      "outputs": [],
      "stateMutability": "nonpayable",
      "type": "function"
    },
    {
      "inputs": [
        {
          "internalType": "address",
          "name": "newOwner",
          "type": "address"
        }
      ],
      "name": "transferOwnership",
      "outputs": [],
      "stateMutability": "nonpayable",
      "type": "function"
    },
    {
      "inputs": [],
      "name": "unpause",
      "outputs": [],
      "stateMutability": "nonpayable",
      "type": "function"
    }
  ],
  "bytecode": "0x61018060405234801561001157600080fd5b5060405161180b38038061180b833981016040819052610030916103af565b6040518060600160405280602281526020016117e9602291396040805180820190915260018152603160f81b602082015284848383836001600160a01b03811661009557604051631e4fbdf760e01b8152600060048201526024015b60405180910390fd5b61009e816102d2565b506000805460ff60a01b191690556100b7826001610322565b610120526100c6816002610322565b61014052815160208084019190912060e052815190820120610100524660a05261015360e05161010051604080517f8b73c3c69bb8fe3d512ecc4cf759cc79239f7b179b0ffacaa9a75d522b39400f60208201529081019290925260608201524660808201523060a082015260009060c00160405160208183030381529060405280519060200120905090565b60805250503060c0528351600003610196576040516318a996bb60e21b81526020600482015260056024820152645f6e616d6560d81b604482015260640161008c565b82516000036101d3576040516318a996bb60e21b81526020600482015260086024820152672fbb32b939b4b7b760c11b604482015260640161008c565b6001600160a01b0382166102135760405163eac0d38960e01b81526020600482015260066024820152652fb7bbb732b960d11b604482015260640161008c565b6001600160a01b03811661025e5760405163eac0d38960e01b81526020600482015260116024820152702fb0baba3437b934bd32b229b4b3b732b960791b604482015260640161008c565b600380546001600160a01b0319166001600160a01b039283161790556001600455841692506102bd9150505760405163eac0d38960e01b81526020600482015260076024820152665f62726964676560c81b604482015260640161008c565b6001600160a01b031661016052506105c19050565b600080546001600160a01b038381166001600160a01b0319831681178455604051919092169283917f8be0079c531659141344cd1fd0a4f28419497f9722a3daafe3b4186f6b6457e09190a35050565b600060208351101561033e5761033783610355565b905061034f565b816103498482610491565b5060ff90505b92915050565b600080829050601f81511115610380578260405163305a27a960e01b815260040161008c919061054f565b805161038b8261059d565b179392505050565b80516001600160a01b03811681146103aa57600080fd5b919050565b6000806000606084860312156103c457600080fd5b6103cd84610393565b92506103db60208501610393565b91506103e960408501610393565b90509250925092565b634e487b7160e01b600052604160045260246000fd5b600181811c9082168061041c57607f821691505b60208210810361043c57634e487b7160e01b600052602260045260246000fd5b50919050565b601f82111561048c57806000526020600020601f840160051c810160208510156104695750805b601f840160051c820191505b818110156104895760008155600101610475565b50505b505050565b81516001600160401b038111156104aa576104aa6103f2565b6104be816104b88454610408565b84610442565b6020601f8211600181146104f257600083156104da5750848201515b600019600385901b1c1916600184901b178455610489565b600084815260208120601f198516915b828110156105225787850151825560209485019460019092019101610502565b50848210156105405786840151600019600387901b60f8161c191681555b50505050600190811b01905550565b602081526000825180602084015260005b8181101561057d5760208186018101516040868401015201610560565b506000604082850101526040601f19601f83011684010191505092915050565b8051602080830151919081101561043c5760001960209190910360031b1b16919050565b60805160a05160c05160e051610100516101205161014051610160516111ae61063b6000396000818161021a0152818161031c0152818161045c015261061d015260006109a40152600061097201526000610bd601526000610bae01526000610b0901526000610b3301526000610b5d01526111ae6000f3fe608060405234801561001057600080fd5b50600436106101005760003560e01c8063c2b7b2e211610097578063e78cea9211610066578063e78cea9214610215578063ef7824501461023c578063f2fde38b14610263578063f76fc35e1461027657600080fd5b8063c2b7b2e2146101a7578063c619f57c146101ba578063c771909c146101ef578063d279b0ca1461020257600080fd5b8063715018a6116100d3578063715018a6146101575780638456cb591461015f57806384b0196e146101675780638da5cb5b1461018257600080fd5b80632f7bacae146101055780633f4ba83a1461011a57806354d944ea146101225780635c975abb14610135575b600080fd5b610118610113366004610eb0565b61029d565b005b610118610390565b610118610130366004610f18565b6103a2565b600054600160a01b900460ff1660405190151581526020015b60405180910390f35b6101186104cb565b6101186104dd565b61016f6104ed565b60405161014e9796959493929190610fcf565b6000546001600160a01b03165b6040516001600160a01b03909116815260200161014e565b6101186101b5366004611067565b610533565b6101e17fa9ef1422dfa9f87dc43aff567238ae933f2a8679a76d3f8f0fc0e31ca6dcbc2481565b60405190815260200161014e565b60035461018f906001600160a01b031681565b610118610210366004611106565b61068f565b61018f7f000000000000000000000000000000000000000000000000000000000000000081565b6101e17f96060dda20267f19223655b9f1813af8fd91b18041ab7f299b67ebe38a777be381565b610118610271366004611106565b610731565b6101e17feb266e9d546d1a8aa33860d6c1bd149fe05dadf3eb9caa1ca170a315ba07998381565b6102a561076f565b6102ad610799565b604080517fa9ef1422dfa9f87dc43aff567238ae933f2a8679a76d3f8f0fc0e31ca6dcbc2460208201529081018490526000906060016040516020818303038152906040528051906020012090506103068184846107c4565b6040516329df1d7760e01b8152600481018590527f00000000000000000000000000000000000000000000000000000000000000006001600160a01b0316906329df1d7790602401600060405180830381600087803b15801561036857600080fd5b505af115801561037c573d6000803e3d6000fd5b505050505061038b6001600455565b505050565b610398610856565b6103a0610883565b565b6103aa61076f565b6103b2610799565b604080517f96060dda20267f19223655b9f1813af8fd91b18041ab7f299b67ebe38a777be3602082015290810187905260608101869052608081018590526001600160a01b03841660a082015260009060c0016040516020818303038152906040528051906020012090506104288184846107c4565b604051630282cd7760e61b81526004810188905260248101879052604481018690526001600160a01b0385811660648301527f0000000000000000000000000000000000000000000000000000000000000000169063a0b35dc090608401600060405180830381600087803b1580156104a057600080fd5b505af11580156104b4573d6000803e3d6000fd5b50505050506104c36001600455565b505050505050565b6104d3610856565b6103a060006108d8565b6104e5610856565b6103a0610928565b60006060806000806000606061050161096b565b61050961099d565b60408051600080825260208201909252600f60f81b9b939a50919850469750309650945092509050565b61053b61076f565b610543610799565b604080517feb266e9d546d1a8aa33860d6c1bd149fe05dadf3eb9caa1ca170a315ba07998360208201529081018a9052606081018990526001600160a01b03808916608083015280881660a0830152861660c082015260e081018590526101008101849052600090610120016040516020818303038152906040528051906020012090506105d28184846107c4565b604051631c78279f60e11b8152600481018b9052602481018a90526001600160a01b0389811660448301528881166064830152878116608483015260a4820187905260c482018690527f000000000000000000000000000000000000000000000000000000000000000016906338f04f3e9060e401600060405180830381600087803b15801561066157600080fd5b505af1158015610675573d6000803e3d6000fd5b50505050506106846001600455565b505050505050505050565b610697610856565b6001600160a01b0381166106df5760405163eac0d38960e01b81526020600482015260096024820152683732bba9b4b3b732b960b91b60448201526064015b60405180910390fd5b600380546001600160a01b038381166001600160a01b0319831681179093556040519116919082907feeb293e1f8f3a9db91ade748726387ed1352ca78f5430c5f06fe3d1e1ad5057990600090a35050565b610739610856565b6001600160a01b03811661076357604051631e4fbdf760e01b8152600060048201526024016106d6565b61076c816108d8565b50565b60026004540361079257604051633ee5aeb560e01b815260040160405180910390fd5b6002600455565b600054600160a01b900460ff16156103a05760405163d93c066560e01b815260040160405180910390fd5b60006107cf846109ca565b905060006108138285858080601f0160208091040260200160405190810160405280939291908181526020018383808284376000920191909152506109fd92505050565b6003549091506001600160a01b0380831691161461084f5760405163e74c68bb60e01b81526001600160a01b03821660048201526024016106d6565b5050505050565b6000546001600160a01b031633146103a05760405163118cdaa760e01b81523360048201526024016106d6565b61088b610a27565b6000805460ff60a01b191690557f5db9ee0a495bf2e6ff9c91a7834c1ba4fdd244a5e8aa4e537bd38aeae4b073aa335b6040516001600160a01b03909116815260200160405180910390a1565b600080546001600160a01b038381166001600160a01b0319831681178455604051919092169283917f8be0079c531659141344cd1fd0a4f28419497f9722a3daafe3b4186f6b6457e09190a35050565b610930610799565b6000805460ff60a01b1916600160a01b1790557f62e78cea01bee320cd4e420270b5ea74000d11b0c9f74754ebdbfc544b05a2586108bb3390565b60606109987f00000000000000000000000000000000000000000000000000000000000000006001610a51565b905090565b60606109987f00000000000000000000000000000000000000000000000000000000000000006002610a51565b60006109f76109d7610afc565b8360405161190160f01b8152600281019290925260228201526042902090565b92915050565b600080600080610a0d8686610c27565b925092509250610a1d8282610c74565b5090949350505050565b600054600160a01b900460ff166103a057604051638dfc202b60e01b815260040160405180910390fd5b606060ff8314610a6b57610a6483610d31565b90506109f7565b818054610a7790611128565b80601f0160208091040260200160405190810160405280929190818152602001828054610aa390611128565b8015610af05780601f10610ac557610100808354040283529160200191610af0565b820191906000526020600020905b815481529060010190602001808311610ad357829003601f168201915b505050505090506109f7565b6000306001600160a01b037f000000000000000000000000000000000000000000000000000000000000000016148015610b5557507f000000000000000000000000000000000000000000000000000000000000000046145b15610b7f57507f000000000000000000000000000000000000000000000000000000000000000090565b610998604080517f8b73c3c69bb8fe3d512ecc4cf759cc79239f7b179b0ffacaa9a75d522b39400f60208201527f0000000000000000000000000000000000000000000000000000000000000000918101919091527f000000000000000000000000000000000000000000000000000000000000000060608201524660808201523060a082015260009060c00160405160208183030381529060405280519060200120905090565b60008060008351604103610c615760208401516040850151606086015160001a610c5388828585610d70565b955095509550505050610c6d565b50508151600091506002905b9250925092565b6000826003811115610c8857610c88611162565b03610c91575050565b6001826003811115610ca557610ca5611162565b03610cc35760405163f645eedf60e01b815260040160405180910390fd5b6002826003811115610cd757610cd7611162565b03610cf85760405163fce698f760e01b8152600481018290526024016106d6565b6003826003811115610d0c57610d0c611162565b03610d2d576040516335e2f38360e21b8152600481018290526024016106d6565b5050565b60606000610d3e83610e3f565b604080516020808252818301909252919250600091906020820181803683375050509182525060208101929092525090565b600080807f7fffffffffffffffffffffffffffffff5d576e7357a4501ddfe92f46681b20a0841115610dab5750600091506003905082610e35565b604080516000808252602082018084528a905260ff891692820192909252606081018790526080810186905260019060a0016020604051602081039080840390855afa158015610dff573d6000803e3d6000fd5b5050604051601f1901519150506001600160a01b038116610e2b57506000925060019150829050610e35565b9250600091508190505b9450945094915050565b600060ff8216601f8111156109f757604051632cd44ac360e21b815260040160405180910390fd5b60008083601f840112610e7957600080fd5b50813567ffffffffffffffff811115610e9157600080fd5b602083019150836020828501011115610ea957600080fd5b9250929050565b600080600060408486031215610ec557600080fd5b83359250602084013567ffffffffffffffff811115610ee357600080fd5b610eef86828701610e67565b9497909650939450505050565b80356001600160a01b0381168114610f1357600080fd5b919050565b60008060008060008060a08789031215610f3157600080fd5b863595506020870135945060408701359350610f4f60608801610efc565b9250608087013567ffffffffffffffff811115610f6b57600080fd5b610f7789828a01610e67565b979a9699509497509295939492505050565b6000815180845260005b81811015610faf57602081850181015186830182015201610f93565b506000602082860101526020601f19601f83011685010191505092915050565b60ff60f81b8816815260e060208201526000610fee60e0830189610f89565b82810360408401526110008189610f89565b606084018890526001600160a01b038716608085015260a0840186905283810360c08501528451808252602080870193509091019060005b81811015611056578351835260209384019390920191600101611038565b50909b9a5050505050505050505050565b60008060008060008060008060006101008a8c03121561108657600080fd5b8935985060208a0135975061109d60408b01610efc565b96506110ab60608b01610efc565b95506110b960808b01610efc565b945060a08a0135935060c08a0135925060e08a013567ffffffffffffffff8111156110e357600080fd5b6110ef8c828d01610e67565b915080935050809150509295985092959850929598565b60006020828403121561111857600080fd5b61112182610efc565b9392505050565b600181811c9082168061113c57607f821691505b60208210810361115c57634e487b7160e01b600052602260045260246000fd5b50919050565b634e487b7160e01b600052602160045260246000fdfea26469706673582212205bf78db7387da1246bd8d7714f58c2b5372abfc9d16f87a0349672ad707bc58564736f6c634300081b00334f6e65737461626c6544657374696e6174696f6e52656c6179657241646170746572",
  "linkReferences": {},
  "deployedLinkReferences": {}
}