{
  "_format": "hh-sol-artifact-1",
  "contractName": "OnestableDestinationBridge",
  "sourceName": "contracts/dest/OnestableDestinationBridge.sol",
  "abi": [
    {
      "inputs": [],
      "stateMutability": "nonpayable",
      "type": "constructor"
    },
    {
      "inputs": [],
      "name": "AccessControlBadConfirmation",
      "type": "error"
    },
    {
      "inputs": [
        {
          "internalType": "address",
          "name": "account",
          "type": "address"
        },
        {
          "internalType": "bytes32",
          "name": "neededRole",
          "type": "bytes32"
        }
      ],
      "name": "AccessControlUnauthorizedAccount",
      "type": "error"
    },
    {
      "inputs": [
        {
          "internalType": "address",
          "name": "target",
          "type": "address"
        }
      ],
      "name": "AddressEmptyCode",
      "type": "error"
    },
    {
      "inputs": [
        {
          "internalType": "address",
          "name": "account",
          "type": "address"
        }
      ],
      "name": "AddressInsufficientBalance",
      "type": "error"
    },
    {
      "inputs": [],
      "name": "AlreadyProcessed",
      "type": "error"
    },
    {
      "inputs": [
        {
          "internalType": "string",
          "name": "field1",
          "type": "string"
        },
        {
          "internalType": "string",
          "name": "field2",
          "type": "string"
        }
      ],
      "name": "ArrayLengthMismatch",
      "type": "error"
    },
    {
      "inputs": [
        {
          "internalType": "uint256",
          "name": "chainId",
          "type": "uint256"
        }
      ],
      "name": "BurnForDestinationChainNotAllowed",
      "type": "error"
    },
    {
      "inputs": [
        {
          "internalType": "bytes32",
          "name": "burnId",
          "type": "bytes32"
        }
      ],
      "name": "ConfirmBurnNotAllowed",
      "type": "error"
    },
    {
      "inputs": [
        {
          "internalType": "uint256",
          "name": "allowed",
          "type": "uint256"
        },
        {
          "internalType": "uint256",
          "name": "provided",
          "type": "uint256"
        }
      ],
      "name": "DestinationChainNotAllowed",
      "type": "error"
    },
    {
      "inputs": [
        {
          "internalType": "address",
          "name": "allowed",
          "type": "address"
        },
        {
          "internalType": "address",
          "name": "provided",
          "type": "address"
        }
      ],
      "name": "DestinationTokenNotAllowed",
      "type": "error"
    },
    {
      "inputs": [
        {
          "internalType": "address",
          "name": "implementation",
          "type": "address"
        }
      ],
      "name": "ERC1967InvalidImplementation",
      "type": "error"
    },
    {
      "inputs": [],
      "name": "ERC1967NonPayable",
      "type": "error"
    },
    {
      "inputs": [],
      "name": "EnforcedPause",
      "type": "error"
    },
    {
      "inputs": [],
      "name": "ExpectedPause",
      "type": "error"
    },
    {
      "inputs": [],
      "name": "FailedInnerCall",
      "type": "error"
    },
    {
      "inputs": [
        {
          "internalType": "uint256",
          "name": "available",
          "type": "uint256"
        },
        {
          "internalType": "uint256",
          "name": "required",
          "type": "uint256"
        }
      ],
      "name": "InsufficientMintedSupply",
      "type": "error"
    },
    {
      "inputs": [],
      "name": "InvalidAmount",
      "type": "error"
    },
    {
      "inputs": [
        {
          "internalType": "string",
          "name": "field",
          "type": "string"
        }
      ],
      "name": "InvalidChainId",
      "type": "error"
    },
    {
      "inputs": [
        {
          "internalType": "uint256",
          "name": "provided",
          "type": "uint256"
        },
        {
          "internalType": "uint256",
          "name": "min",
          "type": "uint256"
        },
        {
          "internalType": "uint256",
          "name": "max",
          "type": "uint256"
        }
      ],
      "name": "InvalidConfirmationPeriod",
      "type": "error"
    },
    {
      "inputs": [],
      "name": "InvalidId",
      "type": "error"
    },
    {
      "inputs": [],
      "name": "InvalidInitialization",
      "type": "error"
    },
    {
      "inputs": [
        {
          "internalType": "uint256",
          "name": "chainId",
          "type": "uint256"
        }
      ],
      "name": "MintNotAllowedFromSource",
      "type": "error"
    },
    {
      "inputs": [
        {
          "internalType": "address",
          "name": "allowedTokenAddress",
          "type": "address"
        },
        {
          "internalType": "address",
          "name": "srcTokenAddress",
          "type": "address"
        }
      ],
      "name": "MintNotAllowedFromSourceToken",
      "type": "error"
    },
    {
      "inputs": [
        {
          "internalType": "address",
          "name": "recipient",
          "type": "address"
        },
        {
          "internalType": "uint256",
          "name": "amount",
          "type": "uint256"
        }
      ],
      "name": "MintTokensFailed",
      "type": "error"
    },
    {
      "inputs": [],
      "name": "NotInitializing",
      "type": "error"
    },
    {
      "inputs": [],
      "name": "ReentrancyGuardReentrantCall",
      "type": "error"
    },
    {
      "inputs": [
        {
          "internalType": "uint256",
          "name": "current",
          "type": "uint256"
        },
        {
          "internalType": "uint256",
          "name": "maxConfirmationTimestamp",
          "type": "uint256"
        }
      ],
      "name": "RequestTimeout",
      "type": "error"
    },
    {
      "inputs": [
        {
          "internalType": "uint256",
          "name": "current",
          "type": "uint256"
        },
        {
          "internalType": "uint256",
          "name": "maxConfirmationTimestamp",
          "type": "uint256"
        }
      ],
      "name": "RevertBurnedTokensTooEarly",
      "type": "error"
    },
    {
      "inputs": [
        {
          "internalType": "bytes32",
          "name": "burnId",
          "type": "bytes32"
        }
      ],
      "name": "RevertNotAllowed",
      "type": "error"
    },
    {
      "inputs": [
        {
          "internalType": "address",
          "name": "token",
          "type": "address"
        }
      ],
      "name": "SafeERC20FailedOperation",
      "type": "error"
    },
    {
      "inputs": [],
      "name": "UUPSUnauthorizedCallContext",
      "type": "error"
    },
    {
      "inputs": [
        {
          "internalType": "bytes32",
          "name": "slot",
          "type": "bytes32"
        }
      ],
      "name": "UUPSUnsupportedProxiableUUID",
      "type": "error"
    },
    {
      "inputs": [
        {
          "internalType": "string",
          "name": "field",
          "type": "string"
        }
      ],
      "name": "ZeroAddress",
      "type": "error"
    },
    {
      "anonymous": false,
      "inputs": [
        {
          "indexed": true,
          "internalType": "uint256",
          "name": "chainId",
          "type": "uint256"
        },
        {
          "indexed": false,
          "internalType": "address",
          "name": "tokenAddress",
          "type": "address"
        }
      ],
      "name": "AllowedSourceTokenUpdated",
      "type": "event"
    },
    {
      "anonymous": false,
      "inputs": [
        {
          "indexed": true,
          "internalType": "bytes32",
          "name": "burnId",
          "type": "bytes32"
        },
        {
          "indexed": true,
          "internalType": "bytes32",
          "name": "receipt",
          "type": "bytes32"
        }
      ],
      "name": "BurnConfirmed",
      "type": "event"
    },
    {
      "anonymous": false,
      "inputs": [
        {
          "indexed": false,
          "internalType": "uint64",
          "name": "version",
          "type": "uint64"
        }
      ],
      "name": "Initialized",
      "type": "event"
    },
    {
      "anonymous": false,
      "inputs": [
        {
          "indexed": false,
          "internalType": "address",
          "name": "account",
          "type": "address"
        }
      ],
      "name": "Paused",
      "type": "event"
    },
    {
      "anonymous": false,
      "inputs": [
        {
          "indexed": true,
          "internalType": "bytes32",
          "name": "burnId",
          "type": "bytes32"
        },
        {
          "indexed": true,
          "internalType": "address",
          "name": "recipient",
          "type": "address"
        },
        {
          "indexed": false,
          "internalType": "uint256",
          "name": "amount",
          "type": "uint256"
        }
      ],
      "name": "RevertedBurnedTokens",
      "type": "event"
    },
    {
      "anonymous": false,
      "inputs": [
        {
          "indexed": true,
          "internalType": "bytes32",
          "name": "role",
          "type": "bytes32"
        },
        {
          "indexed": true,
          "internalType": "bytes32",
          "name": "previousAdminRole",
          "type": "bytes32"
        },
        {
          "indexed": true,
          "internalType": "bytes32",
          "name": "newAdminRole",
          "type": "bytes32"
        }
      ],
      "name": "RoleAdminChanged",
      "type": "event"
    },
    {
      "anonymous": false,
      "inputs": [
        {
          "indexed": true,
          "internalType": "bytes32",
          "name": "role",
          "type": "bytes32"
        },
        {
          "indexed": true,
          "internalType": "address",
          "name": "account",
          "type": "address"
        },
        {
          "indexed": true,
          "internalType": "address",
          "name": "sender",
          "type": "address"
        }
      ],
      "name": "RoleGranted",
      "type": "event"
    },
    {
      "anonymous": false,
      "inputs": [
        {
          "indexed": true,
          "internalType": "bytes32",
          "name": "role",
          "type": "bytes32"
        },
        {
          "indexed": true,
          "internalType": "address",
          "name": "account",
          "type": "address"
        },
        {
          "indexed": true,
          "internalType": "address",
          "name": "sender",
          "type": "address"
        }
      ],
      "name": "RoleRevoked",
      "type": "event"
    },
    {
      "anonymous": false,
      "inputs": [
        {
          "indexed": true,
          "internalType": "bytes32",
          "name": "burnId",
          "type": "bytes32"
        },
        {
          "indexed": true,
          "internalType": "address",
          "name": "sender",
          "type": "address"
        },
        {
          "indexed": true,
          "internalType": "address",
          "name": "recipient",
          "type": "address"
        },
        {
          "indexed": false,
          "internalType": "uint256",
          "name": "amount",
          "type": "uint256"
        },
        {
          "indexed": false,
          "internalType": "address",
          "name": "token",
          "type": "address"
        },
        {
          "indexed": false,
          "internalType": "uint256",
          "name": "maxConfirmationTimestamp",
          "type": "uint256"
        },
        {
          "indexed": false,
          "internalType": "uint256",
          "name": "destChainId",
          "type": "uint256"
        },
        {
          "indexed": false,
          "internalType": "address",
          "name": "destTokenAddress",
          "type": "address"
        }
      ],
      "name": "TokensBurned",
      "type": "event"
    },
    {
      "anonymous": false,
      "inputs": [
        {
          "indexed": true,
          "internalType": "bytes32",
          "name": "lockId",
          "type": "bytes32"
        },
        {
          "indexed": true,
          "internalType": "address",
          "name": "sender",
          "type": "address"
        },
        {
          "indexed": true,
          "internalType": "address",
          "name": "recipient",
          "type": "address"
        },
        {
          "indexed": false,
          "internalType": "uint256",
          "name": "amount",
          "type": "uint256"
        },
        {
          "indexed": false,
          "internalType": "address",
          "name": "token",
          "type": "address"
        },
        {
          "indexed": false,
          "internalType": "uint256",
          "name": "srcChainId",
          "type": "uint256"
        },
        {
          "indexed": false,
          "internalType": "address",
          "name": "srcTokenAddress",
          "type": "address"
        }
      ],
      "name": "TokensMinted",
      "type": "event"
    },
    {
      "anonymous": false,
      "inputs": [
        {
          "indexed": false,
          "internalType": "address",
          "name": "account",
          "type": "address"
        }
      ],
      "name": "Unpaused",
      "type": "event"
    },
    {
      "anonymous": false,
      "inputs": [
        {
          "indexed": true,
          "internalType": "address",
          "name": "implementation",
          "type": "address"
        }
      ],
      "name": "Upgraded",
      "type": "event"
    },
    {
      "inputs": [],
      "name": "DEFAULT_ADMIN_ROLE",
      "outputs": [
        {
          "internalType": "bytes32",
          "name": "",
          "type": "bytes32"
        }
      ],
      "stateMutability": "view",
      "type": "function"
    },
    {
      "inputs": [],
      "name": "MESSAGE_ADAPTER_ROLE",
      "outputs": [
        {
          "internalType": "bytes32",
          "name": "",
          "type": "bytes32"
        }
      ],
      "stateMutability": "view",
      "type": "function"
    },
    {
      "inputs": [],
      "name": "PAUSER_ROLE",
      "outputs": [
        {
          "internalType": "bytes32",
          "name": "",
          "type": "bytes32"
        }
      ],
      "stateMutability": "view",
      "type": "function"
    },
    {
      "inputs": [],
      "name": "UPGRADER_ROLE",
      "outputs": [
        {
          "internalType": "bytes32",
          "name": "",
          "type": "bytes32"
        }
      ],
      "stateMutability": "view",
      "type": "function"
    },
    {
      "inputs": [],
      "name": "UPGRADE_INTERFACE_VERSION",
      "outputs": [
        {
          "internalType": "string",
          "name": "",
          "type": "string"
        }
      ],
      "stateMutability": "view",
      "type": "function"
    },
    {
      "inputs": [
        {
          "internalType": "uint256",
          "name": "",
          "type": "uint256"
        }
      ],
      "name": "allowedSourceTokens",
      "outputs": [
        {
          "internalType": "address",
          "name": "",
          "type": "address"
        }
      ],
      "stateMutability": "view",
      "type": "function"
    },
    {
      "inputs": [],
      "name": "bridgedToken",
      "outputs": [
        {
          "internalType": "contract IOnestableBridgedToken",
          "name": "",
          "type": "address"
        }
      ],
      "stateMutability": "view",
      "type": "function"
    },
    {
      "inputs": [
        {
          "internalType": "bytes32",
          "name": "",
          "type": "bytes32"
        }
      ],
      "name": "burnRecords",
      "outputs": [
        {
          "internalType": "address",
          "name": "sender",
          "type": "address"
        },
        {
          "internalType": "address",
          "name": "recipient",
          "type": "address"
        },
        {
          "internalType": "uint256",
          "name": "amount",
          "type": "uint256"
        },
        {
          "internalType": "address",
          "name": "token",
          "type": "address"
        },
        {
          "internalType": "uint256",
          "name": "destChainId",
          "type": "uint256"
        },
        {
          "internalType": "address",
          "name": "destTokenAddress",
          "type": "address"
        },
        {
          "internalType": "uint256",
          "name": "maxConfirmationTimestamp",
          "type": "uint256"
        },
        {
          "internalType": "uint256",
          "name": "nonce",
          "type": "uint256"
        }
      ],
      "stateMutability": "view",
      "type": "function"
    },
    {
      "inputs": [
        {
          "internalType": "uint256",
          "name": "destChainId",
          "type": "uint256"
        },
        {
          "internalType": "address",
          "name": "recipient",
          "type": "address"
        },
        {
          "internalType": "uint256",
          "name": "amount",
          "type": "uint256"
        }
      ],
      "name": "burnTokens",
      "outputs": [],
      "stateMutability": "nonpayable",
      "type": "function"
    },
    {
      "inputs": [
        {
          "internalType": "bytes32",
          "name": "burnId",
          "type": "bytes32"
        },
        {
          "internalType": "bytes32",
          "name": "receipt",
          "type": "bytes32"
        },
        {
          "internalType": "uint256",
          "name": "destChainId",
          "type": "uint256"
        },
        {
          "internalType": "address",
          "name": "destTokenAddress",
          "type": "address"
        }
      ],
      "name": "confirmBurn",
      "outputs": [],
      "stateMutability": "nonpayable",
      "type": "function"
    },
    {
      "inputs": [
        {
          "internalType": "bytes32",
          "name": "",
          "type": "bytes32"
        }
      ],
      "name": "confirmedBurnReceipts",
      "outputs": [
        {
          "internalType": "bytes32",
          "name": "",
          "type": "bytes32"
        }
      ],
      "stateMutability": "view",
      "type": "function"
    },
    {
      "inputs": [
        {
          "internalType": "bytes32",
          "name": "role",
          "type": "bytes32"
        }
      ],
      "name": "getRoleAdmin",
      "outputs": [
        {
          "internalType": "bytes32",
          "name": "",
          "type": "bytes32"
        }
      ],
      "stateMutability": "view",
      "type": "function"
    },
    {
      "inputs": [
        {
          "internalType": "bytes32",
          "name": "role",
          "type": "bytes32"
        },
        {
          "internalType": "address",
          "name": "account",
          "type": "address"
        }
      ],
      "name": "grantRole",
      "outputs": [],
      "stateMutability": "nonpayable",
      "type": "function"
    },
    {
      "inputs": [
        {
          "internalType": "bytes32",
          "name": "role",
          "type": "bytes32"
        },
        {
          "internalType": "address",
          "name": "account",
          "type": "address"
        }
      ],
      "name": "hasRole",
      "outputs": [
        {
          "internalType": "bool",
          "name": "",
          "type": "bool"
        }
      ],
      "stateMutability": "view",
      "type": "function"
    },
    {
      "inputs": [
        {
          "internalType": "contract IOnestableBridgedToken",
          "name": "_bridgedToken",
          "type": "address"
        },
        {
          "internalType": "uint256[]",
          "name": "_srcChainIds",
          "type": "uint256[]"
        },
        {
          "internalType": "address[]",
          "name": "_srcTokenAddresses",
          "type": "address[]"
        },
        {
          "internalType": "uint256",
          "name": "_maxConfirmationPeriod",
          "type": "uint256"
        },
        {
          "internalType": "address",
          "name": "_defaultAdmin",
          "type": "address"
        },
        {
          "internalType": "address",
          "name": "_pauser",
          "type": "address"
        },
        {
          "internalType": "address",
          "name": "_upgrader",
          "type": "address"
        }
      ],
      "name": "initialize",
      "outputs": [],
      "stateMutability": "nonpayable",
      "type": "function"
    },
    {
      "inputs": [
        {
          "internalType": "bytes32",
          "name": "",
          "type": "bytes32"
        }
      ],
      "name": "isBurnReverted",
      "outputs": [
        {
          "internalType": "bool",
          "name": "",
          "type": "bool"
        }
      ],
      "stateMutability": "view",
      "type": "function"
    },
    {
      "inputs": [],
      "name": "maxConfirmationPeriod",
      "outputs": [
        {
          "internalType": "uint256",
          "name": "",
          "type": "uint256"
        }
      ],
      "stateMutability": "view",
      "type": "function"
    },
    {
      "inputs": [
        {
          "internalType": "bytes32",
          "name": "lockId",
          "type": "bytes32"
        },
        {
          "internalType": "uint256",
          "name": "srcChainId",
          "type": "uint256"
        },
        {
          "internalType": "address",
          "name": "srcTokenAddress",
          "type": "address"
        },
        {
          "internalType": "address",
          "name": "sender",
          "type": "address"
        },
        {
          "internalType": "address",
          "name": "recipient",
          "type": "address"
        },
        {
          "internalType": "uint256",
          "name": "amount",
          "type": "uint256"
        },
        {
          "internalType": "uint256",
          "name": "maxConfirmationTimestamp",
          "type": "uint256"
        }
      ],
      "name": "mintTokens",
      "outputs": [],
      "stateMutability": "nonpayable",
      "type": "function"
    },
    {
      "inputs": [],
      "name": "pause",
      "outputs": [],
      "stateMutability": "nonpayable",
      "type": "function"
    },
    {
      "inputs": [],
      "name": "paused",
      "outputs": [
        {
          "internalType": "bool",
          "name": "",
          "type": "bool"
        }
      ],
      "stateMutability": "view",
      "type": "function"
    },
    {
      "inputs": [
        {
          "internalType": "bytes32",
          "name": "",
          "type": "bytes32"
        }
      ],
      "name": "processedMints",
      "outputs": [
        {
          "internalType": "bool",
          "name": "",
          "type": "bool"
        }
      ],
      "stateMutability": "view",
      "type": "function"
    },
    {
      "inputs": [],
      "name": "proxiableUUID",
      "outputs": [
        {
          "internalType": "bytes32",
          "name": "",
          "type": "bytes32"
        }
      ],
      "stateMutability": "view",
      "type": "function"
    },
    {
      "inputs": [
        {
          "internalType": "bytes32",
          "name": "role",
          "type": "bytes32"
        },
        {
          "internalType": "address",
          "name": "callerConfirmation",
          "type": "address"
        }
      ],
      "name": "renounceRole",
      "outputs": [],
      "stateMutability": "nonpayable",
      "type": "function"
    },
    {
      "inputs": [
        {
          "internalType": "contract IERC20",
          "name": "tokenContract",
          "type": "address"
        },
        {
          "internalType": "address",
          "name": "to",
          "type": "address"
        },
        {
          "internalType": "uint256",
          "name": "amount",
          "type": "uint256"
        }
      ],
      "name": "rescueERC20",
      "outputs": [],
      "stateMutability": "nonpayable",
      "type": "function"
    },
    {
      "inputs": [
        {
          "internalType": "bytes32",
          "name": "burnId",
          "type": "bytes32"
        }
      ],
      "name": "revertBurnedTokens",
      "outputs": [],
      "stateMutability": "nonpayable",
      "type": "function"
    },
    {
      "inputs": [
        {
          "internalType": "bytes32",
          "name": "role",
          "type": "bytes32"
        },
        {
          "internalType": "address",
          "name": "account",
          "type": "address"
        }
      ],
      "name": "revokeRole",
      "outputs": [],
      "stateMutability": "nonpayable",
      "type": "function"
    },
    {
      "inputs": [
        {
          "internalType": "uint256",
          "name": "chainId",
          "type": "uint256"
        },
        {
          "internalType": "address",
          "name": "tokenAddress",
          "type": "address"
        }
      ],
      "name": "setAllowedSourceTokens",
      "outputs": [],
      "stateMutability": "nonpayable",
      "type": "function"
    },
    {
      "inputs": [
        {
          "internalType": "uint256",
          "name": "_maxPeriod",
          "type": "uint256"
        }
      ],
      "name": "setMaxConfirmationPeriod",
      "outputs": [],
      "stateMutability": "nonpayable",
      "type": "function"
    },
    {
      "inputs": [
        {
          "internalType": "address",
          "name": "adapter",
          "type": "address"
        },
        {
          "internalType": "bool",
          "name": "enabled",
          "type": "bool"
        }
      ],
      "name": "setMessageAdapter",
      "outputs": [],
      "stateMutability": "nonpayable",
      "type": "function"
    },
    {
      "inputs": [
        {
          "internalType": "bytes4",
          "name": "interfaceId",
          "type": "bytes4"
        }
      ],
      "name": "supportsInterface",
      "outputs": [
        {
          "internalType": "bool",
          "name": "",
          "type": "bool"
        }
      ],
      "stateMutability": "view",
      "type": "function"
    },
    {
      "inputs": [],
      "name": "totalMintedSupply",
      "outputs": [
        {
          "internalType": "uint256",
          "name": "",
          "type": "uint256"
        }
      ],
      "stateMutability": "view",
      "type": "function"
    },
    {
      "inputs": [],
      "name": "unpause",
      "outputs": [],
      "stateMutability": "nonpayable",
      "type": "function"
    },
    {
      "inputs": [
        {
          "internalType": "address",
          "name": "newImplementation",
          "type": "address"
        },
        {
          "internalType": "bytes",
          "name": "data",
          "type": "bytes"
        }
      ],
      "name": "upgradeToAndCall",
      "outputs": [],
      "stateMutability": "payable",
      "type": "function"
    }
  ],
  "bytecode": "0x60a06040523060805234801561001457600080fd5b5061001d610022565b6100d4565b7ff0c57e16840df040f15088dc2f81fe391c3923bec73e23a9662efc9c229c6a00805468010000000000000000900460ff16156100725760405163f92ee8a960e01b815260040160405180910390fd5b80546001600160401b03908116146100d15780546001600160401b0319166001600160401b0390811782556040519081527fc7f505b2f371ae2175ee4913f4499e1f2633a7b5936321eed1cdaeb6115181d29060200160405180910390a15b50565b6080516129666100fd60003960008181611cb801528181611ce10152611e4401526129666000f3fe6080604052600436106101ee5760003560e01c806391d148541161010d578063b2c0efe0116100a0578063e267b7111161006f578063e267b711146105cb578063e63ab1e9146105eb578063ee3839371461060d578063f412ddc31461062d578063f72c0d8b146106ed57600080fd5b8063b2c0efe01461051e578063d547741f1461054e578063da337f841461056e578063df13ebda1461059e57600080fd5b8063a97a4212116100dc578063a97a42121461047e578063ad3cb1cc1461049e578063b07d2213146104dc578063b2118a8d146104fe57600080fd5b806391d14854146103db578063a0b35dc0146103fb578063a217fddf1461041b578063a484a3d71461043057600080fd5b80633f4ba83a116101855780635c975abb116101545780635c975abb14610375578063601e26031461039a5780638001a11a146103b05780638456cb59146103c657600080fd5b80633f4ba83a146103185780634f1ef2861461032d57806352d1902d146103405780635a16f2781461035557600080fd5b806336568abe116101c157806336568abe1461029857806338f04f3e146102b85780633bbbc9d2146102d85780633f3ca004146102f857600080fd5b806301ffc9a7146101f3578063248a9ca31461022857806329df1d77146102565780632f2ff15d14610278575b600080fd5b3480156101ff57600080fd5b5061021361020e3660046122e9565b610721565b60405190151581526020015b60405180910390f35b34801561023457600080fd5b50610248610243366004612313565b610758565b60405190815260200161021f565b34801561026257600080fd5b50610276610271366004612313565b61077a565b005b34801561028457600080fd5b50610276610293366004612351565b610a8c565b3480156102a457600080fd5b506102766102b3366004612351565b610aae565b3480156102c457600080fd5b506102766102d3366004612381565b610ae6565b3480156102e457600080fd5b506102766102f3366004612351565b610e01565b34801561030457600080fd5b506102766103133660046123f2565b610e16565b34801561032457600080fd5b506102766111c3565b61027661033b366004612471565b6111e3565b34801561034c57600080fd5b50610248611202565b34801561036157600080fd5b506102766103703660046125b8565b61121f565b34801561038157600080fd5b506000805160206128f18339815191525460ff16610213565b3480156103a657600080fd5b5061024860025481565b3480156103bc57600080fd5b5061024860035481565b3480156103d257600080fd5b5061027661158b565b3480156103e757600080fd5b506102136103f6366004612351565b6115ab565b34801561040757600080fd5b506102766104163660046126c8565b6115e3565b34801561042757600080fd5b50610248600081565b34801561043c57600080fd5b5061046661044b366004612313565b6008602052600090815260409020546001600160a01b031681565b6040516001600160a01b03909116815260200161021f565b34801561048a57600080fd5b50610276610499366004612717565b61182f565b3480156104aa57600080fd5b506104cf604051806040016040528060058152602001640352e302e360dc1b81525081565b60405161021f9190612769565b3480156104e857600080fd5b5061024860008051602061287183398151915281565b34801561050a57600080fd5b5061027661051936600461279c565b6118b1565b34801561052a57600080fd5b50610213610539366004612313565b60046020526000908152604090205460ff1681565b34801561055a57600080fd5b50610276610569366004612351565b61192d565b34801561057a57600080fd5b50610213610589366004612313565b60076020526000908152604090205460ff1681565b3480156105aa57600080fd5b506102486105b9366004612313565b60066020526000908152604090205481565b3480156105d757600080fd5b506102766105e6366004612313565b611949565b3480156105f757600080fd5b506102486000805160206128b183398151915281565b34801561061957600080fd5b50600154610466906001600160a01b031681565b34801561063957600080fd5b5061069d610648366004612313565b6005602081905260009182526040909120805460018201546002830154600384015460048501549585015460068601546007909601546001600160a01b03958616979486169693959283169493919092169188565b604080516001600160a01b03998a16815297891660208901528701959095529286166060860152608085019190915290931660a083015260c082019290925260e08101919091526101000161021f565b3480156106f957600080fd5b506102487f189ab7a9244df0848122154315af71fe140f3db0fe014031783b0946b8c9d2e381565b60006001600160e01b03198216637965db0b60e01b148061075257506301ffc9a760e01b6001600160e01b03198316145b92915050565b60009081526000805160206128d1833981519152602052604090206001015490565b61078261199e565b61078a6119d6565b6000805160206128718339815191526107a281611a09565b60008281526005602081815260409283902083516101008101855281546001600160a01b039081168083526001840154821694830194909452600283015495820195909552600382015485166060820152600482015460808201529281015490931660a0830152600683015460c083015260079092015460e08201529061083c57604051631bf4348160e31b815260040160405180910390fd5b8060c001514210156108755760c08101516040516326386c7360e21b815242600482015260248101919091526044015b60405180910390fd5b600083815260066020526040902054156108a557604051635854482960e01b81526004810184905260240161086c565b60008381526007602052604090205460ff16156108d557604051632bf773b360e11b815260040160405180910390fd5b600083815260076020526040808220805460ff1916600117905582015160028054919290916109059084906127e2565b9091555050600154815160408084015190516340c10f1960e01b81526000936001600160a01b0316926340c10f1992610954926004016001600160a01b03929092168252602082015260400190565b6020604051808303816000875af1158015610973573d6000803e3d6000fd5b505050506040513d601f19601f8201168201806040525081019061099791906127f5565b9050806109cf57815160408084015190516351b56ffb60e11b81526001600160a01b039092166004830152602482015260440161086c565b600084815260056020818152604080842080546001600160a01b031990811682556001820180548216905560028201869055600382018054821690556004820186905593810180549094169093556006830184905560079092019290925583518482015191519182526001600160a01b03169186917fbffc17b7a726d22c05d31ec64fb82f8e8f50ed0eb01c512d5d8280fad9021797910160405180910390a3505050610a89600160008051602061291183398151915255565b50565b610a9582610758565b610a9e81611a09565b610aa88383611a27565b50505050565b6001600160a01b0381163314610ad75760405163334bd91960e11b815260040160405180910390fd5b610ae18282611acc565b505050565b610aee6119d6565b610af661199e565b600080516020612871833981519152610b0e81611a09565b86600003610b4c576040516305c57e8360e01b815260206004820152600a6024820152691cdc98d0da185a5b925960b21b604482015260640161086c565b87610b6a57604051631bf4348160e31b815260040160405180910390fd5b6001600160a01b038416610bad5760405163eac0d38960e01b81526020600482015260096024820152681c9958da5c1a595b9d60ba1b604482015260640161086c565b82600003610bce5760405163162908e360e11b815260040160405180910390fd5b42821015610bf85760405163309c39e560e11b81524260048201526024810183905260440161086c565b60008881526004602052604090205460ff1615610c2857604051632bf773b360e11b815260040160405180910390fd5b6000878152600860205260409020546001600160a01b031680610c6157604051633b58057560e11b81526004810189905260240161086c565b806001600160a01b0316876001600160a01b031614610ca657604051639a2f96bd60e01b81526001600160a01b0380831660048301528816602482015260440161086c565b6000898152600460205260408120805460ff1916600117905560028054869290610cd19084906127e2565b90915550506001546040516340c10f1960e01b81526001600160a01b0387811660048301526024820187905260009216906340c10f19906044016020604051808303816000875af1158015610d2a573d6000803e3d6000fd5b505050506040513d601f19601f82011682018060405250810190610d4e91906127f5565b905080610d80576040516351b56ffb60e11b81526001600160a01b03871660048201526024810186905260440161086c565b600154604080518781526001600160a01b0392831660208201529081018b90528982166060820152818816918916908c907fe9593d0f8ec1a5789c0378883cbe6e4e061a39dc20cdfdaa76b70219be0272739060800160405180910390a4505050610df8600160008051602061291183398151915255565b50505050505050565b6000610e0c81611a09565b610ae18383611b48565b610e1e6119d6565b610e2661199e565b80600003610e475760405163162908e360e11b815260040160405180910390fd5b6001600160a01b038216610e8a5760405163eac0d38960e01b81526020600482015260096024820152681c9958da5c1a595b9d60ba1b604482015260640161086c565b806002541015610ebb57600254604051630cccb0c760e21b815260048101919091526024810182905260440161086c565b6000838152600860205260409020546001600160a01b031680610ef457604051635a7fcce760e01b81526004810185905260240161086c565b600154610f0c906001600160a01b0316333085611be6565b600154604051630852cd8d60e31b8152600481018490526001600160a01b03909116906342966c6890602401600060405180830381600087803b158015610f5257600080fd5b505af1158015610f66573d6000803e3d6000fd5b505050506001600080828254610f7c91906127e2565b925050819055508160026000828254610f959190612812565b909155505060408051610100810182523381526001600160a01b038581166020830152918101849052600154821660608201526080810186905290821660a08201526003546000919060c0820190610fed90426127e2565b815260200160005481525090506000611096828051602080830151604080850151606080870151608088015160a089015160c08a015160e0909a015186516bffffffffffffffffffffffff199a861b8b16818b015297851b8a166034890152604888019590955291831b88166068870152607c860152901b909416609c83015260b082019490945260d0808201939093528351808203909301835260f001909252805191012090565b600081815260056020818152604092839020865181546001600160a01b03199081166001600160a01b0392831617835592880151600180840180548616928416929092179091559488015160028301556060880151600380840180548616928416929092179091556080890151600484015560a089015194830180549094169482169490941790925560c0870151600682015560e08701516007909101559154905492935087821692339285927f9666926aeec77247f0bfe007ccc456fffdfe20fc8738c7a6582bb953ac5fc2c2928a92919091169061117690426127e2565b604080519384526001600160a01b039283166020850152830152606082018c90528816608082015260a00160405180910390a4505050610ae1600160008051602061291183398151915255565b6000805160206128b18339815191526111db81611a09565b610a89611c4d565b6111eb611cad565b6111f482611d52565b6111fe8282611d7c565b5050565b600061120c611e39565b5060008051602061289183398151915290565b7ff0c57e16840df040f15088dc2f81fe391c3923bec73e23a9662efc9c229c6a008054600160401b810460ff16159067ffffffffffffffff166000811580156112655750825b905060008267ffffffffffffffff1660011480156112825750303b155b905081158015611290575080155b156112ae5760405163f92ee8a960e01b815260040160405180910390fd5b845467ffffffffffffffff1916600117855583156112d857845460ff60401b1916600160401b1785555b6001600160a01b038c1661131f5760405163eac0d38960e01b815260206004820152600d60248201526c2fb13934b233b2b22a37b5b2b760991b604482015260640161086c565b6001600160a01b0388166113665760405163eac0d38960e01b815260206004820152600d60248201526c2fb232b330bab63a20b236b4b760991b604482015260640161086c565b6001600160a01b0387166113a75760405163eac0d38960e01b81526020600482015260076024820152662fb830bab9b2b960c91b604482015260640161086c565b6001600160a01b0386166113ea5760405163eac0d38960e01b81526020600482015260096024820152682fbab833b930b232b960b91b604482015260640161086c565b89518b5114611456576040805163616c411360e01b81526004810191909152600c60448201526b5f737263436861696e49647360a01b60648201526080602482015260126084820152715f737263546f6b656e41646472657373657360701b60a482015260c40161086c565b61145e611e82565b611466611e92565b61146e611ea2565b611476611ea2565b611481600089611a27565b5061149a6000805160206128b183398151915288611a27565b506114c57f189ab7a9244df0848122154315af71fe140f3db0fe014031783b0946b8c9d2e387611a27565b50600180546001600160a01b0319166001600160a01b038e16179055600389905560005b8b518110156115365761152e8c828151811061150757611507612825565b60200260200101518c838151811061152157611521612825565b6020026020010151611b48565b6001016114e9565b50831561157d57845460ff60401b19168555604051600181527fc7f505b2f371ae2175ee4913f4499e1f2633a7b5936321eed1cdaeb6115181d29060200160405180910390a15b505050505050505050505050565b6000805160206128b18339815191526115a381611a09565b610a89611eaa565b60009182526000805160206128d1833981519152602090815260408084206001600160a01b0393909316845291905290205460ff1690565b6115eb61199e565b6115f36119d6565b60008051602061287183398151915261160b81611a09565b60008581526005602081815260409283902083516101008101855281546001600160a01b039081168083526001840154821694830194909452600283015495820195909552600382015485166060820152600482015460808201529281015490931660a0830152600683015460c083015260079092015460e0820152906116a557604051631bf4348160e31b815260040160405180910390fd5b806080015184146116d95760808101516040516364f9bc0760e11b815260048101919091526024810185905260440161086c565b8060a001516001600160a01b0316836001600160a01b0316146117285760a08101516040516367632d7b60e11b81526001600160a01b039182166004820152908416602482015260440161086c565b60008681526007602052604090205460ff161561175a576040516291c78160e21b81526004810187905260240161086c565b6000868152600660205260409020541561178757604051632bf773b360e11b815260040160405180910390fd5b600086815260066020818152604080842089905560059182905280842080546001600160a01b0319908116825560018201805482169055600282018690556003820180548216905560048201869055928101805490931690925591810183905560070182905551869188917ff5256adb112226e7da3aa86c1f5e8ffe850768c550b167eb69f3910ec7c5f4039190a35050610aa8600160008051602061291183398151915255565b600061183a81611a09565b6001600160a01b03831661187b5760405163eac0d38960e01b815260206004820152600760248201526630b230b83a32b960c91b604482015260640161086c565b811561189957610aa860008051602061287183398151915284611a27565b610aa860008051602061287183398151915284611acc565b60006118bc81611a09565b6001600160a01b0383166118f85760405163eac0d38960e01b8152602060048201526002602482015261746f60f01b604482015260640161086c565b816000036119195760405163162908e360e11b815260040160405180910390fd5b610aa86001600160a01b0385168484611ef3565b61193682610758565b61193f81611a09565b610aa88383611acc565b600061195481611a09565b61012c82108061196657506201518082115b156119985760405163cee97bdf60e01b81526004810183905261012c602482015262015180604482015260640161086c565b50600355565b6000805160206129118339815191528054600119016119d057604051633ee5aeb560e01b815260040160405180910390fd5b60029055565b6000805160206128f18339815191525460ff1615611a075760405163d93c066560e01b815260040160405180910390fd5b565b610a898133611f24565b600160008051602061291183398151915255565b60006000805160206128d1833981519152611a4284846115ab565b611ac2576000848152602082815260408083206001600160a01b03871684529091529020805460ff19166001179055611a783390565b6001600160a01b0316836001600160a01b0316857f2f8788117e7eff1d82e926ec794901d17c78024a50270940304540a733656f0d60405160405180910390a46001915050610752565b6000915050610752565b60006000805160206128d1833981519152611ae784846115ab565b15611ac2576000848152602082815260408083206001600160a01b0387168085529252808320805460ff1916905551339287917ff6391f5c32d9c69d2a47ea670b442974b53935d1edc7fd64eb21e047a839171b9190a46001915050610752565b468203611b82576040516305c57e8360e01b815260206004820152600760248201526618da185a5b925960ca1b604482015260640161086c565b60008281526008602090815260409182902080546001600160a01b0319166001600160a01b038516908117909155915191825283917f551ad9e4e71ef265602225ac2e1c9c89f8f4d33bedb9cd8468fb5870c83f5e89910160405180910390a25050565b6040516001600160a01b038481166024830152838116604483015260648201839052610aa89186918216906323b872dd906084015b604051602081830303815290604052915060e01b6020820180516001600160e01b038381831617835250505050611f5d565b611c55611fc0565b6000805160206128f1833981519152805460ff191681557f5db9ee0a495bf2e6ff9c91a7834c1ba4fdd244a5e8aa4e537bd38aeae4b073aa335b6040516001600160a01b03909116815260200160405180910390a150565b306001600160a01b037f0000000000000000000000000000000000000000000000000000000000000000161480611d3457507f00000000000000000000000000000000000000000000000000000000000000006001600160a01b0316611d28600080516020612891833981519152546001600160a01b031690565b6001600160a01b031614155b15611a075760405163703e46dd60e11b815260040160405180910390fd5b7f189ab7a9244df0848122154315af71fe140f3db0fe014031783b0946b8c9d2e36111fe81611a09565b816001600160a01b03166352d1902d6040518163ffffffff1660e01b8152600401602060405180830381865afa925050508015611dd6575060408051601f3d908101601f19168201909252611dd39181019061283b565b60015b611dfe57604051634c9c8ce360e01b81526001600160a01b038316600482015260240161086c565b6000805160206128918339815191528114611e2f57604051632a87526960e21b81526004810182905260240161086c565b610ae18383611ff0565b306001600160a01b037f00000000000000000000000000000000000000000000000000000000000000001614611a075760405163703e46dd60e11b815260040160405180910390fd5b611e8a612046565b611a0761208f565b611e9a612046565b611a076120b0565b611a07612046565b611eb26119d6565b6000805160206128f1833981519152805460ff191660011781557f62e78cea01bee320cd4e420270b5ea74000d11b0c9f74754ebdbfc544b05a25833611c8f565b6040516001600160a01b03838116602483015260448201839052610ae191859182169063a9059cbb90606401611c1b565b611f2e82826115ab565b6111fe5760405163e2517d3f60e01b81526001600160a01b03821660048201526024810183905260440161086c565b6000611f726001600160a01b038416836120b8565b90508051600014158015611f97575080806020019051810190611f9591906127f5565b155b15610ae157604051635274afe760e01b81526001600160a01b038416600482015260240161086c565b6000805160206128f18339815191525460ff16611a0757604051638dfc202b60e01b815260040160405180910390fd5b611ff9826120cd565b6040516001600160a01b038316907fbc7cd75a20ee27fd9adebab32041f755214dbc6bffa90cc0225b39da2e5c2d3b90600090a280511561203e57610ae18282612132565b6111fe6121a8565b7ff0c57e16840df040f15088dc2f81fe391c3923bec73e23a9662efc9c229c6a0054600160401b900460ff16611a0757604051631afcd79f60e31b815260040160405180910390fd5b612097612046565b6000805160206128f1833981519152805460ff19169055565b611a13612046565b60606120c6838360006121c7565b9392505050565b806001600160a01b03163b60000361210357604051634c9c8ce360e01b81526001600160a01b038216600482015260240161086c565b60008051602061289183398151915280546001600160a01b0319166001600160a01b0392909216919091179055565b6060600080846001600160a01b03168460405161214f9190612854565b600060405180830381855af49150503d806000811461218a576040519150601f19603f3d011682016040523d82523d6000602084013e61218f565b606091505b509150915061219f858383612264565b95945050505050565b3415611a075760405163b398979f60e01b815260040160405180910390fd5b6060814710156121ec5760405163cd78605960e01b815230600482015260240161086c565b600080856001600160a01b031684866040516122089190612854565b60006040518083038185875af1925050503d8060008114612245576040519150601f19603f3d011682016040523d82523d6000602084013e61224a565b606091505b509150915061225a868383612264565b9695505050505050565b60608261227957612274826122c0565b6120c6565b815115801561229057506001600160a01b0384163b155b156122b957604051639996b31560e01b81526001600160a01b038516600482015260240161086c565b50806120c6565b8051156122d05780518082602001fd5b604051630a12f52160e11b815260040160405180910390fd5b6000602082840312156122fb57600080fd5b81356001600160e01b0319811681146120c657600080fd5b60006020828403121561232557600080fd5b5035919050565b6001600160a01b0381168114610a8957600080fd5b803561234c8161232c565b919050565b6000806040838503121561236457600080fd5b8235915060208301356123768161232c565b809150509250929050565b600080600080600080600060e0888a03121561239c57600080fd5b873596506020880135955060408801356123b58161232c565b945060608801356123c58161232c565b935060808801356123d58161232c565b9699959850939692959460a0840135945060c09093013592915050565b60008060006060848603121561240757600080fd5b8335925060208401356124198161232c565b929592945050506040919091013590565b634e487b7160e01b600052604160045260246000fd5b604051601f8201601f1916810167ffffffffffffffff811182821017156124695761246961242a565b604052919050565b6000806040838503121561248457600080fd5b823561248f8161232c565b9150602083013567ffffffffffffffff8111156124ab57600080fd5b8301601f810185136124bc57600080fd5b803567ffffffffffffffff8111156124d6576124d661242a565b6124e9601f8201601f1916602001612440565b8181528660208385010111156124fe57600080fd5b816020840160208301376000602083830101528093505050509250929050565b600067ffffffffffffffff8211156125385761253861242a565b5060051b60200190565b600082601f83011261255357600080fd5b81356125666125618261251e565b612440565b8082825260208201915060208360051b86010192508583111561258857600080fd5b602085015b838110156125ae5780356125a08161232c565b83526020928301920161258d565b5095945050505050565b600080600080600080600060e0888a0312156125d357600080fd5b87356125de8161232c565b9650602088013567ffffffffffffffff8111156125fa57600080fd5b8801601f81018a1361260b57600080fd5b80356126196125618261251e565b8082825260208201915060208360051b85010192508c83111561263b57600080fd5b6020840193505b8284101561265d578335825260209384019390910190612642565b9850505050604088013567ffffffffffffffff81111561267c57600080fd5b6126888a828b01612542565b9550506060880135935061269e60808901612341565b92506126ac60a08901612341565b91506126ba60c08901612341565b905092959891949750929550565b600080600080608085870312156126de57600080fd5b84359350602085013592506040850135915060608501356126fe8161232c565b939692955090935050565b8015158114610a8957600080fd5b6000806040838503121561272a57600080fd5b82356127358161232c565b9150602083013561237681612709565b60005b83811015612760578181015183820152602001612748565b50506000910152565b6020815260008251806020840152612788816040850160208701612745565b601f01601f19169190910160400192915050565b6000806000606084860312156127b157600080fd5b83356127bc8161232c565b925060208401356124198161232c565b634e487b7160e01b600052601160045260246000fd5b80820180821115610752576107526127cc565b60006020828403121561280757600080fd5b81516120c681612709565b81810381811115610752576107526127cc565b634e487b7160e01b600052603260045260246000fd5b60006020828403121561284d57600080fd5b5051919050565b60008251612866818460208701612745565b919091019291505056fea1e2c127643b05ddd4b2a9035efb97eaf74237c1e00561fe90b272f75f614f2a360894a13ba1a3210667c828492db98dca3e2076cc3735a920a3ca505d382bbc65d7a28e3265b37a6474929f336521b332c1681b933f6cb9f3376673440d862a02dd7bc7dec4dceedda775e58dd541e08a116c6c53815c0bd028192f7b626800cd5ed15c6e187e77e9aee88184c21f4f2182ab5827cb3b7e07fbedcd63f033009b779b17422d0df92223018b32b4d1fa46e071723d6817e2486d003becc55f00a264697066735822122000597a050c3c267ee504b62c31eff6579d3ef7baaa240275306a9c7d758581d064736f6c634300081b0033",
  "linkReferences": {},
  "deployedLinkReferences": {}
}